:1000000000000120BD180000E5180000E7180000FE
:10001000E9180000EB180000ED18000000000000D7
:10002000000000000000000000000000EF180000C9
:10003000F118000000000000F3180000F51800009F
:10004000F7180000F7180000BD1D0000F7180000A9
:1000500011180000F7180000F7180000F71800004A
:10006000F7180000F7180000F7180000F718000054
:10007000F7180000F7180000F7180000F718000044
:10008000F71800006D1E0000F7180000F7180000B8
:10009000F7180000F7180000F7180000F718000024
:1000A000F7180000F7180000F7180000F718000014
:1000B000F7180000F7180000000000000000000022
:1000C000F7180000F7180000F7180000F7180000F4
:1000D000F7180000F7180000F718000000000000F3
:1000E0000000000000000000000000000000000010
:1000F0000000000000000000000000000000000000
:1001000000000000000000000000000000000000EF
:1001100000000000000000000000000000000000DF
:1001200000000000000000000000000000000000CF
:1001300000000000000000000000000000000000BF
:1001400000000000000000000000000000000000AF
:10015000000000000000000000000000000000009F
:10016000000000000000000000000000000000008F
:10017000000000000000000000000000000000007F
:10018000000000000000000000000000000000006F
:10019000000000000000000000000000000000005F
:1001A000000000000000000000000000000000004F
:1001B000000000000000000000000000000000003F
:1001C000000000000000000000000000000000002F
:1001D000000000000000000000000000000000001F
:1001E000000000000000000000000000000000000F
:1001F00000000000000000000000000000000000FF
:1002000010B5054C237833B9044B13B10448AFF350
:1002100000800123237010BD9C000020000000001E
:10022000DC36000008B5034B1BB103490348AFF3AC
:10023000008008BD00000000A0000020DC360000A7
:10024000154B002B08BF134B9D46A3F5803A0021A8
:100250008B460F461348144A121A02F091F80F4BBE
:10026000002B00D098470E4B002B00D09847002061
:10027000002104000D000D48002802D00C48AFF307
:10028000008002F02DF82000290001F005FE02F0A8
:1002900001F800BF0000080000000120000000007D
:1002A000000000009C000020DC0D00200000000089
:1002B00000000000D0E9012393423FBF0268591CAF
:1002C0008160D05C28BF0020704782684368911C21
:1002D000994230B59BBF0468A31800235D789EBF88
:1002E000A35C816043EA0523184630BDD0E90123B1
:1002F00010B593423FBF02685C1C8460D15434BF88
:100300000120002010BD8368426810B59C1C9442F7
:100310000BD802685C1C8460D154836802685C1C42
:10032000090A8460D154012010BD0020FCE78368D5
:1003300070B5044640689E188642154608D8206865
:10034000184401F0F9FFA2682A44A260012070BDA0
:100350000020FCE72DE9F041876843681546BA188C
:100360009A42044688461CD8084602F08FFB854214
:100370002E4628BF0646206832464146384401F0E2
:10038000DBFFB54207D9A06823683044AA1B0021CF
:10039000184401F0F5FFA3681D44A5600120BDE8E5
:1003A000F0810020FBE77FB5002343748374C3749E
:1003B00009B3CDE90133039301390A2611F8012F5E
:1003C0009AB1022B11DC2E2A01D10133F6E7303A23
:1003D000D4B2092CF2D804AC04EB830555F80C4CCC
:1003E00006FB042245F80C2CE8E7019B4374029BB2
:1003F0008374039BC37404B070BDF8B50025044634
:1004000043610F461646294680F8385080F87C52E2
:1004100080F88053C0F88C55C0F89C5BC0F8A05B96
:10042000C0F8A45BC0F8A85B80F8AC5B112201F0B7
:10043000A7FF10223946204602F030FB3146204605
:10044000FFF7B1FF2946202204F1180001F098FFC0
:1004500029464FF4107204F13C0001F091FF4FF473
:100460008072294604F5207001F08AFF2046F8BD0D
:100470002DE9F0410546ADF5047D00276869036864
:100480005B69984710B36869036801229B690DF1A5
:1004900007019847012804462CD19DF80720D5F87C
:1004A0008C35D2B9002BE9D005F2813842464FF4A1
:1004B000027102A800F07CFE064658B1024602A96D
:1004C000404601F039FFC5F88C6520460DF5047DE6
:1004D000BDE8F081C5F88C05D0E7B3F5027F3DBFDC
:1004E000591C5B19C5F88C15C5F88C7538BF83F895
:1004F0008123C3E70020E9E7F7B5044640690368B4
:100500001B6A0D4616469847F0B104F5F3672A4674
:1005100033464FF40171384600F018FE024688B1A8
:10052000606901680D693946A84702A9002301F8EE
:10053000013D606903681B6901229847606903688F
:10054000DB69984703B0F0BD6069036832461B69F8
:100550002946F2E730B585B004468DF80220012027
:10056000089A8DF8000004F5B2658DF80110ADF819
:1005700004204FF402716A462846029300F050FEB0
:10058000024618B129462046FFF7B6FF05B030BD38
:1005900007B500230A4600938221FFF7DBFF03B073
:1005A0005DF804FB1FB504AB03F8012D0122009296
:1005B0000A468321FFF7CEFF05B05DF804FB07B5BF
:1005C00000238A7800938021FFF7C4FF03B05DF811
:1005D00004FB07B58A78D0F89C1B009100F69C13A9
:1005E0008121FFF7B7FF03B05DF804FB7FB58B886F
:1005F000012B06460C4605D889780422FFF7D2FF66
:1006000004B070BD8A6801A8CDE9012300230393DB
:10061000FFF750FE054601A8FFF74CFE042811D84D
:10062000DFE800F0030E0E070C000021284601F061
:100630009DFDA1783046FFF7ABFFE1E70221F5E72A
:100640000121F3E70522A1783046D7E7F0B58B8882
:10065000012B85B007460C4605D804228978FFF7A0
:10066000A1FF05B0F0BD8A6801A8CDE901230023F0
:100670000393FFF71FFE064601A8FFF71BFEA388A2
:10068000022B054614D901A8FFF714FE022804D155
:100690002946304601F018FD05E0291C18BF01214C
:1006A000304601F08BFDA1783846FFF771FFD8E79F
:1006B000012D01463046F4D9ECE7F0B58B888BB0BC
:1006C00007460C462BB904228978FFF76BFF0BB065
:1006D000F0BD8A68002504A8CDE904230695FFF73C
:1006E000E9FDA388012B06461CD904A8FFF7E2FD0B
:1006F00003AD0422012303280795CDE908238DF8D3
:100700000C60304610D101F03BFC81B207A8FFF726
:10071000FAFD099B0093A2782B4691213846FFF7FA
:1007200019FFD4E72846E3E701F05AFD011C18BF82
:100730000121EBE72DE9FF478B88042B04460F4688
:1007400006D889780422FFF72DFF04B0BDE8F087B2
:100750008A68002501A8CDE901230395FFF7AAFDCA
:10076000824601A8FFF7A6FD814601A8FFF7ADFD6F
:10077000BB88062B064627D901A8FFF7A6FD94F8EB
:10078000808323460025EAB2904522D993F880223F
:1007900052451BD193F88C22C2B104EB0515002EF3
:1007A00008BF6426002385F88192A5F88262A5F827
:1007B0008402A5F8863201F017FBC5F88802B978E3
:1007C0002046FFF7E5FEC0E72846D8E7013510339D
:1007D000D9E7B8F1100F03D10B22B9782046B2E760
:1007E00004EB0813002E08BF6426002283F880A2C1
:1007F00083F88192A3F88262A3F88402A3F8862288
:1008000001F0F2FA04EB08180123C8F8880288F80E
:100810008C3294F88033013384F88033CFE78B88AF
:1008200070B423B90422897870BCFFF7BBBE8B6813
:1008300090F880431D7802460023DEB2B442F1D91D
:1008400092F88062AE420BD192F88C6246B100EB16
:100850000313002283F88C22897870BCFFF798BEBE
:1008600001331032E9E7F0B58A88012A0D4687B0D6
:100870000446897804D80822FFF794FE07B0F0BD3B
:10088000AB6894F838601878864203D9063054F87B
:10089000200010B908222046EEE75F788DF8081096
:1008A00002330393002305938DF809300368019404
:1008B000023A04929E6903AA01AB3946B0479DF8FB
:1008C0000930002BDAD1A9782046FFF761FED5E781
:1008D000F0B58A88012A0D4687B00446897804D885
:1008E0000D22FFF75FFE07B0F0BDAE6890F87C7296
:1008F00033789F42F4D9242707FB030393F85770FA
:100900000FB90E22EDE7013ADB6D049201360022A9
:100910000396059201908DF808108DF8092013B107
:1009200001A903A898479DF80930002BDBD1A978CD
:100930002046FFF72DFED6E70D228978FFF732BE5D
:100940008978FFF725BE90F8802310B400F527744E
:1009500004EB021400F5237300221033A34202D0EB
:1009600003F8102CF9E780F88023C0F88C258978EB
:100970005DF8044BFFF70CBE2DE9F0478B88012B87
:10098000ADF50C7D81460D4607D801228978FFF729
:1009900009FE0DF50C7DBDE8F0878A68DFF880A0C0
:1009A000002403A8CDE903230594FFF783FC4FF04F
:1009B000805209924FF400730222CDE907340B9460
:1009C0008DF8282009AB0ECB80460CAF1448AE88BA
:1009D000069700F065FD2146404601F0EFFB013E21
:1009E000B4420CD203A8FFF765FC0146504600F064
:1009F00064FD014606A8FFF779FC0134F0E7012108
:100A0000404601F0DBFB064800F056FD089B0093D2
:100A1000AA783B46B0214846FFF79CFDB9E700BFE6
:100A20007C0C00207FB58B88042B04460D4605D82E
:100A300004228978FFF7B6FD04B070BD8A680026ED
:100A400001A8CDE901230396FFF73FFCA4F8A00B12
:100A500001A8FFF73AFC0123A4F8A20B84F8AC3BF1
:100A600058B1074BB3FBF0F0C4F8A40BC4F8A86B63
:100A7000A9782046FFF78CFDDEE742F21070F3E71D
:100A800040420F00002280F8AC2BA0F8A02B897800
:100A9000FFF77EBD0F228978FFF784BD70B505464C
:100AA000ADF5067D01F0BAF9D5F8A83BD5F8A42B31
:100AB000C31A934220D34FF400730024CDE90434C9
:100AC00006AEC5F8A80B0396B5F8A02B2241D307B4
:100AD00006D5204601F054FA81B203A8FFF713FCB3
:100AE0000134102CF0D1059B33B100930022334622
:100AF000D0212846FFF72EFD0DF5067D70BD2DE9AE
:100B0000F04F87B0074601F06FF94FF000088146BB
:100B10000DF1080A4FF0010B97F880335FFA88F562
:100B2000AB423ED92D017C1994F88C32B3B394F8C2
:100B30008132042B32D1D4F88832B4F88222A9EB66
:100B4000030393422AD394F8800201F019FAB4F80F
:100B50008632B4F8842286B2B34234BFF31A9B1BA8
:100B60009BB29A4217D803230493314694F88032FB
:100B70008DF8083003A8CDF80CA0CDF814B0FFF71D
:100B8000C2FB059B00930022534690213846FFF795
:100B9000E1FCA4F886623D44C5F8889208F101089A
:100BA000BAE707B0BDE8F08F2DE9F04186B0044602
:100BB00000F69C13102200250146039303A84FF46E
:100BC0000073CDE90435FFF7C5FB617C03A8FFF78F
:100BD0008DFBA17C03A8FFF789FBE17C03A8FFF74D
:100BE00085FB082201A903A8CDE90155FFF79FFB6A
:100BF000294603A8FFF77AFB142103A8FFF776FB29
:100C00001426072103A8013EFFF770FB16F0FF062C
:100C1000F7D1012103A8FFF769FB012103A8FFF722
:100C200065FB012103A8FFF761FB4FF4007103A8E6
:100C3000FFF769FB94F8381003A8FFF757FB94F807
:100C40003830F1B28B4243D98B1D54F82350002D1C
:100C50003CD003A8FFF74AFB2B6828469B689847BF
:100C60000822014603A8FFF775FB2B682846DB68BE
:100C70009847014603A8FFF739FB2B6828461B69F4
:100C80009847014603A8FFF731FB2B6828461B6AEB
:100C90009847014603A8FFF729FB2B6828465B6AA3
:100CA0009847002780462B6828461B6A9847FBB266
:100CB00098420BD9B8F1000F06D018F8031003A81A
:100CC000FFF714FB0137EEE74146F8E70136B6E7D8
:100CD00094F87C1203A8FFF709FB00254FF02408C5
:100CE00094F87C326F1CEDB2AB4226D908FB05F5B7
:100CF000661905F13C011022214403A8FFF72AFBE5
:100D000096F84D1003A8FFF7F1FA05F14E010822FD
:100D1000214403A8FFF71EFB96F8571003A8FFF71E
:100D2000E5FA96F8581003A8FFF7E0FA96F859107C
:100D300003A8FFF7DBFA3D46D2E7059BC4F89C3BCE
:100D400006B0BDE8F08138B50446406903689B6889
:100D50009847002594F83820EBB29A420AD904EB60
:100D600083039A6922B15460986903685B69984764
:100D70000135EFE72046BDE83840FFF715BF00001A
:100D80002DE9FF418B88012B06460C4604D8897853
:100D90000622FFF707FC2BE08A68002501A8CDE9B1
:100DA00001230395FFF786FAA0F10803DBB26F2B4E
:100DB000014603D9A17806223046EAE70F48A78802
:100DC000DFF8388000F05CFC013FBD4208D201A88A
:100DD000FFF770FA0146404600F0BCFB0135F4E72E
:100DE000064800F0B8FCA17828B93046FFF7D0FBE0
:100DF00004B0BDE8F0810722DEE700BF9C0C0020B4
:100E00002DE9F0438B88012BADF5097D06460D4693
:100E100007D889780622FFF7C5FB0DF5097DBDE8E7
:100E2000F0838A68002402A8CDE902230494FFF726
:100E300041FAA0F10803DBB26F2B804603D90622EA
:100E4000A9783046E7E702A8FFF734FA08AF4FF475
:100E50000073024641460F480597CDE9063400F07D
:100E60000CFCDFF830808146E3B2994508D9404652
:100E700000F06AFBC1B205A8FFF738FA0134F3E7C6
:100E8000079B0093AA783B46A0213046FFF762FB00
:100E9000C3E700BF9C0C00202DE9F0438B88022B98
:100EA000ADF5097D06460D4607D889780622FFF77D
:100EB00079FB0DF5097DBDE8F0838A68002402A85E
:100EC000CDE902230494FFF7F5F9A0F10803DBB2A2
:100ED0006F2B074603D90622A9783046E7E702A818
:100EE000FFF7E8F9804602A8FFF7E4F939468146A2
:100EF000194800F0C5FB4146174800F02BFB21467E
:100F0000154800F0C7FB044608B10722E4E74FF498
:100F10000073CDE906304A4639460DF120080E48E7
:100F2000CDF8148000F0A9FB0B4F8146E3B2994540
:100F300008D9384600F008FBC1B205A8FFF7D6F97A
:100F40000134F3E7079B0093AA784346A02130467B
:100F5000FFF700FBADE700BF9C0C002030B44B78DE
:100F6000222B05460C465FD01ED8122B47D011D835
:100F7000022B3ED007D8012B38D0A1782846012279
:100F800030BCFFF70FBB102B36D0112BF5D130BC86
:100F9000FFF75CBB142B38D034D3202B41D0212B4E
:100FA000EBD130BCFFF72CBF602B34D00ED8402BD8
:100FB0002ED004D8302BE0D130BCFFF7DDBC502B55
:100FC00035D0512BD9D130BCFFF75CBD722B08D87E
:100FD000702B2FD2612B21D0622BCED130BCFFF7EA
:100FE000AFBCF02BC9D130BCFFF7ADBC30BCFFF7B4
:100FF000E6BA30BCFFF7EDBA30BCFFF7F7BA30BC49
:10100000FFF75BBB30BCFFF795BB30BCFFF707BCFD
:1010100030BCFFF728BC30BCFFF75ABC30BCFFF730
:101020008BBC30BCFFF7ACBE30BCFFF735BF30BC6B
:10103000FFF7F8BC30BCFFF72DBDF0B504464069A2
:10104000036885B0DB68984700287DD06069036835
:101050005B6A9847606903681B6A9847E0B120465D
:10106000FFF706FA002851D0D4F88C2504F281311C
:10107000684600F015F938B969462046FFF76EFF5B
:101080000023C4F88C3541E00428F9D10222002164
:101090002046FFF787FAF3E7606903685B699847C2
:1010A000051E33DDD4F88C156069C1F50272036842
:1010B000AA4204F281369B6928BF2A4631449847E8
:1010C0000028C2BFD4F88C351B18C4F88C35D4F86E
:1010D0008C25072A1AD93146684600F0E1F8074600
:1010E00078BB69462046FFF739FFBDF80450D4F8B5
:1010F0008C250835AA4221D9521B7119304601F0BE
:1011000026F9D4F88C355D1BC4F88C5594F8AC3BAB
:1011100013B12046FFF7C2FC2046FFF7F0FC002584
:1011200094F83820EBB29A420ED9063354F82300D3
:1011300010B10368DB6998470135F1E7C4F88C7595
:10114000E4E70428E2D1A1E705B0F0BDF0B508B1AD
:1011500012B913B1002103E023B909B101210170D3
:101160000846F0BD5D1CFE24B3FBF4F42C448C4215
:10117000F0D801241344002621469A4200EB0605CC
:1011800001D12C70ECE712F801CB4F1CBCF1000F21
:1011900004D12C700E4601243946EEE70134E4B246
:1011A000FF2C00F801C0F7D13E462C708F1CF2E7EF
:1011B0002DE9F043864610B90020BDE8F083002AEF
:1011C000FAD0002BF8D00020054681469D42F4D28B
:1011D00012F805806C1C02EB050CB8F1000FEBD087
:1011E00008F1FF36F6B235199D42E5D837188F421F
:1011F000E2D80EEB00046644B4450BD1B8F1FF0F02
:1012000006D09D4204D28F42D6D20EF80790013705
:101210003846DBE71CF8010F04F8010BECE700008F
:1012200070B50346002836D0002A34D090880830A4
:10123000814230D34321197044215970117899703B
:101240005178D97091781971918859719188090AEA
:101250009971918869B99288104D591C13449C1D4D
:10126000002211F8016F72408C42AA5CF9D1DA7148
:1012700070BD91680029EED0002105E089B2946824
:10128000645C1944CC71314695888CB2A54201F159
:101290000106F3D8DFE70020EAE700BF5C33000077
:1012A000F0B5002835D0002933D0072A01D8052011
:1012B000F0BD0B78432B2ED14B78442B2BD18C785F
:1012C0000470CB7843700B7983708D794B79012C46
:1012D00043EA0523838020D103F10804A242E6D328
:1012E000ABB1CA1D82608D1D0D4E4C1C1D440022E9
:1012F00014F8017F7A40A542B25CF9D11944CB7948
:10130000934215BF0373027304200020D0E783606B
:10131000E9E70120CCE70220CAE70320C8E700BFC5
:101320005C330000704710B50446806818B103684C
:10133000E1689B6998470120207410BD007C7047CC
:10134000406803685B681847406803689B681847F3
:101350002DE9F04106460D4601EB02080C464445D6
:10136000A4EB05070DD0706803689B68984740B1EF
:1013700070680368DB689847002802DB04F8010BFB
:10138000EDE73846BDE8F081406803685B691847BF
:1013900001207047704710B5044600F091FD2046CB
:1013A00010BD00000148FFF7CEBC00BFB800002010
:1013B0000148FFF742BE00BFB800002010B50C4C3A
:1013C0000C4B23600C4B0D4A0D49C4E901334FF41B
:1013D000E133E36020460023237400F029FF234615
:1013E000084A09490948BDE81040FFF706B800BFA0
:1013F000680C002064340000580D0020000000201C
:10140000951300008C34000092340000B8000020D6
:1014100038B50025057329B90B4B0C4A0C4825211A
:1014200000F00CFF01600B4951F82220027151F8C5
:10143000233083719DF8103051F82330437102231B
:10144000C371856038BD00BF9D340000FF340000CB
:10145000AB3400005C35000084B00DF1100C0CE9D9
:101460000E009DF80810026800230129C2F800351B
:10147000039B12D00BD303290CD0C2F85435019B27
:10148000C2F824350123C2F8003504B0704743F098
:101490000203F2E743F00403EFE743F00603ECE74F
:1014A00010B485B001AC84E80E0094E80E0005B0DD
:1014B0005DF8044BFFF7D0BF70470368C3F81C15F5
:1014C000D3F80821002AFBD0D3F818050022C3F86E
:1014D0000821C0B27047000007B5094B09490A4806
:1014E0004FF080421A6000229A6002221A710B2388
:1014F00000930C220D23FFF78BFF03B05DF804FB74
:10150000900C0020003002407C0C00202DE9F843B4
:1015100080460D46174601EB02090C464C45A4EBEC
:1015200005060BD0D8F8003014F8011B1B684046A4
:1015300098470028F2D13046BDE8F8833E46FAE7E6
:101540007047203000F0A2B9203000F091B920306F
:1015500000F0A2B938B5437F0D460BB9002038BD65
:1015600000F16804204600F09FF90028F6D12046DB
:10157000294600F06EF90120F1E700002DE9F04165
:101580001E4600254FF47A73C0E901530C4B044604
:1015900040F8203B8846174600F052F904F16800F5
:1015A00000F04EF99DF8183063769DF81C302676D1
:1015B000C4E90487A37665772046BDE8F08100BFC3
:1015C000443500002DE9F041044688461F46154683
:1015D000002A50D000F12006304600F045F923697A
:1015E000C3F88885236901221A622369C3F8346528
:1015F0002369C3F8385523691A602269D2F84C313F
:101600001BB9D2F82431002BF8D00023C2F84C319A
:101610002269D2F85C311BB9D2F82431002BF8D002
:101620000023C2F85C3122696FB9D2F8243153B972
:101630000123D3612369D3F84821002AFBD000227B
:10164000C3F8482109E0012353612369D3F8042139
:10165000002AFBD00022C3F804212369D3F82421F7
:1016600012B10022C3F824212369D3F83C05206677
:10167000C0B2BDE8F0811046FBE70123FFF7A2BF2F
:1016800010B5044680F8B010683000F0EDF8012382
:10169000637710BDF8B500234377036990F8B02055
:1016A000C3F88825036901261E62036900F16805F5
:1016B0000446C3F8445528460F4600F0E7F823696E
:1016C000C3F8480523699E602369D3F850211AB9ED
:1016D000D3F82421002AF8D00022C3F8502128464C
:1016E00000F0D4F8236930B1D3F860211AB9D3F8E7
:1016F0002421002AF8D00022C3F8602123696FB9A1
:10170000D3F8242152B90122DA612369D3F84821A0
:10171000002AFBD00022C3F8482109E001225A61C7
:101720002369D3F80421002AFBD00022C3F8042146
:101730002369D3F8240168B10022C3F82421236966
:10174000D3F8C404C3F8C404022803D004280CBF8F
:1017500003200420F8BD0121FFF79CBF70B5436949
:10176000D3F86421044692B10022012500F120063D
:10177000C3F864210577304600F076F86369C3F852
:10178000346563694022C3F8382563691D63636962
:10179000D3F86821DAB10025C3F8685104F168066E
:1017A000012363772577304600F05EF8D4F8B43033
:1017B00003B19847636965773046C3F8446500F024
:1017C00065F86369C3F84805636901225A63636970
:1017D000D3F8042162B10022C3F80421237F3BB176
:1017E0006369D3F83C05D4F8B830206603B1984754
:1017F0006369D3F8242152B10022C3F8242163691C
:10180000D3F8D024C3F8D024636901225A6170BD93
:101810000148FFF7A3BF00BF9C0C002007B51623AB
:101820001722CDE900324FF040220423114603482D
:10183000FFF7A4FE03B05DF804FB00BF9C0C002082
:1018400008B54022002100F09BFD0022C0E91022D3
:1018500008BD026C10B5531C446C03F03F039C425E
:101860001CBF8154036410BD0023C0E910337047CE
:10187000D0E9102393421FBFC25C013303F03F0342
:10188000436414BF10464FF0FF307047D0E910306A
:10189000181A48BF40307047D0E91023934214BF54
:1018A000C05C4FF0FF307047036C406C013303F0B5
:1018B0003F031B1A58425841704700000649074A27
:1018C000074B9B1A03DD043BC858D050FBDC00F0EB
:1018D00037F8FEF7B5FC0000E836000000000020F5
:1018E0009C000020FEE7FEE7FEE7FEE7FEE7FEE7DE
:1018F000FEE7FEE7FEE7FEE7044B1868421C04BF64
:10190000034B1878831F584258417047300100102C
:10191000E00F00F0074B1B78062B09D1064B1B6824
:10192000C3F30313033B032B02D8044AD05C704774
:1019300000207047E00F00F0E80F00F0C83500000D
:1019400008B5FFF7D9FF28B1654B664A1B68C3F39A
:1019500004231360FFF7DEFF10B1634B634A1A6084
:10196000FFF7CAFF28B1624B624A1B68C3F34233D8
:101970001360FFF7CFFF20B15F4AD36823F0807375
:10198000D360FFF7B9FF40B14FF080430022C3F8A6
:101990000C21C3F81021C3F83825FFF7BBFF10B1A5
:1019A000564B03221A60FFF7B5FF40B1544B052296
:1019B0001A6001229A6700229A603F225A60514BB6
:1019C0001A68511C0BBF504B504B1A781B6802BF52
:1019D00008331B68C3F30313062A4DD1033B032BC3
:1019E00003D84B4AD35C002B46D04FF08052494B72
:1019F000D2F80414C3F82015D2F80814C3F824153B
:101A0000D2F80C14C3F82815D2F81014C3F82C150A
:101A1000D2F81414C3F83015D2F81814C3F83415DA
:101A2000D2F81C14C3F84015D2F82014C3F844159A
:101A3000D2F82414C3F84815D2F82814C3F84C156A
:101A4000D2F82C14C3F85015D2F83014C3F854153A
:101A5000D2F83414C3F86015D2F83814C3F86415FA
:101A6000D2F83C14C3F86815D2F84014C3F86C15CA
:101A7000D2F84424C3F87025FFF73EFF28B1264B67
:101A8000264A1B6803F04F031360FFF735FF48B188
:101A90004FF08043D3F80024D20744BF6FF0010217
:101AA000C3F80024174B1B68062B09D1174B1B6882
:101AB000033B022B81BF1A4A136843F4806313600F
:101AC000184AD2F8883043F47003C2F88830BFF364
:101AD0004F8FBFF36F8F144B144A1A6008BD00BFBD
:101AE000240300104035014074C007400DF0ADBA2A
:101AF000440200103C050040F0ED00E0A00500406D
:101B00001056004030010010E00F00F034010010CA
:101B1000C435000000C0004058020010E40E004030
:101B20003C17004000ED00E0040000200090D003CE
:101B30000120704703681322DB6918477047036967
:101B4000C3F81C150369D3F81C21002AFBD000221E
:101B5000C3F81C210120704710B490F95C30144C7C
:101B600059090122203103F01F0302FA03F344F85C
:101B7000213003695DF8044B0421C3F8081303699D
:101B80005A600369DA6003690022C3F8002502691C
:101B90004FF0FF33C2F80C350269C2F81435026900
:101BA000C2F8083502691430C2F81035FFF75CBE80
:101BB00000E100E01430FFF769BE1430FFF76CBE9F
:101BC0001430FFF755BE0000036990F85E2010B591
:101BD000C3F80C25036990F85D20C3F8142590F82C
:101BE00061200369012A01BF90F85F40C3F81045E6
:101BF000036990F8604006BFC3F8084503690022F6
:101C0000B1F5966FC3F86C2569D9B1F5166F69D92E
:101C1000B1F5965F69D9B1F5165F68D9B1F5615F25
:101C200067D9B1F5964F66D9B1F5E14F65D9B1F5F0
:101C3000164F64D9B1F5614F64D9B1F5963F64D9B7
:101C4000B1F5E13F63D9B1F5613F63D9364B9942B4
:101C500063D9B1F5E12F63D9B1F5612F94BF4FF08E
:101C600070634FF080530269C2F82435036904227F
:101C7000C3F8002501690023C1F808310169C1F8E2
:101C80001C31016901230B6001698B600169C1F896
:101C9000042390F95C20510902F01F029340603147
:101CA000224A42F8213090F95C30002BBDBF03F08E
:101CB0000F0302F6FC32D2189B18B5BF60236022D6
:101CC000137683F8002390F95C300122590903F060
:101CD0001F0302FA03F3154A42F8213010BD4FF4F6
:101CE0009E23C0E74FF41D23BDE7114BBBE7114B0B
:101CF000B9E7114BB7E7114BB5E7114BB3E74FF419
:101D00001D03B0E74FF46B03ADE70E4BABE74FF0AD
:101D1000EB73A8E74FF06C73A5E74FF08063A2E781
:101D20004FF0E8639FE700BF90D0030000E100E0C0
:101D300000B013000050270000F03A0000A04E0051
:101D400000C0750000903A012DE9F0411E460025C3
:101D50004FF47A73C0E901530D4B044640F8143B2D
:101D600017468846FFF76CFD0A4AC4F8108084F8CD
:101D70005C7052F8263084F85D309DF8183052F8C7
:101D8000233084F85E3084F861502046BDE8F0814D
:101D9000D43500005C35000010B50369D3F8082184
:101DA00004464AB1D3F818151430C9B2FFF751FDF3
:101DB00023690022C3F8082110BD00000148FFF785
:101DC000EBBF00BF580D002007B519230093022276
:101DD000182303490348FFF7B7FF03B05DF804FB7E
:101DE00000200040580D00200A4B19680A4B30B5FE
:101DF000D3F804050C060D0A44EA00024FF47A7188
:101E00002B46A2FB014501FB0355E00B40EA454090
:101E100030BD00BFBC0D002000100140094B196807
:101E2000094B30B5D3F804050D0A0C06074944EAFE
:101E300000022B46A2FB014501FB0355E00B40EAE3
:101E4000454030BDBC0D00200010014040420F0055
:101E500038B5044648B1FFF7C7FF054600F01AF849
:101E6000FFF7C2FF401BA042F8D338BD074B00224A
:101E7000C3F8042182B0D3F80431054A0193019BD1
:101E800013680133DBB2136002B0704700100140E9
:101E9000BC0D00207047704708B500F013F8FFF73D
:101EA000FAFF0120FFF7D4FFFFF77CFA034CFFF79E
:101EB0007FFA002CFBD0AFF30080F8E700000000B1
:101EC00000F032BA2A4BE02283F811234FF400329B
:101ED000C3F880211A604FF080430122C3F818250F
:101EE0009A6003F588330021C3F808150221C3F86E
:101EF0000413C3F844131A604FF01023D3F80022E0
:101F0000002A03DBD3F80432002B2FDA194B01220D
:101F1000C3F80425D3F80024002AFBD04FF0102288
:101F20001521C2F80012D3F80024002AFBD04FF08C
:101F300010231522C3F804220E4B1A46D3F80014BE
:101F40000029FBD00021C3F80415D2F80034002B7F
:101F5000FBD0BFF34F8F0849084BCA6802F4E06218
:101F60001343CB60BFF34F8F00BFFDE7704700BF47
:101F700000E100E000E0014000ED00E00400FA05AF
:101F8000192837B50CD84B4B53F82030052B00F0EF
:101F9000828007D8032B12D07BD8022B00F08180DF
:101FA000002074E01D2B78D003D81C2BF8D105221B
:101FB00006E01E2B73D01F2BF2D1082200E0022274
:101FC0003D4B196808296EDD0A296FDD0D29B5BF63
:101FD0000C240E24022303233848C0F8F0350123D3
:101FE000C0F8003500200546030103F1804303F5E6
:101FF000E04301300828C3F81455C3F81055F3D155
:102000002F4B18682F4B1B6800021B0303F48053EF
:1020100000F4E0601843294BC3F81805C3F81425F1
:10202000C3F810250DF10602C3F82C260122C3F8CF
:1020300030261A60D3F80021002AFBD00022C3F812
:10204000002101225A601D4B1A46D3F804010028D2
:10205000FBD00020C3F8040101209860D2F81431AD
:10206000002BFBD00023C2F81431BDF906209A42A0
:10207000124AB8BFADF80630A142C2F80035BDF92A
:10208000060004D035BF611A091BC840884003B060
:1020900030BD032294E7042292E7062290E707224C
:1020A0008EE701228CE70824002395E70A24012308
:1020B00092E700BF5C350000140000200070004073
:1020C00018000020C80D0020192830B53CD8224B3C
:1020D00053F82000214B00221D4653F82240B4F152
:1020E000FF3F32D11E4C45F822006FEA41411D4DA1
:1020F0001D4B246853F822306FEA514125F8121025
:10210000012101FA04F4C3F86005013CC3F8640539
:1021100005EB4202C3F86805C3F86C050020C3F85C
:102120000015C3F80C05C3F80405C3F80845C3F847
:102130001405C3F81005C3F82025C3F82415C3F807
:102140002815C3F82C05996030BD8442CAD00132ED
:10215000032AC2D1F8E700BF5C3500000800002068
:102160001C000020C00D0020FC35000019280FD8ED
:10217000114B53F8203003290AD8DFE801F002168A
:102180000A1003F5E0734FF0A042002142F823103B
:10219000704703F5E0734FF0A0420C21F6E703F51A
:1021A000E0734FF0A0420421F0E703F5E0734FF035
:1021B000A0420321EAE700BF5C35000019280CD8D3
:1021C000064B53F82020012393404FF0A04211B951
:1021D000C2F80C357047C2F8083570475C3500000E
:1021E00019289FBF4FF0A043054AD3F8103552F885
:1021F00020009ABF23FA00F000F001000020704791
:102200005C3500002DE9F04106460D4601EB020861
:102210000C464445A4EB050707D0336814F8011BAE
:102220001B68304698470028F3D13846BDE8F08156
:102230000B460146184600F01FB800001FB51C46AB
:10224000094B1B680546D86852B1084B0091CDE98F
:10225000013207492B46224600F030F800F0F4FC2A
:10226000044B1A46F2E700BF2000002008360000A9
:10227000153600004336000010B5054C13462CB14E
:102280000A4601460220AFF3008010BD2046FCE75D
:102290000000000008B5074B044613B10021AFF35E
:1022A0000080054B1868836A03B19847204601F007
:1022B00047F800BF00000000443600000EB403B52C
:1022C000014603AB054853F8042B0068019300F066
:1022D00031F902B05DF804EB03B070472000002034
:1022E00070B50D4E0D4CA41BA4100025A54209D1BC
:1022F0000B4E0C4C01F026F8A41BA4100025A5429F
:1023000005D170BD56F8253098470135EEE756F8EF
:10231000253098470135F2E7840000208400002032
:102320008400002098000020024B0146186800F04D
:102330002FB800BF2000002010B5431E0A44914270
:1023400000D110BD11F8014B03F8014FF7E78842A7
:1023500010B501EB020307D8421E99420AD011F8CA
:10236000014B02F8014FF8E78342F5D98118D21AE0
:10237000D34200D110BD13F8014D01F8014DF7E72C
:1023800002440346934200D1704703F8011BF9E76A
:1023900038B50546002945D051F8043C0C1F002BE8
:1023A000B8BFE41800F08CFE1F4A1368104633B91A
:1023B000636014602846BDE8384000F082BEA34246
:1023C0000CD921686218934204BF1A685B68636085
:1023D00004BF521822600460ECE713465A680AB141
:1023E000A242FAD919685818A0420BD120680144BA
:1023F000581882421960DDD1106852685A60014451
:102400001960D7E702D90C232B60D3E72068211885
:102410008A4204BF11685268626004BF09182160D3
:102420005C60C7E738BD00BFCC0D002070B5CD1C87
:1024300025F0030508350C2D38BF0C25002D064668
:1024400001DBA94203D90C233360002070BD00F0EA
:1024500037FE214A1468214691B9204C23681BB9E4
:10246000304600F003FB20602946304600F0FEFABB
:10247000431C24D10C233360304600F022FEE4E7F5
:102480000B685B1B18D40B2B0FD90B60CD50CC18ED
:10249000304600F016FE04F10B00231D20F007006B
:1024A000C31AD3D05A42E250D0E78C424B6816BFD1
:1024B000636013600C46EBE70C464968CCE7C41C2C
:1024C00024F00304A04205D0211A304600F0CEFAD1
:1024D0000130CFD02560DBE7CC0D0020D00D0020EF
:1024E0009368013B002B10B4936008DA9469A3420F
:1024F00001DB0A2903D15DF8044B00F0E5BA13684B
:10250000581C1060197008465DF8044B7047F8B508
:1025100006460F461446D518AC4201D1002007E00C
:102520003A4614F8011B3046FFF7DAFF431CF3D19B
:10253000F8BD00002DE9F04F9DB00C4617460393FF
:10254000064618B183690BB900F076FC7B4B9C42C0
:1025500057D17468A38918075DD52369002B5AD019
:102560000023099320238DF8293030238DF82A3059
:102570004FF0010BB846454615F8013B0BB1252B32
:1025800054D1B8EB070A0BD053463A4621463046A1
:10259000FFF7BDFF013000F0C280099B534409934F
:1025A00098F80030002B00F0BA8000234FF0FF3283
:1025B000CDE90523049307938DF853301A93A84669
:1025C000052218F8011B5E4800F02AFD049B78BB29
:1025D000D90644BF20228DF853201A0744BF2B226E
:1025E0008DF853202A782A2A2AD0079AA846002054
:1025F0000A25414611F8013B303B092B69D960B3EC
:1026000024E0504B9C4201D1B468A3E74E4B9C425E
:1026100008BFF4689EE72146304600F0A7FA00287C
:102620009ED04FF0FF301DB0BDE8F08FA846A2E766
:10263000434A801A0BFA00F0184304904546BEE75F
:10264000039A111D12680391002A01DB079204E02E
:10265000524243F002030792049398F800302E2B65
:102660000ED198F801302A2B38D1039B1A1D1B6814
:102670000392002BB8BF4FF0FF3308F10208059317
:10268000324D98F800100322284600F0C9FC40B1F2
:102690004023401B03FA00F0049B034308F10108A8
:1026A000049398F800102A488DF82810062208F1A3
:1026B000010700F0B5FC002837D0264B1BBB039B5D
:1026C000073323F0070308330393099B4B44099313
:1026D00050E705FB0232012088468AE7002308F113
:1026E0000108059319460A25404610F8012B303A97
:1026F000092A03D9002BC3D00591C1E705FB0121AD
:1027000001238046F0E703AB00932246124B04A955
:102710003046AFF30080B0F1FF3F8146D5D1A389A9
:102720005B063FF57EAF09987DE703AB0093224639
:10273000094B04A9304600F087F8ECE79C3600000E
:1027400048360000BC3600007C3600004E360000E3
:1027500052360000000000000F2500002DE9F04770
:1027600091461F468A680B69DDF820809342B8BF06
:102770001346C9F8003091F8432006460C4612B1C2
:102780000133C9F800302368990642BFD9F80030F8
:102790000233C9F80030256815F0060507D104F1A9
:1027A000190AE368D9F800209B1AAB4228DC94F898
:1027B00043302268003318BF012392062DD404F160
:1027C000430239463046C047013020D02368E568CF
:1027D000D9F8002003F00603042B08BFAD1AA36844
:1027E00022690CBF25EAE57500259342C4BF9B1AF8
:1027F000ED184FF000091A344D451AD1002008E0B9
:102800000123524639463046C047013003D14FF0CC
:10281000FF30BDE8F0870135C3E7E1185A1C3020CE
:1028200081F84300224494F8451082F843100233A3
:10283000C5E70123224639463046C0470130E6D07D
:1028400009F10109D8E700002DE9F04301F1430C3B
:102850000C46097E85B06E291746064698460C9AA6
:1028600000F0B38022D8632936D00AD8002900F0BE
:10287000B980582900F0838004F1420584F84210A1
:1028800032E0642901D06929F6D120681368050671
:1028900003F104012AD51B681160002B03DA2D22F5
:1028A0005B4284F843206F480A2239E0732900F024
:1028B0009D8008D86F2920D07029DDD1236843F08E
:1028C0002003236003E0752917D07829D4D1782319
:1028D00084F84530644855E01368191D1B68116081
:1028E00004F1420584F8423001238CE01B6811603A
:1028F00010F0400F18BF1BB2CFE713682568181DF2
:102900001060280601D51B6802E06806FBD51B880D
:1029100054486F2914BF0A220822002184F843106A
:102920006568A560002DC0F29580216821F0040142
:102930002160002B3DD1002D40F08E806546082A95
:102940000BD12368DB0708D5236962689A42DEBF92
:10295000302305F8013C05F1FF35ACEB050323619D
:10296000CDF800803B4603AA21463046FFF7F6FE2D
:1029700001304DD14FF0FF3005B0BDE8F08339484C
:1029800084F84510136821681D1D1B6815600A0630
:102990000BD5CA0744BF41F0200121601BB9226852
:1029A00022F0200222601022B7E74D0648BF9BB2FA
:1029B000EFE76546B3FBF2F102FB1133C35C05F8A8
:1029C000013D0B460029F5D1B9E713682568616917
:1029D000181D106028061B6801D5196002E06A0600
:1029E000FBD51980002323616546B9E71368191DDB
:1029F00011601D6862680021284600F011FB08B1D3
:102A0000401B606063682361002384F84330A7E7BC
:102A100023692A4639463046C0470130AAD0236888
:102A20009B0713D4E068039B9842B8BF1846A3E7FE
:102A300001234A4639463046C04701309AD0013515
:102A4000E368039A9B1AAB42F2DCEBE7002504F142
:102A50001909F5E7002BACD1037884F8423004F172
:102A600042056CE7593600006A36000038B5064C5E
:102A7000002305460846236000F04CFC431C02D1AD
:102A8000236803B12B6038BDD80D0020034613F82E
:102A9000012B002AFBD1181A0138704770B5013993
:102AA000044602B970BD234611F8015F03F8015BCB
:102AB000561E2DB91444A342F4D003F8015BFAE783
:102AC0001C463246EDE70000F8B50E4614460546B2
:102AD00018B183690BB900F0AFF9214B9C422AD1A0
:102AE0006C68A369A360A3891A072ED5236963B311
:102AF00023692068C01A6369F6B28342374604DC52
:102B00002146284600F02EF928BBA368013BA360AC
:102B100023685A1C22601E7063690130834204D00E
:102B2000A389DB0719D50A2E17D12146284600F0C4
:102B300019F990B10FE00B4B9C4201D1AC68D0E782
:102B4000094B9C4208BFEC68CBE72146284600F0C1
:102B50000DF80028CCD04FF0FF373846F8BD00BF45
:102B60009C360000BC3600007C360000324B70B54D
:102B70001D6806460C4625B1AB6913B9284600F01E
:102B80005BF92E4B9C420FD16C68B4F90C309AB2B1
:102B900015072CD4D00611D40922326043F040032B
:102BA000A3814FF0FF303EE0254B9C4201D1AC6841
:102BB000EBE7244B9C4208BFEC68E6E7510712D5CF
:102BC000616B41B104F14403994202D03046FFF7F2
:102BD000DFFB00236363A38923F02403A381002385
:102BE000636023692360A38943F00803A3812369F9
:102BF0004BB9A38903F42073B3F5007F03D02146BA
:102C0000304600F0C7F9A28912F001030CD000236E
:102C1000A36063695B42A361236953B9B4F90C30C3
:102C200013F08000BAD170BD920758BF6369A360EA
:102C3000F2E70020F7E700BF200000209C360000EC
:102C4000BC3600007C36000008B5062000F062FAB1
:102C5000012000F075FB00008A892DE9F04105464E
:102C600010070C4658D44B68002B05DC0B6C002B6E
:102C700002DC0020BDE8F081E66A002EF9D00023D6
:102C800012F480522F68216A2B6032D0606DA389C4
:102C90005A0705D56368C01A636B0BB1236CC01A61
:102CA00000230246E66A216A2846B047431CA389EE
:102CB00006D129681D2948D8294ACA40D60744D5D3
:102CC00000226260D9042269226004D5421C01D12D
:102CD0002B6803B96065616B2F600029C9D004F1CE
:102CE0004403994202D02846FFF752FB002060635C
:102CF000C0E701232846B047411CC8D12B68002BF0
:102D0000C5D01D2B01D0162B01D12F60B1E7A389AF
:102D100043F04003A381ADE70F69002FA9D09307CB
:102D20000E6808BF4B690F6018BF0023A6EB0708A9
:102D30008B60B8F1000F9CDD43463A46216AA66AD3
:102D40002846B047002806DCA38943F04003A3814E
:102D50004FF0FF308EE70744A8EB0008E9E700BF1B
:102D60000100402038B50B6905460C46DBB118B1AF
:102D700083690BB900F060F80C4B9C4209D16C6878
:102D8000B4F90C307BB121462846BDE83840FFF746
:102D900063BF074B9C4201D1AC68F1E7054B9C42F5
:102DA00008BFEC68ECE7002038BD00BF9C3600008F
:102DB000BC3600007C360000002310B50446C0E994
:102DC0000033836081814366C281C0E9043383613B
:102DD000194608225C30FFF7D3FA054B6362054BB6
:102DE000A362054BE362054B2462236310BD00BF61
:102DF0004D3100006F310000A7310000CB310000E1
:102E0000014900F085B800BF652D000070B54A1E6D
:102E1000682555430E4605F17401FFF707FB04468C
:102E200040B10021C0E900160C30A06005F1680235
:102E3000FFF7A6FA204670BD836910B5044633BB80
:102E4000C0E912330365124B124A1B688262984232
:102E500004BF0123836100F01FF86060204600F08A
:102E60001BF8A060204600F017F80022E060042163
:102E70006068FFF7A1FF01220921A068FFF79CFF0E
:102E800002221221E068FFF797FF0123A36110BD22
:102E900044360000012E0000F8B51B4B1E68B369D4
:102EA000074613B93046FFF7C7FF4836D6E9013465
:102EB000013B03D5336833B13668F7E7B4F90C50FA
:102EC0006DB16834F4E704213846FFF79FFF3060A6
:102ED0000028F1D10C233B6004462046F8BD0B4B83
:102EE0006566C4E90055A560C4E90335C4E9055524
:102EF0000822294604F15C00FFF742FAC4E90D55A7
:102F0000C4E91255E9E700BF443600000100FFFFA5
:102F10002DE9F8438046894600F14804002614B99B
:102F20003046BDE8F883D4E90175013F01D5246836
:102F3000F5E7AB89012B07D9B5F90E30013303D082
:102F400029464046C84706436835EEE770B50E4649
:102F5000B1F90E10002996B014461D4607DA002379
:102F60002B60B3891A0610D44FF480630EE06A46D2
:102F700000F052F90028F2DB019A02F47042A2F547
:102F800000535A425A412A60EEE740230020236052
:102F900016B070BD8B8973B59D0706460C4607D5E4
:102FA00004F14703236023610123636102B070BD14
:102FB00001AB6A46FFF7CAFF009905463046FFF7A6
:102FC00035FA48B9B4F90C309A05EFD423F003036D
:102FD00043F00203A381E3E70D4BB362A3892060B2
:102FE00043F08003A381009B6361019B20615BB17F
:102FF000B4F90E10304600F021F928B1A38923F06E
:10300000030343F00103A381A3891D43A581CDE7F9
:10301000012E000000000000000000000000000081
:1030200001F0FF01102A2BDB10F0070F08D010F879
:10303000013B013A8B422DD010F0070F42B3F6D17D
:10304000F0B441EA012141EA014122F007047FF096
:1030500000070023F0E80256083C85EA010586EAED
:10306000010685FA47F5A3FA87F586FA47F6A5FA29
:1030700087F68EB9EED1F0BC01F0FF0102F0070235
:1030800032B110F8013B013A83EA010313B1F8D1E0
:103090000020704701387047002D06BF35460338C1
:1030A000073815F0010F07D1013015F4807F02BFFA
:1030B000013015F4C03F0130F0BC0138704700BF4B
:1030C000704770471F2938B504460D4604D91623AA
:1030D00003604FF0FF3038BD426C12B152F821301E
:1030E0004BB9204600F030F82A4601462046BDE89C
:1030F000384000F017B8012B0AD0591C03D1162311
:1031000003600120E7E7002442F82540284698475D
:103110000020E0E7024B01461868FFF7D3BF00BF6D
:103120002000002038B5074C00230546084611460C
:10313000236000F0D7F8431C02D1236803B12B6051
:1031400038BD00BFD80D002000F0BCB810B50C464B
:10315000B1F90E1000F094F80028ABBF636DA3899D
:103160001B1823F48053ACBF6365A38110BD2DE908
:10317000F0411F468B89DB0505460C46164605D5F2
:1031800002230022B1F90E1000F068F8A389B4F907
:103190000E1023F48053A38132463B462846BDE8F7
:1031A000F04100F017B810B50C46B1F90E1000F060
:1031B00055F8431CA38915BF606523F4805343F47D
:1031C0008053A38118BFA38110BDB1F90E1000F088
:1031D00013B8000038B5074C0546084611460022D2
:1031E00022601A4600F0A4F8431C02D1236803B100
:1031F0002B6038BDD80D002038B5064C002305469D
:103200000846236000F04EF8431C02D1236803B146
:103210002B6038BDD80D002038B5074C002305467B
:1032200008461146236000F045F8431C02D123688C
:1032300003B12B6038BD00BFD80D002038B5064C57
:10324000002305460846236000F044F8431C02D1E1
:10325000236803B12B6038BDD80D002038B5074C6A
:10326000054608461146002222601A4600F042F840
:10327000431C02D1236803B12B6038BDD80D002058
:1032800038B5074C054608461146002222601A460A
:1032900000F038F8431C02D1236803B12B6038BD1D
:1032A000D80D0020024B58221A604FF0FF307047B3
:1032B000D80D0020024B58221A604FF0FF307047A3
:1032C000D80D0020024B58221A604FF0FF30704793
:1032D000D80D0020024B58221A600020704700BF12
:1032E000D80D0020024B58221A604FF0FF30704773
:1032F000D80D0020024B58221A604FF0FF30704763
:10330000D80D0020024B58221A604FF0FF30704752
:10331000D80D0020044A05491368002B08BF0B464E
:103320001844106018467047D40D0020E00D0020AE
:10333000024B58221A604FF0FF307047D80D002022
:10334000FEE700BFF8B500BFF8BC08BC9E4670475A
:10335000F8B500BFF8BC08BC9E4670470031625308
:10336000C4F5A697B988DBEA7D4C1F2E4372211065
:1033700087B6E5D4FACB98A93E0F5C6D86B7E4D545
:10338000427320113F0E5D6CFBCA99A8C5F4A79645
:10339000013063527C4D1E2FB889DAEB3D0C5F6E15
:1033A000F9C89BAA84B5E6D7407122137E4F1C2D25
:1033B000BA8BD8E9C7F6A59403326150BB8AD9E825
:1033C0007F4E1D2C02336051C6F7A495F8C99AAB05
:1033D0003C0D5E6F4170231285B4E7D67A4B1829F5
:1033E000BE8FDCEDC3F2A1900736655439085B6AE5
:1033F000FDCC9FAE80B1E2D344752617FCCD9EAFC5
:1034000038095A6B4574271681B0E3D2BF8EDDECC4
:103410007B4A192806376455C2F3A09147762514D4
:1034200083B2E1D0FECF9CAD3A0B586904356657A4
:10343000C0F1A293BD8CDFEE79481B2AE1D083B2A4
:103440002514477658693A0B9CADFECFA293C0F184
:10345000665704351B2A7948DFEEBD8C000000005A
:1034600000000000951300009713000027130000D0
:103470003D130000411300004913000051130000E8
:10348000891300009113000025130000312E302E07
:1034900030004261736963426C696E6B00705F73E8
:1034A000706920213D204E554C4C002F686F6D6592
:1034B0002F72756E6E65722F2E706C6174666F72EE
:1034C0006D696F2F7061636B616765732F667261E1
:1034D0006D65776F726B2D61726475696E6F6E6F5B
:1034E000726469636E7266352F6C696272617269AB
:1034F00065732F5350492F5350492E6370700053FA
:103500005049436C6173733A3A535049436C617349
:1035100073284E52465F5350495F547970652A2C88
:103520002075696E74385F742C2075696E74385F0D
:10353000742C2075696E74385F74290000000000D7
:1035400000000000551500000D1500004315000097
:10355000491500004F150000411500000B00000048
:103560000C0000000D0000000E0000000F00000025
:103570001000000011000000120000001300000005
:1035800014000000160000001700000018000000E2
:103590001900000003000000040000001C000000EF
:1035A0001D0000001E0000001F00000005000000BC
:1035B000020000001A0000001B00000008000000CC
:1035C00006000000000001010100000000000000F2
:1035D000000000003F1B000005220000B51B00009A
:1035E000C11B0000BB1B00003D1B0000351B000081
:1035F000C91B0000591B0000311B000000C0014026
:1036000000100240002002402C2066756E63746931
:103610006F6E3A2000617373657274696F6E202259
:10362000257322206661696C65643A2066696C6561
:1036300020222573222C206C696E65202564257359
:1036400025730A0024000020232D302B2000686CF5
:103650004C006566674546470030313233343536B5
:1036600037383941424344454600303132333435EE
:103670003637383961626364656600000000000017
:10368000000000000000000000000000000000003A
:10369000000000000000000000000000000000002A
:1036A000000000000000000000000000000000001A
:1036B000000000000000000000000000000000000A
:1036C00000000000000000000000000000000000FA
:1036D00000000000000000000000000000000000EA
:0836E00060CBFF7F0100000038
:1036E800000000000090D003FFFFFFFFFFFFFFFF77
:1036F800FFFFFFFF0A0000000100000008000000B3
:1037080024000020000000009C360000BC360000A9
:103718007C360000000000000000000000000000EF
:103728000000000000000000000000000000000091
:103738000000000000000000000000000000000081
:103748000000000000000000000000000000000071
:103758000000000000000000000000000000000061
:103768000000000025020000BD130000D91400006D
:0C3778001D180000C91D00000102000027
:04000003000018BD24
:00000001FF
