:100000000C9451000C9479000C9479000C947900B4
:100010000C9479000C9479000C9479000C9479007C
:100020000C9479000C9479000C9479000C9479006C
:100030000C9479000C9479000C948B110C943C1264
:100040000C9479000C9479000C9479000C9479004C
:100050000C9479000C9479000C9479000C9479003C
:100060000C9479000C9479000C9479000C9479002C
:100070000C9479000C9479000C9479000C9479001C
:100080000C9479000C9479000C9479000C9479000C
:100090000C94B8100C9442110C941C110C9479001F
:1000A000FC1211241FBECFEFCDBFDFE3DEBF18E28D
:1000B000A0E0B8E2E9E4F7E302C005900D92AA30AF
:1000C000B107D9F72DE2AAE0B8E201C01D92AF3620
:1000D000B207E1F710E0C1E5D0E004C02197FE01CE
:1000E0000E943B19C035D107C9F70E9433140C9404
:1000F000A61A0C940000AF92BF92CF92DF92EF92BB
:10010000FF920F931F93CF93DF931F92CDB7DEB76C
:10011000790198E0E90EF11CA9E8EA16F10408F06B
:100120008DC093E490932C2B94E490932D2B91E02D
:1001300090932E2B80932F2B6093302B2093312B79
:100140003093322B2115310509F084C0B9016B5F62
:100150007F4FAEE2BBE250E040E080E04617570739
:1001600008F489C0F901ED5CF44D8083E114F104D9
:1001700009F464C089018091AD299091AE29DC0118
:10018000ED91FC910088F189E02D0995882309F40F
:100190008CC0075F1F4F0338110508F04FC08CE279
:1001A000A82E8BE2B82E61E070E081E030E020E024
:1001B000F0E0E0E0D5019D915D013196AB014F5F2C
:1001C0005F4F89010C54144D911160C0D8018C937C
:1001D0009B0181E0EE15FF0508F456C02C54344D08
:1001E000F90180834115510549F18091AD29909124
:1001F000AE29DC01ED91FC910084F185E02D64EBEA
:100200007BE2099519828091AD299091AE29DC019C
:10021000ED91FC910084F185E02D41E050E0BE01BC
:100220006F5F7F4F09958091AD299091AE29DC01D8
:10023000ED91FC910684F785E02D09950F90DF91F3
:10024000CF911F910F91FF90EF90DF90CF90BF90D3
:10025000AF9008954115510509F478CFFA01A3E351
:10026000BBE2CA01820F931F8E179F0709F46ECF5E
:1002700041914D93F9CFED91E827F0E0E054FA4831
:1002800080814F5F5F4F6ACFBA0194CFDB01AC54DE
:10029000B44D9C938F5F8F3F09F09CCFD8018C9316
:1002A0009A01AB014E5F5F4F94CF8091AD29909141
:1002B000AE29DC01ED91FC910084F185E02DA701D0
:1002C0006CE27BE2AFCF30E020E050E040E0682F0E
:1002D00082E80C947B00CF93DF931F92CDB7DEB7FB
:1002E000698321E030E0AE014F5F5F4F682F83E804
:1002F0000E947B000F90DF91CF910895FC01248133
:100300003581828193812817390768F48081918132
:10031000A9014F5F5F4F44835583FC01E20FF31F38
:10032000608381E0089580E00895AF92BF92CF92FC
:10033000DF92EF92FF920F931F93CF93DF936C01A5
:100340007B018B01040F151FEB015E01AE18BF0886
:10035000C017D10759F06991D601ED91FC91019038
:10036000F081E02DC6010995892B79F7C501DF9150
:10037000CF911F910F91FF90EF90DF90CF90BF90A2
:10038000AF900895FC0154894589252F30E0842FD2
:1003900090E0821B930B541710F0CF9608950197AD
:1003A0000895FC0192898389981761F0A389AE0FA3
:1003B000BF2FB11D59968C9193899F5F9F73938B2B
:1003C00090E008958FEF9FEF0895FC019289838953
:1003D000981731F08389E80FF11D818D90E0089521
:1003E0008FEF9FEF0895FC0192892389892F90E078
:1003F000805C9F4F821B91098F7399270895CF933B
:10040000DF93EC01E881F9810680F781E02D099501
:10041000EC85FD8586818F738683EC85FD858581DE
:100420008F7585838B898A8B198ADF91CF91089587
:10043000CF93DF93FC0194898589C485D585981372
:1004400006C08D818F7D8D83DF91CF910895A58921
:10045000AE0FBF2FB11DA75ABF4F2C91858990E0D9
:1004600001968F739927858B80E48C83A485B5854D
:1004700012962C93948985899813E6CFA485B58527
:1004800015968C9115978F7D15968C938789882367
:10049000D9F2808D80931301178AD6CFDC011C9688
:1004A000ED91FC910FB607FE03C0258125FD04C028
:1004B000248125FD0C9418020895EF92FF920F936A
:1004C0001F93CF93DF93EC0181E0898B9C898D8909
:1004D00098131CC0AC85BD8514968C91149785FF2C
:1004E00015C012966C93AC85BD8580E414968C93F0
:1004F000EC85FD8585818F7D858381E090E0DF91AE
:10050000CF911F910F91FF90EF900895809111016D
:1005100080FF08C080911301888F8E89809313011A
:1005200081E08F8BF62E0C8910E00F5F1F4F0F7349
:100530001127E02E8D898E1104C0CE010E944E023B
:10054000F9CFEC89EC0FFD2FF11DE75AFF4FF08238
:100550000C8BEC85FD8585818062CECFCF93DF93B8
:10056000FC0121892223C9F0EC018091110180FF57
:1005700008C080911301808F86898093130181E0E8
:10058000878BEC85FD85858185FD03C0848186FD93
:1005900004C0CE010E944E02F4CFDF91CF910895A6
:1005A000CF93DF9390E0FC01EA55FA4820812F3F7A
:1005B00071F0FC01E457FA48A08130E2A39FD0011A
:1005C0001124BC5F6130710529F411962C93DF91E1
:1005D000CF9108958E589A48EC01E881EF3F89F059
:1005E000CD014096E80FF92FF11D9FB7F8941296B0
:1005F0002C9380816230710539F4886080839FBFBD
:10060000E6CFF0E0E0E0F1CF877FF8CF282F30E0B1
:10061000F901E85AFA48E081EE2309F1E13021F0CE
:10062000F0F0E63098F008954091010A2E583A48CB
:10063000F90120812C5F81E090E001C0880F2A95AC
:10064000EAF7809584238093010A089580E1E89F6A
:10065000F0011124E05AF54F81818F7E8183089546
:10066000FF920F931F93CF93DF938B32D8F4082F11
:1006700010E0F801EA55FA48F0809FEFF91691F082
:10068000EB010E940603F801E457FA48E08180E29A
:10069000E89FF0011124FC5F80818F2159F0CD2B60
:1006A00039F4F682DF91CF911F910F91FF90089559
:1006B000F582F8CFD801AE58BA488C91309771F0D6
:1006C0008F3F61F07096E80FF11D9FB7F89480811D
:1006D000CD2B39F4877F80839FBFE4CFF0E0E0E04B
:1006E000F4CF8860F8CF8B3210F40C94D0020895C8
:1006F000CF92DF92EF92FF920F931F93CF93DF93EE
:10070000EC016A017B01022F8989882339F0E88195
:10071000F9810288F389E02DCE01099598898091AD
:10072000E205892B8093E2051FB7F89460E070E240
:1007300081EA97E0A70196010E94BE1869017A013B
:100740008FEFC81AD80AE80AF80AF694E794D79403
:10075000C794EC85FD8586818D7F8683EC85FD853C
:1007600086818683198AA09123110A2E000CBB0B67
:10077000A70196010E940A1920E034E040E050E011
:100780000E94E018EC85FD85C20ED31EE41EF51E06
:10079000C086D186EC85FD850783EC85FD85868145
:1007A000806C8683EC85FD858581806885838E8558
:1007B00062E070E00E9473038F8561E070E00E9448
:1007C00030038F8561E070E00E9473031FBFDF91EB
:1007D000CF911F910F91FF90EF90DF90CF900895F0
:1007E000EF92FF920F931F93CF93DF93E82EF12C9C
:1007F000F701EE58FA48C081CF3F09F43EC08B01A3
:10080000D82F61E070E00E9473030115110559F4BF
:1008100070E060E08D2FDF91CF911F910F91FF90DD
:10082000EF900C943003F701E85AFA48E081E13088
:1008300049F010F0E63040F1003811054CF361E06A
:1008400070E0E8CF2FB7F8948C2F90E0FC01EE0F0A
:10085000FF1FE85CF54F008311832FBF2091010A31
:10086000049641E050E0BA0102C0660F771F8A95F6
:10087000E2F7CB01822B8093010ADF91CF911F9188
:100880000F91FF90EF90089570E1E79FF001112420
:10089000E05AF54F8FB7F8949485948705878FBFFA
:1008A000818180618183E9CFE82FF0E0E05BFA4845
:1008B0008E30B8F480818F30B0F48093060681E0EA
:1008C0008093080680910B0680FFFCCF2FB7F89429
:1008D00090911006809111062FBF892798278927AC
:1008E00008953E97E7CF8FEF90E0089581E0089557
:1008F0000F9391E09093302910922F2960932D2926
:1009000070932E2940932C2920932B2910922A2969
:100910001092292900932829880F8093272923E002
:1009200030E044E050E080912C29882341F020936E
:10093000252930932629809127298E7F0BC080910D
:100940002B29882351F04093252950932629809103
:10095000272981608093A70808C080912C298111E4
:1009600004C080912B29882311F380912F2988239B
:10097000E1F380912F298330B1F280912B298823D4
:1009800021F0809129290F91089580912F2982309B
:1009900031F0853031F0813031F480E0F4CF81E006
:1009A000F2CF83E0F0CF84E0EECFE0EAF8E091858B
:1009B0009066918722E030E0209325293093262904
:1009C0008093172910921629089581E080931629A3
:1009D0001092172993E09093AA089091AB0891FF89
:1009E00010C010922329E0911429F091152909953E
:1009F0008093222985E090E08093252990932629F1
:100A00000895109224298093212986E090E0F4CF64
:100A10008F929F92AF92BF92CF92DF92EF92FF920E
:100A2000CF93DF9360342DE0720723E082079105B6
:100A300008F454C0611525E372072CE08207910584
:100A400008F445C060387F448241910508F046C0F3
:100A5000C8E7D0E020E432E44FE050E08090002886
:100A600090900128A0900228B0900328C501B401FD
:100A70000E94BE1869017A018AE0C81AD108E1080B
:100A8000F108C501B40120E432E44FE050E00E94D7
:100A9000BE18DE010E94FF1828EE33E040E050E06F
:100AA0000E94BE18C21AD30AE40AF50AF694E79423
:100AB000D794C794C092A608DF91CF91FF90EF9092
:100AC000DF90CF90BF90AF909F908F900895CCE231
:100AD000D1E020E83AE146E050E0C0CFC8EED3E0F4
:100AE00020EA36E841E050E0B9CF609312297093D4
:100AF0001329089560931029709311290895E091A6
:100B00001229F0911329309741F010920F29109279
:100B10000E29099580910E29089580E00895E091AD
:100B20001029F0911129309759F030910D29209119
:100B30000C29321728F010920D2980930C29099462
:100B400008950895E0910D2980910C29E81730F45B
:100B5000F0E0E457F74D808190E008958FEF9FEF2C
:100B6000089590910D2980910C292FEF3FEF981750
:100B700048F4E92FF0E0E457F74D208130E09F5F23
:100B800090930D29C901089580910C2990910D2908
:100B9000891B990B0895CF92DF92EF92FF920F93EA
:100BA0001F93CF93DF937C018A01EB016B01C40E8D
:100BB000D51ECC15DD0551F06991D701ED91FC9161
:100BC0000190F081E02DC7010995F3CFC801DF91B5
:100BD000CF911F910F91FF90EF90DF90CF900895EC
:100BE00020910E2927FF08C021E030E0FC0122837C
:100BF000338390E080E0089580910F29E82FF0E0A2
:100C0000E45FF74D60838F5F80930F2980930E29F7
:100C100081E090E00895DC01ED91FC91008CF18D74
:100C2000E02D61E009940F93809125299091262968
:100C30000197A1F480913029811112C0062F20E084
:100C400040910E296CE078E280910B280E94780494
:100C500010920F2910920E290F91089580E0F8CF7D
:100C600081E0F6CF60930B2810920F2910920E2985
:100C70000895DC01ED91FC91048CF58DE02D21E0CF
:100C800009940F938CE898E280931829909319297E
:100C900080912529909126290197C9F480913029C6
:100CA000811117C0FA014138510510F0E0E8F0E079
:100CB000022F862F2E2F40E070E060E00E94780423
:100CC00010920D2980930C2990E00F91089580E0F7
:100CD000F7CF81E0F5CFCB01BA010C940805E0EA2B
:100CE000F8E01382168281E08583148611861092C3
:100CF000252910922629089510920D2910920C2969
:100D000010920F2910920E29809125299091262961
:100D1000892BD9F482E090E08093252990932629AD
:100D20001092242910922329109216291092172923
:100D300010920A2810922129660F6093AC0881EE68
:100D40008093A90881E08093A3088FE795E08093C2
:100D50001429909315298CE098E280931A29909396
:100D60001B298FE895E080931F29909320298CE818
:100D700098E280931C2990931D2980E880931E2976
:100D8000089510920D2910920C2910920F2910929B
:100D90000E298091252990912629892B41F562E021
:100DA00070E086E10E94D00262E070E087E10E947C
:100DB000D0028091E3058093E30581E090E0809389
:100DC0002529909326291092292910922A291092D8
:100DD000302910922F2981EC8093A30860EA76E8ED
:100DE00081E090E00E94080581E08093A5080895C5
:100DF00090E080E008950895EF92FF920F931F9383
:100E0000CF93DF937C01EB018B01040F151FC017FB
:100E1000D10759F0D701ED91FC910480F581E02DC7
:100E20006881C70109958993F2CFDF91CF911F9116
:100E30000F91FF90EF9008950F931F93CF93DF933F
:100E4000EC018B018091C008E881F9810480F58173
:100E5000E02D86FD13C0612FCE010995182FE88182
:100E6000F9810480F581E02D602FCE010995082FCE
:100E7000C801DF91CF911F910F910895CE0109957F
:100E8000082FE881F9810480F581E02D612FCE01E2
:100E90000995182FEDCF00006093C4088091C30816
:100EA00087FFFCCF8091C40808958F929F92AF92E4
:100EB000BF92CF92DF92EF92FF920F931F93CF9347
:100EC000DF93FC018085882319F081FF0EC07894A0
:100ED000DF91CF911F910F91FF90EF90DF90CF9016
:100EE000BF90AF909F908F90089580FFF1CF828444
:100EF0009384A484B584C12CD12C760110E0940194
:100F0000A501B601C701A0E00E942F1999F1217037
:100F100030E040E050E060E070E080E090E00E946F
:100F20002F19D9F0D0E0C0E0103370F4C12FC6956E
:100F3000C695C69580E2C89FE0011124C05FDB4FD3
:100F4000812F8770C80FD11DCF01810F911DDC014A
:100F500052968C919881892B88839401A501B601C2
:100F6000C70101E00E94141949015A016B017C017B
:100F70001F5FC5CF86849784A088B188C12CD12CEF
:100F8000760110E29401A501B601C701A0E00E941C
:100F90002F1909F49DCF217030E040E050E060E06F
:100FA00070E080E090E00E942F19D9F0D0E0C0E01E
:100FB000103370F4C12FC695C695C695B0E2CB9F8D
:100FC000E0011124C05FDB4F812F8770C80FD11D56
:100FD000CF01810F911DDC0152968C919881892B54
:100FE00088839401A501B601C70101E00E9414198C
:100FF00049015A016B017C011F5FC4CFFC016F3FA7
:10100000710581F1808581FD2DC0603271055CF52F
:1010100081E090E002C0880F991F6A95E2F7809501
:101020009095092E000CAA0BBB0B42855385648555
:10103000758584239523A623B72382879387A48766
:10104000B58782859385A485B585892B8A2B8B2BC3
:1010500049F486859785A089B189892B8A2B8B2BAA
:1010600009F4108608956052710981E090E002C091
:10107000880F991F6A95E2F780959095092E000CCC
:10108000AA0BBB0B468557856089718984239523FC
:10109000A623B72386879787A08BB18BD2CFFC017D
:1010A0006F3F7105E9F1603371051CF082E08087C4
:1010B000089580858160808760327105C4F481E085
:1010C00090E002C0880F991F6A95E2F7092E000C84
:1010D000AA0BBB0B4285538564857585842B952BA4
:1010E000A62BB72B82879387A487B5870895605274
:1010F000710981E090E002C0880F991F6A95E2F7BC
:10110000092E000CAA0BBB0B468557856089718997
:10111000842B952BA62BB72B86879787A08BB18B1B
:101120000895E0ECF8E020812E7F2083FC011782F7
:101130000895E0ECF8E082818E7F82830895E0ECF0
:10114000F8E082818160828308950895DC0112961F
:101150008D919C91DC01ED91FC910680F781E02D51
:101160000994CF92DF92EF92FF920F931F93CF9348
:10117000DF937C016A018B01D0E0C0E0CC15DD0576
:10118000F1F0D70112968D919C91DC01ED91FC91CB
:101190000084F185E02D0995892B89F0F701828182
:1011A0009381DC01ED91FC910284F385E02D09959A
:1011B00097FD05C02196F80181938F01DFCFCE0105
:1011C000DF91CF911F910F91FF90EF90DF90CF9023
:1011D0000895DC0112968D919C91DC01ED91FC91BA
:1011E0000084F185E02D0994DC0112968D919C918B
:1011F000DC01ED91FC910280F381E02D0994FC016A
:1012000082850895CF93DF93EC018C819D810097B7
:1012100059F04E815F8168857985DC01ED91FC9103
:101220000684F785E02D099581E08A87DF91CF91CB
:101230000895DC01ED91FC910088F189E02D23E017
:1012400030E009940F931F93CF93DF93DC01FB01F0
:1012500082818C93938111969C931197948112961D
:101260009C9312976581768113966D937C93149766
:101270008130F1F5CB01089648175907E0F1611567
:10128000710501F1CF01079615968D939C931697E2
:101290008B010B5F1F4FAF014E5F5F4F30E020E0CF
:1012A00080E02017310798F0E60FF71F9781981715
:1012B000D1F017969C9384E090E0DF91CF911F913D
:1012C0000F91089515961D921C921697E1CFEA0191
:1012D0009991AE01C92FC827D0E0C054DA4888815F
:1012E0002F5F3F4FDECF17968C9390E080E0E5CFE5
:1012F00083E090E0E2CF85E090E0DFCF0895FC014D
:1013000084819581AC014E5F5F4F22813381241728
:101310003507C8F0A081B1819C012F5F3F4F248326
:101320003583A80FB91F6C93808191812481358109
:10133000A9014F5F5F4F44835583FC01E20FF31F08
:10134000708381E0089580E00895FC018481958197
:101350009C012E5F3F4F428153814217530758F043
:10136000A081B181A80FB91F11969C9111978C9102
:1013700024833583089590E080E00895FC01248162
:101380003581828193812817390760F480819181AA
:10139000A9014F5F5F4F44835583FC01E20FF31FA8
:1013A0008081089580E008950C94EC190C94EC1958
:1013B000CF92DF92EF92FF920F93FC01C12CB9E024
:1013C000DB2EBDE3EB2EF12CC082D182E282F382D0
:1013D0001482158281E090E086839783C090002874
:1013E000D0900128E0900228F0900328F694E7942A
:1013F000D794C79490E04C155D056E057F0540F4C9
:10140000F694E794D794C7949F5F9630A1F797E03E
:1014100004600187892F8095A82FA170B0E084E037
:10142000AA0FBB1F8A95E1F791629A2B80E0232BCC
:1014300009F480E4982B90870F91FF90EF90DF9054
:10144000CF9008950F931F93CF93DF93CDB7DEB75F
:101450002A97CDBFDEBF8C01FC01878181110CC0B2
:1014600010861186128613861486158616861786B0
:10147000108A118A81E087838091E305F8019681C3
:10148000892B8093E30561E070E083810E94730300
:1014900061E070E0F80184810E9473038091C108CB
:1014A00084608093C1088091C00881628093C008E5
:1014B000409191295091922960919329709194299A
:1014C000009195292091972930919829CE01019674
:1014D0000E94D80999858A859093C0088093C10895
:1014E0002A96CDBFDEBFDF91CF911F910F91089556
:1014F0005F926F927F928F929F92AF92BF92CF92A4
:10150000DF92EF92FF920F931F93CF93DF93CDB7AC
:10151000DEB76297CDBFDEBF3C010B871C872D87EE
:101520003E87042F4F87588B698B7A8B29893A899C
:101530004B855C856D857E85CE0101960E94D8091C
:1015400059841A85D30118968C91882319F081FF4C
:1015500018C0F8945092C0081093C1086296CDBF8D
:10156000DEBFDF91CF911F910F91FF90EF90DF9041
:10157000CF90BF90AF909F908F907F906F905F9033
:10158000089580FFE7CFF30182849384A484B58417
:10159000C12CD12C7601B0E09401A501B601C701A0
:1015A000A0E00E942F19A9F1217030E040E050E046
:1015B00060E070E080E090E00E942F19E9F090E098
:1015C00080E0B03370F48B2F869586958695F0E297
:1015D0008F9FC0011124805F9B4F2B2F2770820F9C
:1015E000911DFC01408193012B0F311DF901428BAC
:1015F000FC012081287F20839401A501B601C70149
:1016000001E00E94141949015A016B017C01BF5F7E
:10161000C3CFD3011E968D909D90AD90BC905197F5
:10162000C12CD12C7601B0E29401A501B601C7010D
:10163000A0E00E942F1909F48DCF217030E040E026
:1016400050E060E070E080E090E00E942F19E9F047
:1016500090E080E0B03370F48B2F86958695869568
:10166000E0E28E9FC0011124805F9B4F2B2F2770DB
:10167000820F911DFC01408193012B0F311DF90157
:10168000428BFC012081287F20839401A501B601B3
:10169000C70101E00E94141949015A016B017C0144
:1016A000BF5FC2CF9F92AF92BF92CF92DF92EF9275
:1016B000FF920F931F93CF93DF93CDB7DEB7C4593B
:1016C000D109CDBFDEBF7C01DC0111968C91119751
:1016D000823209F42FC408F0AAC0823109F4E0C1B3
:1016E000F0F5823009F491C128F4813009F474C115
:1016F00061E0C4C1803109F492C18131C9F7F701B9
:10170000838194818230910508F48FC115962D91C3
:101710003C9129833A838B839C831D821E82CE0158
:1017200001960E94BE09082FCE0101960E94BE09B3
:10173000182FF70183819481039708F4ABC1CE0180
:1017400001960E94BE09823009F09AC10B3208F05E
:101750002AC1612F70E0802F0E94F00324C18431E0
:1017600009F4C8C208F40CC2803209F494C381326F
:1017700009F0BECF13968D919C91149782309105FC
:1017800008F490C3F70125813681C757DF4F2883BE
:101790003983C958D040C557DF4F88839983CB58C8
:1017A000D040C357DF4F18821982CD58D040CE01A8
:1017B00087579F4F0E94BE09182F88EF810F8037EF
:1017C00008F085C3CE0187579F4F0E94BE09FE01D6
:1017D00031966F01CF57DF4FE883F983C158D0406E
:1017E00020E830E0CD57DF4F28833983C358D040FD
:1017F000CB57DF4F18821982C558D040482F50E090
:1018000021E0612F83E499E20E944106082F10E055
:10181000101708F083C383E499E20E94B105682F92
:10182000CE018F579F4F0E947E011F5FF1CF803600
:1018300009F4DCC208F0ACC0803409F484C208F0BA
:101840009AC0803309F054CFF7018381948161E01D
:101850008230910508F4EAC015962D913C91C1574C
:10186000DF4F28833983CF58D040CF56DF4F88834E
:101870009983C159D040CD56DF4F18821982C35980
:10188000D040CE0181579F4F0E94BE09982EF7018C
:10189000C380D480F1E0CF1AD1089E012F5F3F4F63
:1018A0005901C757DF4F28833983C958D04080E892
:1018B00090E0C557DF4F88839983CB58D040C357FA
:1018C000DF4F18821982CD58D04080E4082FCF57BF
:1018D000DF4F8883C158D04082E4CE57DF4F8883E2
:1018E000C258D0408FE0CD57DF4F8883C358D040D7
:1018F000CC57DF4F1882C458D040CB57DF4F1882E7
:101900001982C558D04081E0682FC957DF4F8883BE
:10191000C758D040C857DF4F1882C858D04012E48B
:101920002FE030E040E0CA57DF4F5881C658D04022
:1019300070E08FE499E20E94780A70E060E0892DFF
:101940000E94300310E000E00C151D0508F070C384
:10195000CE0181579F4F0E94BE09682F8FE499E204
:101960000E944B07682FCE0187579F4F0E947E0130
:101970000F5F1F4FE9CF803509F46FC3813509F040
:10198000B7CE1092C42C1092B82C1092B92CD5C19D
:10199000833778F4803708F0A2C3813609F472C225
:1019A000823609F0A5CED70112968C910E94630170
:1019B0001CC0803F09F09CCE9091A12A29E939E210
:1019C00080E0235F3F4F981709F45EC2F901E156AA
:1019D000FF4F10828F5FF5CF30E020E050E040E015
:1019E000F701628180E80E947B00CC56DF4FCDBFBB
:1019F000DEBFDF91CF911F910F91FF90EF90DF90AD
:101A0000CF90BF90AF909F9008952091B62C3091C9
:101A1000B72C46E35CE212966C9181E8E4CFF701C3
:101A2000838194818230910518F464E0828195C1AC
:101A300015962D913C9129833A838B839C831D823B
:101A40001E82CE0101960E94BE09182FCE0101967A
:101A50000E94BE09833050F470E060E0813010F0E5
:101A600061E070E0812F0E9473039DCF833009F401
:101A70009ACF62E070E08430A9F365E0F701D6CF39
:101A800061E070E0111102C070E060E0802F0E9400
:101A9000300389CF123008F059CE612F70E0F6CFB5
:101AA000F70183819481009709F4BFCF15962D919A
:101AB0003C91CF57DF4F28833983C158D040CD5751
:101AC000DF4F88839983C358D040CB57DF4F1882AC
:101AD0001982C558D040CE018F579F4F0E94BE0932
:101AE000D82EF70183819481029730F1CE018F5770
:101AF0009F4F0E94BE098E0107571F4F09831A830B
:101B000024E030E02B833C8321E030E02D833E83D2
:101B1000D801DC92833091F48D2D0E945404BC01D5
:101B2000CE0101960E947F092D813E81A801D70137
:101B300012966C9181E957CF80E0DDCFBAE2BD15F6
:101B4000E0F0AD2CB12CF501EA55FA48C080EFEF7A
:101B5000CE1699F08D2D0E940603F501E457FA4840
:101B6000E08120E2E29FF0011124FC5F8085C82221
:101B700061E070E0A9F660E0D3CF60E070E0D0CF24
:101B8000F701838194818530910508F44ECF159635
:101B90002D913C9129833A838B839C831D821E82E5
:101BA000CE0101960E94BE09C82ECE0101960E9468
:101BB000BE09D82ECE0101960E94A5098C01F7011D
:101BC00083819481079708F447C0CE0101960E9453
:101BD000A5092091A12AE9E3FAE250E040E042178A
:101BE00008F041C03081C3123AC034853323B9F1C3
:101BF0002DE0249FF001259FF00D1124E65CF54DAA
:101C0000D0820115110511F404E610E06DE0649F27
:101C10009001659F300D11242756364DF901EE5580
:101C2000FF4F008311833296808391833296108216
:101C300011824FB7F89480913F2990914029A0914B
:101C40004129B09142294FBF28553F4FF901808368
:101C50009183A283B383A7CE90E080E0BACF4F5F99
:101C60005F4F3D96BCCF6BE0283009F407CF422F81
:101C700050E0FDE02F9F900111242756364DF901C9
:101C8000E056FF4FC0822F553F4FD901DC9201151E
:101C9000110511F404E610E06DE0649F9001659F6A
:101CA000300D11242756364DF901EE55FF4F0083B4
:101CB00011833296808391833296108211824FB7BE
:101CC000F89480913F2990914029A0914129B091A9
:101CD00042294FBF329680839183A283B3832455D8
:101CE0003F4F81E0F90180838091A12A8F5F80932B
:101CF000A12A59CEF70183819481892B19F464E0DC
:101D0000D701D1C01596ED91FC9120813091A12A87
:101D1000E9E3FAE290E080E0831788F7408124133A
:101D20000FC04485442361F02DE0289FF001299FD6
:101D3000F00D1124EB5BF54D1082F701828136CE58
:101D400001963D96E9CF13962D913C9114971296EA
:101D50008C912230310520F468E00E946B0145CE61
:101D6000F701A581B681EC919091B729E917A0F709
:101D7000F0E0EE0FFF1FE155F64D008111810115D6
:101D8000110551F311966C9111971296A983BA839C
:101D9000225031092B833C831D821E8229E939E2BE
:101DA000CF57DF4F28833983C158D040CD57DF4FFD
:101DB0008883C358D040CC57DF4F1882C458D040D6
:101DC000D801ED91FC910484F585E02D9E012F57FB
:101DD0003F4FAE014F5F5F4FC8010995CC57DF4FB2
:101DE0008881C458D040811100CEA7CF13962D9181
:101DF0003C91149712968C912230310510F46DE0CD
:101E0000ACCFF701A581B681EC919091382AE91702
:101E1000B0F760E2E69FF0011124E756F64D92AD6F
:101E20006EE0992309F499CF1196A983BA832150C2
:101E300031092B833C831D821E8229E939E2CF5769
:101E4000DF4F28833983C158D040CD57DF4F888377
:101E5000C358D040CC57DF4F1882C458D04005AC8F
:101E6000F6ADE02D309731F0BE016F577F4FCE01B8
:101E700001960995CC57DF4F8881C458D040811115
:101E8000B4CD91CD6DE0FACD1092A12A10922A2BFB
:101E900010922B2B52CF13968D919C9114978230D8
:101EA000910520F466E012968C9157CFF7012581B9
:101EB000368129833A838B839C831D821E82CE01C7
:101EC00001960E94BE0998EF980F903710F066E0D7
:101ED00017CFF701C380D480F1E0CF1AD108682F63
:101EE00083E499E20E94320610E000E00C151D0523
:101EF00060F4CE0101960E94BE09682F83E499E246
:101F00000E94F0050F5F1F4FF1CF83E499E20E941A
:101F10000B06882309F447CD67E0B0CDCB57DF4FE0
:101F200028813981C558D040A601D70112966C91FD
:101F300080EA59CDF7018381948166E08330910571
:101F400008F474CD15962D913C91C757DF4F288327
:101F50003983C958D040C557DF4F88839983CB5800
:101F6000D040C357DF4F18821982CD58D040CE01E0
:101F700087579F4F0E94BE09082F88EF800F66E0A9
:101F8000803708F07BCDCE0187579F4F0E94BE0956
:101F9000182FCE0187579F4F0E94BE09D82E602F61
:101FA00083E499E20E943206612F83E499E20E9461
:101FB000F00560E083E499E20E941306182F67E0C1
:101FC00081119ECEFE0131965F01CF57DF4FE8832E
:101FD000F983C158D04080E890E0CD57DF4F888327
:101FE0009983C358D040CB57DF4F18821982C55808
:101FF000D0404D2D50E021E0602F83E499E20E9413
:102000004106082F101760F483E499E20E94B1059D
:10201000682FCE018F579F4F0E947E011F5FF2CF26
:10202000CB57DF4F28813981C558D040A5017DCFDE
:1020300061E070E0892D0E9430038FE499E20E94F4
:102040005507C357DF4F28813981CD58D040A501AE
:10205000D70112966C9180EBC6CCF70183819481F5
:102060008530910508F44BCE2581368129833A834A
:102070008B839C831D821E82CE0101960E94A5093E
:102080008093B82C9093B92CCE0101960E94A5099B
:102090008093BA2C9093BB2C21E02093C42C20E198
:1020A00037E240E050E0009749F09C0150E040E00A
:1020B00060E472E48FE090E00E94BE182093BC2C94
:1020C0003093BD2C4093BE2C5093BF2C1092C02C4B
:1020D0001092C12C1092C22C1092C32C64CC6FE0D1
:1020E0000FCEEF92FF920F931F93CF93DF93EC01EC
:1020F0002C813D81F901E40FF51F8A819B818E17A8
:102100009F07A0F1FB0101900020E9F73197E61B42
:10211000F70B7A01E417F50708F47F018A0188813B
:102120009981A701820F931F0E94751AE016F1068C
:1021300078F4A8014E195F098C819D81E80EF91E83
:102140008881998170E060E08E0D9F1D0E94901A39
:102150004C815D81040F151F0C831D8381E0DF918D
:10216000CF911F910F91FF90EF90089580E0F7CFEE
:102170001F920F920FB60F9211242F933F934F93FC
:102180005F936F937F938F939F93AF93BF93409190
:102190003F295091402960914129709142298091B5
:1021A0003D2990913E2920913B2930913C29420FB5
:1021B000531F611D711D2091392930913A29820FD9
:1021C000931F883E23E0920730F0885E93404F5F74
:1021D0005F4F6F4F7F4F80933D2990933E294093EF
:1021E0003F2950934029609341297093422980915F
:1021F000352990913629A0913729B0913829019637
:10220000A11DB11D8093352990933629A0933729BC
:10221000B093382981E08093B60ABF91AF919F9126
:102220008F917F916F915F914F913F912F910F907F
:102230000FBE0F901F9018951F920F920FB60F921E
:1022400011242F933F934F935F936F937F938F93BB
:102250009F93AF93BF93EF93FF9385EC9CE20E9413
:102260001802FF91EF91BF91AF919F918F917F9154
:102270006F915F914F913F912F910F900FBE0F90F3
:102280001F9018951F920F920FB60F9211242F9343
:102290003F934F935F936F937F938F939F93AF93EE
:1022A000BF93EF93FF93E091D12CF091D22C8181D9
:1022B00081FD2FC060818091D72C8F5F8F739091AB
:1022C000D82C891741F0E091D72CF0E0EB53F34D77
:1022D000618F8093D72C80915E2D90915F2D009718
:1022E00039F0DC01ED91FC910190F081E02D099530
:1022F000FF91EF91BF91AF919F918F917F916F91DE
:102300005F914F913F912F910F900FBE0F901F90B3
:1023100018958081EDCF1F920F920FB60F92112466
:102320002F933F934F935F936F937F938F939F93DD
:10233000AF93BF93CF93EF93FF93C091AB08C2FFCE
:102340000AC010922429109223291092222984E095
:102350000E94D50414C0C6FF2FC08091212981306E
:1023600051F480912429E0911F29F091202990E0D7
:10237000099510922129C0FF14C00E94E504FF9125
:10238000EF91CF91BF91AF919F918F917F916F917D
:102390005F914F913F912F910F900FBE0F901F9023
:1023A000189580E48093AB0881E00E94D504809169
:1023B000AB0885FFE4CFE1CFC7FF5CC0C3FF08C017
:1023C00010922429109223291092222983E0C0CF51
:1023D0008091A90880668093A9088091AB0881FF4D
:1023E0002CC080912329882349F08091AB0884FF79
:1023F00005C082E08093AA0881E0AACF90912329AA
:10240000809122299817A8F4E091232980911A2914
:1024100090911B29E80FF92FF11D80818093AD0861
:10242000809123298F5F8093232983E08093AA08DA
:10243000A6CF82E08093AA088BCF90912429809127
:102440001E29981790F48091AD08E09124292091DD
:102450001C2930911D29E20FF32FF11D80838091FB
:1024600024298F5F80932429E0CF86E08093AA08F7
:1024700082E06ECF85E06CCF1F920F920FB60F9265
:1024800011242F933F938F939F93EF93FF9380910A
:10249000A508982F9C70E1F08091A50894E082FF38
:1024A00093E090932F298093A50881E090E080939A
:1024B00025299093262910923029FF91EF919F9121
:1024C0008F913F912F910F900FBE0F901F901895F5
:1024D00086FF4EC020912C2990912B298091A50830
:1024E00084FF15C080912829882379F083E08093A8
:1024F000A40885E080932F291092302981E090E094
:102500008093252990932629D8CF81E0F0CF809120
:102510002A29821790F4E0912A2980912D299091FF
:102520002E29E80FF92FF11D80818093A808809152
:102530002A298F5F80932A29C0CF80912929891762
:1025400060F484E090E0809325299093262980917F
:10255000272981608093A708B0CF809128298823FC
:1025600029F083E08093A40881E0C4CF81E0FACF12
:1025700087FF40C09091292980912B299817D8F482
:102580008091A808E09129292091182930911929D2
:10259000E20FF32FF11D8083809129298F5F8093B3
:1025A000292990912B29809129298917D8F482E033
:1025B0008093A40882CF80912829882389F087E01E
:1025C0008093A40882E080932F291092302981E023
:1025D00090E0809325299093262910922B296DCF86
:1025E00085E0EECF80912829882311F087E0BACFCB
:1025F00085E0B8CF86E07ECF1F93CF93DF93CDB732
:10260000DEB72697CDBFDEBF85EC9CE21092C72CCB
:102610001092C82C48EE53E060E070E04093C92C63
:102620005093CA2C6093CB2C7093CC2C24EC36E7BF
:102630002093C52C3093C62C20E638E02093D12C73
:102640003093D22C28E12093D32C29E12093D42C51
:1026500020E42093D52C1092D72C1092D82C1092D5
:10266000D92C1092DA2C26E22093DB2C1092DC2C51
:102670001092DD2C10925E2D10925F2D1092452944
:10268000109246294093472950934829609349293D
:1026900070934A292EED36E720934329309344293D
:1026A00040E059E06DE370E0409391295093922906
:1026B00060939329709394291092952910929629EA
:1026C00021E030E0209397293093982926E037E7DE
:1026D00020934F29309350291092562922E02093BD
:1026E00055292CE0209351292DE0209353292BE0EC
:1026F0002093522928E02093542924E237E720939D
:10270000602D3093612D8093622D9093632D809383
:10271000642D9093652D80E092ECA1E0B0E0809371
:10272000662D9093672DA093682DB093692D10921C
:102730006A2D80E69DE28093AD299093AE29109298
:10274000B7291092382A1092A12A10922A2B10929F
:102750002B2B1092B62C1092B72C1092B82C1092F2
:10276000B92C1092BA2C1092BB2C1092BC2C109247
:10277000BD2C1092BE2C1092BF2C1092C02C109227
:10278000C12C1092C22C1092C32C1092C42CE9E9D7
:10279000F9E281E1DF011D928A95E9F740E150E01D
:1027A00068E377E7CF010E94971A1092AA29109246
:1027B000AB291092AC2919821A821B821C821D82BD
:1027C0001E82A3E4B7E730E020E01AE08D91882371
:1027D00029F12330310514F58E3219F42F5F3F4F64
:1027E000F5CF90ED980F9A3088F7F901EE0FFF1FA3
:1027F00041E050E04C0F5D1FE40FF51F60817181D7
:10280000169FA001179F500D1124082E000C990B44
:10281000C097840F951F80839183D8CF898180933F
:10282000AA298B818093AB298D818093AC29EFEA13
:10283000F9E288E0DF011D928A95E9F7E8EBF9E219
:1028400080E8DF011D928A95E9F7E9E3FAE288E67C
:10285000DF011D928A95E9F72696CDBFDEBFDF9195
:10286000CF911F910895CF93DF93CDB7DEB7CE58A8
:10287000D109CDBFDEBF88ED90E084BF90936100A9
:1028800080E094E2A4EFB0E08093002890930128C8
:10289000A0930228B093032880910206866080935B
:1028A00002068091000681608093000680910206F6
:1028B0008F7C809302068091A0008F788093A00087
:1028C000809102068061809302061092E20581E009
:1028D0008093E40583E08093010A8FEF90E080937A
:1028E000260A9093270A80E890E08093380A909314
:1028F000390A80933A0A90933B0A80933C0A90935A
:102900003D0A8BE08093000A8091E5058160809309
:10291000E5058091E50582608093E505E0E8FAE051
:1029200037E02FEF90E885E0318324879587808317
:102930007096E03C4AE0F407B9F780E094E08093B9
:1029400033299093342980913329909134292FEFA2
:1029500030E0B9010E94AA1860933129709332299E
:102960008091332990913429E8EEF3E0BF010E9471
:10297000AA1860933B2970933C2980913329909148
:102980003429BF010E94AA188093392990933A29CB
:102990002093BC0A3093BD0A8091B50A8160809370
:1029A000B50A84E08093B00A8091B00A8160809378
:1029B000B00A78948091AD299091AE29DC01ED9117
:1029C000FC910480F581E02D099510E049E9E42EA1
:1029D00049E2F42E8091B7291817C8F4E12FF0E0EE
:1029E000EE0FFF1FE155F64DA081B181109769F000
:1029F0001296ED92FC92139780819181DC01ED910A
:102A0000FC910284F385E02D09951F5FE3CF86E3F7
:102A10009CE289839A8380E890E08B839C831D826B
:102A20001E8240E150E069E979E28E010F5F1F4F9D
:102A3000C8010E9471106091AA29C8010E947E01FC
:102A40006091AB29C8010E947E016091AC29C80148
:102A50000E947E018D819E81AC01485F5F4F2B817A
:102A60003C812417350770F0E981FA81E80FF91FDE
:102A700088E0DF011D928A95E9F78D819E81089695
:102A80008D839E8360E0C8010E947E0166E1C801DB
:102A90000E947E01F12CB3E0FB1649F08BEF8F0D05
:102AA000823028F087EF8F0D63E0823008F467E012
:102AB0006068C8010E947E01F394E6E1FE12EBCF4C
:102AC00061E0C8010E947E0161E0C8010E947E01B0
:102AD00061E0C8010E947E0160E870E0C8010E94C8
:102AE0007F096091B729C8010E947E01D12C809195
:102AF000B729D81608F065C0ED2DF0E0EE0FFF1FE6
:102B0000E155F64DE080F180E114F10409F457C07D
:102B10006D2DC8010E947E01D701ED91FC910480CA
:102B2000F581E02DC701099548E050E0BC01C801DE
:102B30000E947110D701ED91FC910680F781E02D84
:102B4000C7010995682FC8010E947E01D701ED9148
:102B5000FC910084F185E02DC7010995682FC8011B
:102B60000E947E01D701ED91FC910088F189E02D52
:102B7000C7010995682FC8010E947E01D701ED9118
:102B8000FC910288F389E02DC70109955C01C12CF5
:102B9000D701ED91FC910088F189E02DC7010995DD
:102BA000C81668F460E0A114B10421F0F501EC0D41
:102BB000F11D6081C8010E947E01C394E9CFD394C6
:102BC00096CF6091382AC8010E947E01D12C809155
:102BD000382AD81678F5B0E2DB9E70011124B701CF
:102BE0006854764D40E150E0C8010E947110F70131
:102BF000E756F64D5F0160A9C8010E947E01B7014A
:102C00006653764D48E050E0C8010E947110D5012E
:102C1000DA966C91C8010E947E01F50163ADC8018E
:102C20000E947E01D501DC966C91C8010E947E0154
:102C3000D394CDCF8D819E818093B62C9093B72C69
:102C40007E01B9E8EB0EF11C9DE0892E8091AD2943
:102C50009091AE29DC01ED91FC910680F781E02D89
:102C60000995882309F46EC28091AD299091AE290F
:102C7000DC01ED91FC910288F389E02D09958091AA
:102C8000AD299091AE29DC01ED91FC910088F1898C
:102C9000E02D0995882309F4B1C08091AD29909168
:102CA000AE29DC01ED91FC910284F385E02D0995BC
:102CB000892B09F414C18091AD299091AE29DC01D2
:102CC000ED91FC910484F585E02D41E050E0B701E1
:102CD0000995019709F003C1F701208180912A2B02
:102CE00090912B2B21115BC00097B9F2D12CC12CF4
:102CF00050E040E033C0BA016F5F7F4FFA01EE55FC
:102D0000F54DA081AA2309F459C0BFEFBA0F2B2FAC
:102D100030E0620F731F8617970708F44FC02C0D21
:102D20003D1D2938310508F049C0FA01ED55F54D32
:102D30005F01C00ED11E40E04B1748F1AF3F61F07C
:102D40006817790748F428383105C1F1F801E20F16
:102D5000F31F10822F5F3F4F6901AB0148175907DE
:102D600050F2C114D10451F1A601B80182EA9AE2ED
:102D70000E94751AC0922A2BD0922B2BF8E0CF1606
:102D8000D10408F510922A2B10922B2BA8C0F50124
:102D900051915F01F60151936F014F5FCDCF88389C
:102DA000910560F4AC014F5F5F4F40932A2B509325
:102DB0002B2B8E55954DDC012C936FCF10922A2B27
:102DC00010922B2B6ACF8091A22A8334D9F680915E
:102DD000A32A8434B9F6A60162EA7AE2C8010E9405
:102DE0002209009721F4C8010E94520BCBCF04970F
:102DF00049F662E080E00E946B01C4CF8091AD296A
:102E00009091AE29DC01ED91FC910284F385E02DD7
:102E10000995181619060CF062C060912A2B709162
:102E20002B2B28E830E0261B370B2817390708F42E
:102E3000C901A091AD29B091AE296E55754DED91A6
:102E4000FC9111970484F585E02DAC01CD01099525
:102E50001816190654F420912A2B30912B2B820F2F
:102E6000931F80932A2B90932B2B40912A2B5091C8
:102E70002B2B4830510598F18091A22A833479F5A3
:102E80008091A32A843459F562EA7AE2C8010E944B
:102E90002209009709F037C1C8010E94520BCC806B
:102EA000DD80B8E0CB0ED11C40912A2B50912B2B0A
:102EB000C416D50608F066CF4C195D09B6016E55EB
:102EC000754D82EA9AE20E947E1A80912A2B909197
:102ED0002B2B8C199D0980932A2B90932B2B80915F
:102EE000C42C882309F484C08FB7F8942091352925
:102EF000309136294091372950913829D090BA0A1B
:102F00009091B60A90FF06C02F5F3F4F4F4F5F4F23
:102F1000D090BA0A8FBFA0913329B0913429E091A3
:102F20003129F09132290E94FF18DE9E9001DF9E28
:102F3000300D1124DC01CB01820F931FA11DB11DA7
:102F40004090C02C5090C12C6090C22C7090C32C2B
:102F5000AC01BD0144195509660977094090BC2CA4
:102F60005090BD2C6090BE2C7090BF2C4415550520
:102F700066057705E8F18093C02C9093C12CA0934F
:102F8000C22CB093C32CF7010083118320E830E0FA
:102F90002283338314821582D12CC12C2091B82C2A
:102FA0003091B92C81E090E00C2C02C0880F991F61
:102FB0000A94E2F782239323892B39F08C2D0E9407
:102FC0005404BC01C7010E947F093FEFC31AD30A12
:102FD00040E1C416D10411F7D70114962D913C910C
:102FE0002115310529F0A80160E080ED0E947B00E9
:102FF0008FB7F89440903F29509040296090412924
:10300000709042298FBF912C8091A12A981608F0C8
:1030100081C0292C312C829CC001839C900D1124ED
:10302000FC01E756F64D6F01E455FF4F8081882380
:1030300009F467C03B978081843009F062C03796FD
:1030400080819181A281B381B301A201481B590BF8
:103050006A0B7B0B369780819181B0E0A0E0481726
:1030600059076A077B0708F44CC0329780810E9499
:1030700054045C01F601EA55FF4F808191818A1565
:103080009B0508F044C09501281B390BC901829C9F
:103090009001839C300D1124A9014756564D6A01B9
:1030A000FA01EC55FF4F2081318182179307F0F030
:1030B000E982FA8283E090E08B839C83349780815D
:1030C000A1E0B0E0AD83BE83F7018083B501C80104
:1030D0000E947F092D813E81A70160E080E90E9466
:1030E0007B00F601EA55FF4FA082B182829CF0017D
:1030F000839CF00D1124EF5BF54D4082518262827A
:103100007382939481CF049709F0E9CE72CE8A1925
:103110009B09BDCFD12C8091B729D81698F4ED2DFD
:10312000F0E0EE0FFF1FE155F64D80819181009791
:1031300039F0DC01ED91FC910684F785E02D0995CD
:10314000D394E9CFE0E0F0E0EF2B09F47FCD0E94CB
:1031500000007ACDAA1BBB1B51E107C0AA1FBB1FF1
:10316000A617B70710F0A61BB70B881F991F5A9513
:10317000A9F780959095BC01CD010895A1E21A2E82
:10318000AA1BBB1BFD010DC0AA1FBB1FEE1FFF1F0B
:10319000A217B307E407F50720F0A21BB30BE40B5B
:1031A000F50B661F771F881F991F1A9469F76095A2
:1031B0007095809590959B01AC01BD01CF0108955C
:1031C000052E97FB1EF400940E94F71857FD07D0B8
:1031D0000E94BE1807FC03D04EF40C94F7185095CB
:1031E0004095309521953F4F4F4F5F4F08959095F3
:1031F0008095709561957F4F8F4F9F4F08950E94E6
:103200004119A59F900DB49F900DA49F800D911D15
:1032100011240895B7FF0C94FF180E94FF18821B19
:10322000930B089597FD1094002E083098F00850E5
:10323000232F342F452F562F672F782F892F912D2D
:10324000F4CF1594979587957795679557954795FA
:10325000379527950A95AAF71124002D0895002483
:10326000A7FD00942A17300540055005600570053C
:10327000800590050895EE0FFF1F0590F491E02D55
:103280000994A29FB001B39FC001A39F700D811D3F
:103290001124911DB29F700D811D1124911D08955F
:1032A0000F931F93CF93DF938230910510F482E048
:1032B00090E0E0916D2DF0916E2D30E020E0B0E0D7
:1032C000A0E0309799F42115310509F44AC0281B74
:1032D000390B24303105D8F58A819B816115710540
:1032E00089F1FB0182839383FE0111C040815181EA
:1032F0000281138148175907E0F04817590799F4DC
:10330000109761F012960C93129713961C933296B5
:10331000CF01DF91CF911F910F91089500936D2DF3
:1033200010936E2DF4CF2115310551F0421753073C
:1033300038F0A901DB019A01BD01DF01F801C1CF1D
:10334000EF01F9CF80936D2D90936E2DCDCFFE01BF
:10335000E20FF31F8193919322503109288339831F
:10336000D7CF20916B2D30916C2D232B41F42091E0
:1033700006283091072820936B2D30936C2D2091D7
:103380000428309105282115310541F42DB73EB7A9
:103390004091082850910928241B350BE0916B2D92
:1033A000F0916C2DE217F307A0F42E1B3F0B2817AA
:1033B000390778F0AC014E5F5F4F2417350748F0AE
:1033C0004E0F5F1F40936B2D50936C2D8193919303
:1033D0009FCFF0E0E0E09CCFCF93DF930097E9F040
:1033E000FC01329712821382A0916D2DB0916E2D47
:1033F000ED0130E020E01097A1F420813181820FAF
:10340000931F20916B2D30916C2D2817390709F0EF
:1034100061C0E0936B2DF0936C2DDF91CF910895F7
:10342000EA01CE17DF07E8F54A815B819E0141156D
:103430005105B1F7E901EA83FB8349915991C40F22
:10344000D51FEC17FD0761F4808191810296840FEE
:10345000951FE90188839983828193818A839B8365
:10346000F0E0E0E012968D919C9113970097B9F5EA
:103470002D913C911197CD010296820F931F2091BF
:103480006B2D30916C2D2817390739F6309751F58F
:1034900010926D2D10926E2DA0936B2DB0936C2D0C
:1034A000BCCFC283D38340815181840F951FC8173D
:1034B000D90761F44E5F5F4F88819981480F591F8A
:1034C000408351838A819B818283938321153105B7
:1034D00009F0B0CFE0936D2DF0936E2D9ECFFD01DE
:1034E000DC01C0CF12821382D7CFFB01DC0102C006
:1034F00001900D9241505040D8F708956817790710
:1035000068F4FB01DC01E40FF51FA40FB51F02C036
:1035100002900E9241505040D8F708950C94751ABD
:10352000DC0101C06D9341505040E0F70895FB016C
:10353000DC014150504048F001900D920020C9F745
:1035400001C01D9241505040E0F70895F894FFCF1C
:10355000030201000C0D040500000003000102003D
:103560000001010000000000000000000000000059
:103570000000050400050602040103000100010229
:103580000302010002030405020305040202000510
:1035900002010500040101040404030303030505FB
:1035A0000303000001012010012040041002080163
:1035B000020102040804020104081020040820107B
:1035C00000316253C4F5A697B988DBEA7D4C1F2E03
:1035D0004372211087B6E5D4FACB98A93E0F5C6DF3
:1035E00086B7E4D5427320113F0E5D6CFBCA99A8E3
:1035F000C5F4A796013063527C4D1E2FB889DAEBD3
:103600003D0C5F6EF9C89BAA84B5E6D740712213C2
:103610007E4F1C2DBA8BD8E9C7F6A59403326150B2
:10362000BB8AD9E87F4E1D2C02336051C6F7A495A2
:10363000F8C99AAB3C0D5E6F4170231285B4E7D692
:103640007A4B1829BE8FDCEDC3F2A1900736655482
:1036500039085B6AFDCC9FAE80B1E2D34475261772
:10366000FCCD9EAF38095A6B4574271681B0E3D262
:10367000BF8EDDEC7B4A192806376455C2F3A09152
:103680004776251483B2E1D0FECF9CAD3A0B586942
:1036900004356657C0F1A293BD8CDFEE79481B2A32
:1036A000E1D083B22514477658693A0B9CADFECF22
:1036B000A293C0F1665704351B2A7948DFEEBD8C12
:1036C000000000005D029501C201AE02F301D101CC
:1036D000E50119097803FF01760400000000F005F8
:1036E000CB05F806A105C405B105A205C1067C06F7
:1036F0006F066B06320613060B06410639067A057D
:10370000750500000000FB06D6094B071C07FC06E8
:103710004F08FE07780A55079F089908220A910862
:1037200000000000A508D4090209FF08F408E90810
:10373000B108A60876047E094261736963426C6928
:093740006E6B00312E302E3000BA
:0A3749000024F40000006F2D800042
:00000001FF
