:100000000C9462000C948A000C948A000C948A0070
:100010000C948A000C948A000C948A000C948A0038
:100020000C948A000C948A000C948A000C948A0028
:100030000C948A000C948A000C948A000C948A0018
:100040000C946D0D0C948A000C94DD0D0C94B70D7E
:100050000C948A000C948A000C948A000C948A00F8
:100060000C940F0E0C948A0000000000240027005E
:100070002A0000000000250028002B0000000000DE
:1000800023002600290004040404040404040202DA
:100090000202020203030303030301020408102007
:1000A0004080010204081020010204081020000012
:1000B0000008000201000003040700000000000027
:1000C00000002A0F11241FBECFEFD8E0DEBFCDBF46
:1000D00012E0A0E0B1E0ECE7FBE202C005900D9277
:1000E000A435B107D9F726E0A4E5B2E001C01D921E
:1000F000A73FB207E1F710E0C2E6D0E004C02197C5
:10010000FE010E946014C136D107C9F70E94411058
:100110000C94BC150C940000AF92BF92CF92DF926A
:10012000EF92FF920F931F93CF93DF931F92CDB760
:10013000DEB7790198E0E90EF11CA9E8EA16F104AE
:1001400008F08DC093E49093B20494E49093B304C8
:1001500091E09093B4048093B5046093B604209327
:10016000B7043093B8042115310509F084C0B901F2
:100170006B5F7F4FA4EBB4E050E040E080E04617B7
:10018000570708F489C0F901E754FB4F8083E11455
:10019000F10409F464C08901809133039091340320
:1001A000DC01ED91FC910088F189E02D099588230F
:1001B00009F48CC0075F1F4F0338110508F04FC0CA
:1001C00082EBA82E84E0B82E61E070E081E030E0A0
:1001D00020E0F0E0E0E0D5019D915D013196AB01BA
:1001E0004F5F5F4F8901065C1A4F911160C0D801C3
:1001F0008C939B0181E0EE15FF0508F456C0265C48
:100200003A4FF90180834115510549F1809133033B
:1002100090913403DC01ED91FC910084F185E02D97
:100220006AE375E009951982809133039091340354
:10023000DC01ED91FC910084F185E02D41E050E07E
:10024000BE016F5F7F4F0995809133039091340316
:10025000DC01ED91FC910684F785E02D09950F9066
:10026000DF91CF911F910F91FF90EF90DF90CF9092
:10027000BF90AF9008954115510509F478CFFA0168
:10028000A9EBB4E0CA01820F931F8E179F0709F4F0
:100290006ECF41914D93F9CFED91E827F0E0EA5F01
:1002A000FE4F80814F5F5F4F6ACFBA0194CFDB0171
:1002B000A65CBA4F9C938F5F8F3F09F09CCFD8010B
:1002C0008C939A01AB014E5F5F4F94CF80913303C3
:1002D00090913403DC01ED91FC910084F185E02DD7
:1002E000A70162EB74E0AFCF30E020E050E040E0E7
:1002F000682F82E80C948C00CF93DF931F92CDB7C8
:10030000DEB7698321E030E0AE014F5F5F4F682FB9
:1003100083E80E948C000F90DF91CF910895FC013B
:1003200024813581828193812817390768F480817F
:100330009181A9014F5F5F4F55834483FC01E20F18
:10034000F31F608381E0089580E00895833081F099
:1003500028F4813099F08230A9F008958730A9F00F
:100360008830C9F08430B1F4809180008F7D03C063
:10037000809180008F7780938000089584B58F7777
:1003800084BD089584B58F7DFBCF8091B0008F77B9
:100390008093B00008958091B0008F7DF9CF1F93B6
:1003A000CF93DF93282F30E0F901E255FF4F84917E
:1003B000F901E656FF4FD491F901EA57FF4FC49176
:1003C000CC23A9F0162F81110E94A601EC2FF0E09A
:1003D000EE0FFF1FEE58FF4FA591B4918FB7F89421
:1003E000EC91111108C0D095DE23DC938FBFDF9113
:1003F000CF911F910895DE2BF8CFCF93DF9390E03C
:10040000FC01E656FF4F24918A579F4FFC018491CF
:100410008823C9F090E0880F991FFC01E859FF4F2D
:10042000A591B491FC01EE58FF4FC591D491611193
:100430000DC09FB7F8948C91209582238C9388816E
:10044000282328839FBFDF91CF910895623051F414
:100450009FB7F8943C91822F809583238C93E881F9
:100460002E2BEFCF8FB7F894EC912E2B2C938FBFC0
:10047000EACF1F93CF93DF93182FEB0161E00E9427
:10048000FD01209739F460E0812FDF91CF911F911A
:100490000C94CF01CF3FD10511F461E0F5CFE12FEE
:1004A000F0E0E255FF4FE491E33031F140F4E13008
:1004B000B1F0E230E1F0C038D1057CF7E4CFE730AD
:1004C00029F1E83059F1E430B1F780918000806281
:1004D00080938000D0938B00C0938A0004C084B5C1
:1004E000806884BDC7BDDF91CF911F91089584B509
:1004F000806284BDC8BDF7CF809180008068809302
:100500008000D0938900C0938800EDCF8091B00027
:1005100080688093B000C093B300E5CF8091B000B5
:1005200080628093B000C093B400DDCF8E3008F0BD
:100530008E508770806480937C0080917A00806404
:1005400080937A0080917A0086FDFCCF80917800BC
:100550009091790008953FB7F89480919902909115
:100560009A02A0919B02B0919C0226B5A89B05C05F
:100570002F3F19F00196A11DB11D3FBFBA2FA92F22
:10058000982F8827BC01CD01620F711D811D911D1F
:1005900042E0660F771F881F991F4A95D1F708958B
:1005A000AF92BF92CF92DF92EF92FF920F931F9381
:1005B000CF93DF936C017B018B01040F151FEB01BF
:1005C0005E01AE18BF08C017D10759F06991D60176
:1005D000ED91FC910190F081E02DC6010995892BE8
:1005E00079F7C501DF91CF911F910F91FF90EF90A7
:1005F000DF90CF90BF90AF900895FC01538D448D54
:10060000252F30E0842F90E0821B930B541710F0BD
:10061000CF96089501970895FC01918D828D9817CA
:1006200061F0A28DAE0FBF2FB11D5D968C91928DA2
:100630009F5F9F73928F90E008958FEF9FEF0895D3
:10064000FC01918D828D981731F0828DE80FF11D9C
:10065000858D90E008958FEF9FEF0895FC01918DB7
:10066000228D892F90E0805C9F4F821B91098F73B0
:10067000992708958BE496E00E942E0321E0892BB0
:1006800009F420E0822F089580E090E0892B29F082
:100690000E943A0381110C9400000895FC01A48D7E
:1006A000A80FB92FB11DA35ABF4F2C91848D90E094
:1006B00001968F739927848FA689B7892C93A08977
:1006C000B1898C91837080648C93938D848D981301
:1006D00006C00288F389E02D80818F7D8083089594
:1006E000EF92FF920F931F93CF93DF93EC0181E082
:1006F000888F9B8D8C8D98131AC0E889F989808129
:1007000085FF15C09FB7F894EE89FF896083E8895B
:10071000F98980818370806480839FBF81E090E04D
:10072000DF91CF911F910F91FF90EF900895F62EDA
:100730000B8D10E00F5F1F4F0F731127E02E8C8D74
:100740008E110CC00FB607FCFACFE889F9898081B9
:1007500085FFF5CFCE010E944E03F1CFEB8DEC0F5C
:10076000FD2FF11DE35AFF4FF0829FB7F8940B8FD6
:10077000EA89FB8980818062CFCFCF93DF93EC0140
:10078000888D8823B9F0AA89BB89E889F9898C9179
:1007900085FD03C0808186FD0DC00FB607FCF7CF35
:1007A0008C9185FFF2CF808185FFEDCFCE010E9435
:1007B0004E03E9CFDF91CF9108951F93CF93DF933D
:1007C000C1E0C0935402882399F1D091B8001091F0
:1007D000BA008091BC008A7B8093BC0060E082E11B
:1007E0000E94CF0160E083E10E94CF011092E902F4
:1007F000C093E8021092C30261E082E10E94CF013F
:1008000061E083E10E94CF018091B9008E7F8093E7
:10081000B9008091B9008D7F8093B90088E48093FE
:10082000B80085E48093BC001093BA00D093B80060
:10083000DF91CF911F9108958F929F92AF92BF92B7
:10084000CF92DF92EF92FF920F931F93CF93DF939C
:10085000D0911203D13208F0D7C0182FC0911103E4
:100860000E94AB026B017C018091E90281116BC097
:1008700082E08093E9021093E8028FEF8093E70211
:100880001092E602D093E502A1EFB2E0E5ECF2E0CF
:1008900080E0D81391C01092C4028091C402CC0FA2
:1008A000C82BC093C4028091C302813009F088C074
:1008B0001092C3020E94AB026B017C018091C402C2
:1008C0008093BB008091EB029091EC02A091ED022D
:1008D000B091EE02892B8A2B8B2BA1F00E94AB02E8
:1008E0000091EB021091EC022091ED023091EE02AA
:1008F0006C197D098E099F09061717072807390704
:1009000008F442C08091BC0083FDD8CF85EC809371
:10091000BC000E94AB026B017C018091E902823035
:1009200009F450C08091E7028F3F09F46FC08091B5
:10093000E702803209F46CC08091E702803309F449
:1009400069C084E026C08091EB029091EC02A091F6
:10095000ED02B091EE02892B8A2B8B2B09F484CF08
:100960000E94AB028090EB029090EC02A090ED020E
:10097000B090EE026C197D098E099F0986169706C4
:10098000A806B90608F070CF8091EA020E94DD0344
:1009900085E01092F002109212031092EF02DF91A4
:1009A000CF911F910F91FF90EF90DF90CF90BF906C
:1009B000AF909F908F9008959D9191938F5F69CF95
:1009C00085EEA5CF8091EB029091EC02A091ED0213
:1009D000B091EE02892B8A2B8B2B09F49ECF0E94BB
:1009E000AB020091EB021091EC022091ED023091EC
:1009F000EE026C197D098E099F0906171707280753
:100A0000390708F08ACFC0CF81E0C3CF80E0C1CFE3
:100A100082E0BFCF83E0BDCF20917502260F332740
:100A2000331F21323105ECF42091E902FC0190E002
:100A300080E0243069F082E00895A0917502219150
:100A4000AC014B5A5D4FA40FB52FB11D2C930196ED
:100A5000861798F380917502680F6093750280E0A5
:100A6000089581E008950895E091A2028091A10285
:100A7000E81730F4F0E0ED55FD4F808190E00895E7
:100A80008FEF9FEF08959091A2028091A1022FEF26
:100A90003FEF981748F4E92FF0E0ED55FD4F208126
:100AA00030E09F5F9093A202C90108958091A10256
:100AB0009091A202891B990B0895CF92DF92EF9239
:100AC000FF920F931F93CF93DF937C01CB018A0199
:100AD0002091EF02222389F0EB016B01C40ED51E99
:100AE000CC15DD0569F06991D701ED91FC9101907C
:100AF000F081E02DC7010995F3CF642F0E940C050A
:100B0000C801DF91CF911F910F91FF90EF90DF907F
:100B1000CF900895CF93DF931F92CDB7DEB769834F
:100B20002091EF022223F9F020911203203258F095
:100B300021E030E0FC013383228390E080E00F90DD
:100B4000DF91CF9108958091F002E82FF0E0EF500F
:100B5000FD4F998190838F5F8093F0028093120301
:100B600081E090E0ECCF61E0CE0101960E940C059F
:100B7000F7CF90E080E00895089581E00895DC01CA
:100B800012968D919C91DC01ED91FC910680F7818C
:100B9000E02D0994CF92DF92EF92FF920F931F9373
:100BA000CF93DF937C016A018B01D0E0C0E0CC15CC
:100BB000DD05F1F0D70112968D919C91DC01ED914C
:100BC000FC910084F185E02D0995892B89F0F701CE
:100BD00082819381DC01ED91FC910284F385E02D0B
:100BE000099597FD05C02196F80181938F01DFCF0C
:100BF000CE01DF91CF911F910F91FF90EF90DF9089
:100C0000CF900895DC0112968D919C91DC01ED91BD
:100C1000FC910084F185E02D0994DC0112968D9100
:100C20009C91DC01ED91FC910280F381E02D09940F
:100C3000FC0182850895CF92DF92EF92FF920F938D
:100C40001F93CF93DF938C01FC01C481D581209742
:100C500009F454C0C680D780E084F184E889F9891A
:100C600082E08083C114F1EEDF06E104F104A1F01B
:100C700060E079E08DE390E0A70196010E943E14C8
:100C800021503109410951095695479537952795C6
:100C9000211580E1380798F0E889F989108260E829
:100CA00074E88EE190E0A70196010E943E14215065
:100CB0003109410951095695479537952795EC8596
:100CC000FD853083EE85FF852083188EEC89FD89B4
:100CD00086E08083EA89FB89808180618083EA895C
:100CE000FB89808188608083EA89FB8980818068B4
:100CF0008083EA89FB8980818F7D808381E0F80190
:100D00008287DF91CF911F910F91FF90EF90DF903D
:100D1000CF9008950F931F93CF93DF93DC01FB01D6
:100D200082818C93938111969C9311979481129652
:100D30009C9312976581768114967C936E9313979A
:100D40008130F1F5CB01089648175907E0F161159C
:100D5000710501F1CF01079616969C938E93159716
:100D60008B010B5F1F4FAF014E5F5F4F30E020E004
:100D700080E02017310798F0E60FF71F978198174A
:100D8000D1F017969C9384E090E0DF91CF911F9172
:100D90000F91089516961C921E921597E1CFEA01C5
:100DA0009991AE01C92FC827D0E0CA5FDE4F888174
:100DB0002F5F3F4FDECF17968C9390E080E0E5CF1A
:100DC00083E090E0E2CF85E090E0DFCF0895FC0182
:100DD00084819581AC014E5F5F4F2281338124175E
:100DE0003507C8F0A081B1819C012F5F3F4F35834B
:100DF0002483A80FB91F6C93808191812481358150
:100E0000A9014F5F5F4F55834483FC01E20FF31F3D
:100E1000708381E0089580E00895FC0184819581CC
:100E20009C012E5F3F4F428153814217530758F078
:100E3000A081B181A80FB91F11969C9111978C9137
:100E400035832483089590E080E00895FC01248197
:100E50003581828193812817390760F480819181DF
:100E6000A9014F5F5F4F55834483FC01E20FF31FDD
:100E70008081089580E00895CF92DF92EF92FF92F3
:100E80000F931F93CF93DF93D82FC62F0E94AB02EF
:100E90006B017C018091E902811168C0C13208F0C8
:100EA000C0E281E08093E9028093E8029FEF909393
:100EB000E7021092E6029C0F9093E5028093C40231
:100EC0008091C402DD0FD82BD093C4028091C3025D
:100ED000813009F07FC01092C3020E94AB026B0107
:100EE0007C018091C4028093BB008091EB029091C1
:100EF000EC02A091ED02B091EE02892B8A2B8B2B94
:100F0000A1F00E94AB020091EB021091EC02209143
:100F1000ED023091EE026C197D098E099F090617CA
:100F200017072807390708F442C08091BC0083FDE9
:100F3000D8CF85EC8093BC000E94AB026B017C0192
:100F40008091E902813009F447C08091E6028C1754
:100F500010F4C091E602E5ECF2E0A3EAB2E080E032
:100F60008C1751F191919D938F5FFACF8091EB0295
:100F70009091EC02A091ED02B091EE02892B8A2BA8
:100F80008B2B09F487CF0E94AB020091EB021091EA
:100F9000EC022091ED023091EE026C197D098E0970
:100FA0009F09061717072807390708F073CF8091A4
:100FB000EA020E94DD03C0E01092A202C093A102E7
:100FC0008C2FDF91CF911F910F91FF90EF90DF90C9
:100FD000CF90089585EEAECF8091EB029091EC0218
:100FE000A091ED02B091EE02892B8A2B8B2B09F494
:100FF000A7CF0E94AB020091EB021091EC0220916E
:10100000ED023091EE026C197D098E099F090617D9
:1010100017072807390708F093CFC9CF9F92AF92DF
:10102000BF92CF92DF92EF92FF920F931F93CF93D5
:10103000DF93CDB7DEB7CC58D1090FB6F894DEBF39
:101040000FBECDBF8C01DC0111968C9111978232BD
:1010500009F4EEC308F0A6C0823109F4A1C1F0F58D
:10106000823009F45BC128F4813009F43BC161E0AE
:101070008BC1803109F45CC18131C9F7F8018381EA
:1010800094818230910508F459C115962D913C91B7
:101090003A8329839C838B831E821D82CE01019615
:1010A0000E942607E82ECE0101960E942607F82E00
:1010B000F80183819481039708F468C1CE010196F9
:1010C0000E9426076F2D823009F465C161E0F1109E
:1010D00001C060E08E2D0E94CF01EBC0843109F485
:1010E0008FC208F4CEC1803209F45BC3813209F0AB
:1010F000BECF13968D919C9114978230910508F480
:1011000057C3F80125813681C957DF4F39832883BA
:10111000C758D040C757DF4F99838883C958D040FC
:10112000C557DF4F19821882CB58D040CE0189575E
:101130009F4F0E942607F82E88EF8F0D803708F00A
:101140004CC3CE0189579F4F0E942607FE0131965E
:101150006F01CF57DF4FF983E883C158D04020E8B3
:1011600030E0CD57DF4F39832883C358D040CB5769
:10117000DF4F19821882C558D040682F8F2D0E94EA
:101180003C07E82EF12CEF1409F4C6C383E193E089
:101190000E944305682FCE018F579F4F0E948F01F9
:1011A000F394F1CF803609F4A7C208F077C08034F9
:1011B00009F44FC208F065C0803309F058CFF80138
:1011C0008381948161E08230910508F4B8C015965E
:1011D0002D913C91C957DF4F39832883C758D040A0
:1011E000C757DF4F99838883C958D040C557DF4F11
:1011F00019821882CB58D040CE0189579F4F0E9448
:101200002607982EF801C380D480F1E0CF1AD108C8
:101210009E012F5F3F4F5901CF57DF4F39832883FE
:10122000C158D04080E890E0CD57DF4F9983888344
:10123000C358D040CB57DF4F19821882C558D040D1
:1012400081E58CBD1DBC60E0892D0E94CF01F12C91
:10125000E12CEC14FD0408F06BC3CE0189579F4FBD
:101260000E9426078EBD00000DB407FEFDCF6EB5AF
:10127000CE018F579F4F0E948F013FEFE31AF30A71
:10128000E8CF803509F464C3813509F0F0CE1092BF
:101290004A0610923F0610923E06D5C1833778F475
:1012A000803708F097C3813609F472C2823609F09C
:1012B000DECED80112968C910E9474011CC0803F32
:1012C00009F0D5CE909127042FE133E080E0235F31
:1012D0003F4F981709F45EC2F901E156FF4F1082A3
:1012E0008F5FF5CF30E020E050E040E0F801628110
:1012F00080E80E948C00C457DF4F0FB6F894DEBF21
:101300000FBECDBFDF91CF911F910F91FF90EF9056
:10131000DF90CF90BF90AF909F90089520913C06B2
:1013200030913D064CEB55E012966C9181E8E1CF8F
:10133000F801838194818230910518F464E0828100
:1013400092C115962D913C913A8329839C838B837E
:101350001E821D82CE0101960E942607F82ECE0124
:1013600001960E942607833040F460E0813008F047
:1013700061E08F2D0E94FD019CCF833009F499CF4D
:1013800062E08430B1F365E0F801D9CFF1E06F2D70
:10139000FF1508F09FCE70E08E2D0E94390289CF94
:1013A000F80183819481009749F215962D913C9123
:1013B000CF57DF4F39832883C158D040CD57DF4FF7
:1013C00099838883C358D040CB57DF4F1982188246
:1013D000C558D040CE018F579F4F0E942607D82E68
:1013E000F80183819481029730F1CE018F579F4F8E
:1013F0000E9426077E01F7E8EF0EF11CFA82E982CF
:1014000024E030E03C832B8321E030E03E832D83D9
:10141000D701DC92833089F48D2D0E949602BC01A5
:10142000CE0101960E94E7062D813E81A701F801B9
:10143000628181E95ECF80E0DDCF2D2D30E0F901C2
:10144000E255FF4F8491F901E656FF4FD490F90120
:10145000EA57FF4FC49060E070E0CC2009F381119F
:101460000E94A601EC2DF0E0EE0FFF1FE458FF4FA5
:10147000A591B491EC91DE2261E070E089F660E024
:10148000CFCF13968D919C91149764E08530910590
:1014900008F48FC1F801258136813A8329839C8322
:1014A0008B831E821D82CE0101960E942607C82EC4
:1014B000CE0101960E942607D82ECE0101960E94E9
:1014C0000D077C01D80113968D919C91079708F424
:1014D00048C0CE0101960E940D0720912704EFEB32
:1014E000F3E050E040E0421708F042C03081C31200
:1014F0003BC034853323C1F12DE0249FF001259FAB
:10150000F00D1124E054FC4FD082E114F10419F4E1
:1015100034E6E32EF12C6DE0649F9001659F300D61
:101520001124215E3C4FF901EE55FF4FF182E0821C
:101530003296918380833296118210824FB7F8944D
:1015400080919D0290919E02A0919F02B091A00275
:101550004FBF28553F4FF90180839183A283B38306
:10156000A8CE90E080E0B9CF4F5F5F4F3D96BBCFF4
:101570006BE0283009F408CF422F50E0FDE02F9FA8
:1015800090011124215E3C4FF901E056FF4FC082CB
:101590002F553F4FD901DC92E114F10419F424E6F0
:1015A000E22EF12C6DE0649F9001659F300D1124B7
:1015B000215E3C4FF901EE55FF4FF182E0823296F9
:1015C000918380833296118210824FB7F894809174
:1015D0009D0290919E02A0919F02B091A0024FBFE8
:1015E000329680839183A283B38324553F4F81E059
:1015F000F9018083809127048F5F8093270459CE5F
:10160000F80183819481892B19F464E0D801D1C059
:101610001596ED91FC91208130912704EFEBF3E0DA
:1016200090E080E0831788F7408124130FC0448541
:10163000442361F02DE0289FF001299FF00D112433
:10164000E553FC4F1082F801828136CE01963D961B
:10165000E9CF13962D913C91149712968C912230DC
:10166000310520F468E00E947C0145CEF801A58197
:10167000B681EC9190913D03E917A0F7F0E0EE0FF1
:10168000FF1FEB5CFC4FE080F180E114F10451F3AB
:1016900011966C9111971296BA83A9832250310941
:1016A0003C832B831E821D822FE133E0CF57DF4F17
:1016B00039832883C158D040CD57DF4F8883C35822
:1016C000D040CC57DF4F1882C458D040D701ED919D
:1016D000FC910484F585E02D9E012F573F4FAE010C
:1016E0004F5F5F4FC7010995CC57DF4F8881C458C2
:1016F000D040811100CEA7CF13962D913C91149725
:1017000012968C912230310510F46DE0ACCFF801C7
:10171000A581B681EC919091BE03E917B0F760E224
:10172000E69FF0011124E15EFC4F92AD6EE099233B
:1017300009F499CF1196BA83A983215031093C83CA
:101740002B831E821D822FE133E0CF57DF4F398379
:101750002883C158D040CD57DF4F8883C358D0402D
:10176000CC57DF4F1882C458D04005ACF6ADE02D01
:10177000309731F0BE016F577F4FCE01019609952A
:10178000CC57DF4F8881C458D0408111B4CD91CD62
:101790006DE0FACD109227041092B1041092B004BB
:1017A00052CF13968D919C9114978230910520F41D
:1017B00066E012968C9157CFF801258136813A83E5
:1017C00029839C838B831E821D82CE0101960E94F9
:1017D000260798EF980F903710F066E017CFF801C2
:1017E000C380D480F1E0CF1AD10891E09093EF024A
:1017F000809311031092F00210921203F12CE12C4D
:10180000EC14FD0468F4CE0101960E942607682FAF
:1018100083E193E00E948A052FEFE21AF20AF0CFEB
:1018200081E00E941C04882309F443CD67E0ACCD1D
:10183000F8018381948166E08330910508F47FCDBF
:1018400015962D913C91C957DF4F39832883C7588E
:10185000D040C757DF4F99838883C958D040C557B8
:10186000DF4F19821882CB58D040CE0189579F4F45
:101870000E942607E82E88EF8E0D66E0803708F07C
:1018800083CDCE0189579F4F0E942607F82ECE01A7
:1018900089579F4F0E942607B82E81E08093EF0260
:1018A000E09211031092F002109212036F2D83E167
:1018B00093E00E948A0580E00E941C04F82E67E0F5
:1018C0008111A4CEFE0131966F01CF57DF4FF9830E
:1018D000E883C158D04080E890E0CD57DF4F99832E
:1018E0008883C358D040CB57DF4F19821882C55820
:1018F000D0406B2D8E2D0E943C07E82EEF1461F036
:1019000083E193E00E944305682FCE018F579F4FDC
:101910000E948F01F394F2CFCB57DF4F288139819A
:10192000C558D040A601D80112966C9180EAE1CC4E
:1019300061E0892D0E94CF01CB57DF4F288139818B
:10194000C558D040A501D80112966C9180EBD1CC3E
:10195000F801838194818530910508F456CE258164
:1019600036813A8329839C838B831E821D82CE011C
:1019700001960E940D0790933F0680933E06CE018C
:1019800001960E940D07909341068093400621E046
:1019900020934A0620E137E240E050E0009749F00A
:1019A0009C0150E040E060E472E48FE090E00E942F
:1019B0003E142093420630934306409344065093CE
:1019C000450610924606109247061092480610925D
:1019D00049066FCC6FE01ACE85ED8093BC008091F4
:1019E000EB029091EC02A091ED02B091EE0207960D
:1019F000A11DB11D23E0B695A795979587952A95CA
:101A0000D1F72091BC0024FD03C01092E902089593
:101A10004091EB025091EC026091ED027091EE0268
:101A2000452B462B472B69F30097A105B10541F0E3
:101A30002AE22A95F1F700C00197A109B109E1CF87
:101A40008091EA020C94DD030C940215EF92FF9250
:101A50000F931F93CF93DF93EC012C813D81F9010C
:101A6000E40FF51F8A819B818E179F07A0F1FB0170
:101A700001900020E9F73197E61BF70B7A01E41794
:101A8000F50708F47F018A0188819981A701820FF7
:101A9000931F0E948B15E016F10678F4A8014E19E9
:101AA0005F098C819D81E80EF91E8881998170E023
:101AB00060E08E0D9F1D0E94A6154C815D81040F74
:101AC000151F1D830C8381E0DF91CF911F910F9132
:101AD000FF90EF90089580E0F7CF1F920F920FB61E
:101AE0000F9211242F933F938F939F93AF93BF93A4
:101AF00080919D0290919E02A0919F02B091A002C0
:101B00003091980223E0230F2D3758F50196A11D3F
:101B1000B11D2093980280939D0290939E02A09302
:101B20009F02B093A0028091990290919A02A09195
:101B30009B02B0919C020196A11DB11D8093990258
:101B400090939A02A0939B02B0939C02BF91AF9195
:101B50009F918F913F912F910F900FBE0F901F90EB
:101B6000189526E8230F0296A11DB11DD2CF1F9212
:101B70000F920FB60F9211242F933F934F935F93C1
:101B80006F937F938F939F93AF93BF93EF93FF9345
:101B90008BE496E00E944E03FF91EF91BF91AF91CD
:101BA0009F918F917F916F915F914F913F912F9175
:101BB0000F900FBE0F901F9018951F920F920FB6A7
:101BC0000F9211242F938F939F93EF93FF93E091A4
:101BD0005B06F0915C068081E0916106F0916206FF
:101BE00082FD1BC09081809164068F5F8F7320916E
:101BF0006506821741F0E0916406F0E0E55BF94F7D
:101C0000958F80936406FF91EF919F918F912F9113
:101C10000F900FBE0F901F9018958081F4CF1F92E8
:101C20000F920FB60F9211242F933F934F935F9310
:101C30006F937F938F939F93AF93BF93EF93FF9394
:101C40008091B900887F803609F44AC0F0F5883267
:101C500009F4A5C018F5803109F499C0B8F48823B7
:101C600009F4F5C0883009F492C0FF91EF91BF915B
:101C7000AF919F918F917F916F915F914F913F9124
:101C80002F910F900FBE0F901F901895883109F477
:101C900086C0803251F78093E70214C0803409F483
:101CA0009BC040F48033B9F38833F9F68093E702A0
:101CB00085ECAEC0803509F483C0883509F494C042
:101CC000883499F60E94EC0CD0CF883909F48AC088
:101CD00038F5883729F050F4883611F0803729F626
:101CE00083E08093E9021092970255C0883809F486
:101CF00079C0803919F0803809F0B7CF8091970208
:101D0000803208F06FC0E091970281E08E0F8093DF
:101D100097028091BB00F0E0E958FD4F80833BC003
:101D2000803B39F0D0F4803A09F477C0883A09F062
:101D30009CCF84E08093E9021092760210927502A3
:101D4000F0E0E0E009958091750281110FC081E01B
:101D5000809375021092550209C0803C09F4A8CF07
:101D6000883C09F4A5CF883B09F07FCFE09176024B
:101D700081E08E0F80937602F0E0EB5AFD4F808178
:101D80008093BB00909176028091750229C080916A
:101D9000C4028093BB0085EC8093BC0066CF909119
:101DA000E6028091E502981758F5E091E60281E09D
:101DB0008E0F8093E602F0E0EB53FD4F8081E9CF78
:101DC000E091E60281E08E0F8093E6028091BB00F5
:101DD000F0E0EB53FD4F80839091E6028091E502A5
:101DE0009817C8F285E8D8CFE091E60281E08E0F1F
:101DF0008093E6028091BB00F0E0EB53FD4F8083BF
:101E00008091E80281115ECF81E08093C30284EA71
:101E10008093BC001092E90228CF85EC8093BC002F
:101E20001092E90280919702803230F4E09197029B
:101E3000F0E0E958FD4F10826091970270E087E76B
:101E400092E0F0E0E0E00995109297020ECF109238
:101E5000E70238CF1F93CF93DF9300D000D000D09C
:101E6000CDB7DEB78BE496E010924E0610924D0689
:101E700048EE53E060E070E040934F065093500608
:101E800060935106709352062AE032E030934C067C
:101E900020934B0625EC30E03093580620935706EC
:101EA00024EC30E030935A062093590620EC30E0C1
:101EB00030935C0620935B0621EC30E030935E06A5
:101EC00020935D0622EC30E03093600620935F069D
:101ED00026EC30E03093620620936106109264068F
:101EE000109265061092660610926706109216030D
:101EF000109215034093170350931803609319032E
:101F000070931A032CE132E03093140320931303EF
:101F10002EE232E03093E9062093E8069093EB0638
:101F20008093EA069093ED068093EC0680E092ECB5
:101F3000A1E0B0E08093EE069093EF06A093F00648
:101F4000B093F1061092F20688EE96E09093340377
:101F50008093330310923D031092BE031092270426
:101F60001092B1041092B00410923D0610923C06FB
:101F700010923F0610923E061092410610924006C3
:101F800010924206109243061092440610924506A3
:101F90001092460610924706109248061092490683
:101FA00010924A06EFE1F3E081E1DF011D928A958C
:101FB000E9F740E150E062E472E0CF010E94AD1524
:101FC0001092300310923103109232031A82198258
:101FD0001C821B821E821D82ADE4B2E030E020E054
:101FE0001AE08D91882329F12330310514F58E32C2
:101FF00019F42F5F3F4FF5CF90ED980F9A3088F787
:10200000F901EE0FFF1F41E050E04C0F5D1FE40FA0
:10201000F51F60817181169FA001179F500D11243B
:10202000082E000C990BC097840F951F9183808315
:10203000D8CF8981809330038B81809331038D8148
:1020400080933203E5E3F3E088E0DF011D928A9597
:10205000E9F7EEE3F3E080E8DF011D928A95E9F706
:10206000EFEBF3E088E6DF011D928A95E9F726960B
:102070000FB6F894DEBF0FBECDBFDF91CF911F9199
:102080000895CF93DF93CDB7DEB7CE58D1090FB601
:10209000F894DEBF0FBECDBF789484B5826084BD56
:1020A00084B5816084BD85B5826085BD85B581605C
:1020B00085BD80916E00816080936E0010928100DA
:1020C0008091810082608093810080918100816095
:1020D0008093810080918000816080938000809156
:1020E000B10084608093B1008091B00081608093E2
:1020F000B00080917A00846080937A0080917A00A9
:10210000826080937A0080917A00816080937A0067
:1021100080917A00806880937A001092C10080914B
:10212000330390913403DC01ED91FC910480F5813F
:10213000E02D099510E04FE1E42E43E0F42E80916C
:102140003D031817C8F4E12FF0E0EE0FFF1FEB5C22
:10215000FC4FA081B181109769F01396FC92EE922A
:10216000129780819181DC01ED91FC910284F385CD
:10217000E02D09951F5FE3CF8CEB95E09A8389836F
:1021800080E890E09C838B831E821D8240E150E0BA
:102190006FE173E08E010F5F1F4FC8010E94260D93
:1021A00060913003C8010E948F0160913103C80122
:1021B0000E948F0160913203C8010E948F018D81BE
:1021C0009E81AC01485F5F4F2B813C81241735070E
:1021D00070F0E981FA81E80FF91F88E0DF011D92B4
:1021E0008A95E9F78D819E8108969E838D8360E0B4
:1021F000C8010E948F0164E1C8010E948F01F12C87
:10220000B3E0FB1649F08BEF8F0D823028F087EF9B
:102210008F0D63E0833008F467E08EEF8F0D82301E
:1022200008F46068C8010E948F01F394E4E1FE1293
:10223000E7CF61E0C8010E948F0161E0C8010E9400
:102240008F0161E0C8010E948F0160E870E0C80161
:102250000E94E70660913D03C8010E948F01D12CC6
:1022600080913D03D81608F065C0ED2DF0E0EE0F2B
:10227000FF1FEB5CFC4FE080F180E114F10409F4F6
:1022800057C06D2DC8010E948F01D701ED91FC91BF
:102290000480F581E02DC701099548E050E0BC01BC
:1022A000C8010E94260DD701ED91FC910680F781AF
:1022B000E02DC7010995682FC8010E948F01D70141
:1022C000ED91FC910084F185E02DC7010995682FFF
:1022D000C8010E948F01D701ED91FC910088F1891E
:1022E000E02DC7010995682FC8010E948F01D70111
:1022F000ED91FC910288F389E02DC70109955C01FD
:10230000C12CD701ED91FC910088F189E02DC70126
:102310000995C81668F460E0A114B10421F0F50134
:10232000EC0DF11D6081C8010E948F01C394E9CFBB
:10233000D39496CF6091BE03C8010E948F01D12C27
:102340008091BE03D81678F5B0E2DB9E70011124AF
:10235000B701625C7C4F40E150E0C8010E94260D4D
:10236000F701E15EFC4F5F0160A9C8010E948F0187
:10237000B701605B7C4F48E050E0C8010E94260D29
:10238000D501DA966C91C8010E948F01F50163AD09
:10239000C8010E948F01D501DC966C91C8010E9492
:1023A0008F01D394CDCF8D819E8190933D068093F4
:1023B0003C067E01B9E8EB0EF11C9DE0892E809170
:1023C000330390913403DC01ED91FC910680F78199
:1023D000E02D0995882309F444C28091330390913C
:1023E0003403DC01ED91FC910288F389E02D09951D
:1023F0008091330390913403DC01ED91FC910088CE
:10240000F189E02D0995882309F4B1C08091330347
:1024100090913403DC01ED91FC910284F385E02D71
:102420000995892B09F414C18091330390913403E9
:10243000DC01ED91FC910484F585E02D41E050E054
:10244000B7010995019709F003C1F7012081809137
:10245000B0049091B10421115BC00097B9F2D12C66
:10246000C12C50E040E033C0BA016F5F7F4FFA01EA
:10247000E85DFB4FA081AA2309F459C0BFEFBA0F52
:102480002B2F30E0620F731F8617970708F44FC099
:102490002C0D3D1D2938310508F049C0FA01E75DD2
:1024A000FB4F5F01C00ED11E40E04B1748F1AF3F1C
:1024B00061F06817790748F428383105C1F1F8014F
:1024C000E20FF31F10822F5F3F4F6901AB014817E6
:1024D000590750F2C114D10451F1A601B80188E2A4
:1024E00094E00E948B15D092B104C092B004F8E041
:1024F000CF16D10408F51092B1041092B004A8C010
:10250000F50151915F01F60151936F014F5FCDCFFE
:102510008838910560F4AC014F5F5F4F5093B10470
:102520004093B004885D9B4FDC012C936FCF1092D9
:10253000B1041092B0046ACF809128048334D9F694
:10254000809129048434B9F6A60168E274E0C801D8
:102550000E948A06009721F4C8010E940E08CBCF82
:10256000049749F662E080E00E947C01C4CF80912C
:10257000330390913403DC01ED91FC910284F385E7
:10258000E02D0995181619060CF062C06091B00490
:102590007091B10428E830E0261B370B2817390763
:1025A00008F4C901A0913303B0913403685D7B4FF7
:1025B000ED91FC9111970484F585E02DAC01CD01DE
:1025C00009951816190654F42091B0043091B104FD
:1025D000820F931F9093B1048093B0044091B00494
:1025E0005091B1044830510598F18091280483340A
:1025F00079F580912904843459F568E274E0C801C2
:102600000E948A06009709F00DC1C8010E940E08B9
:10261000CC80DD80B8E0CB0ED11C4091B00450914D
:10262000B104C416D50608F066CF4C195D09B60191
:10263000685D7B4F88E294E00E9494158091B0041D
:102640009091B1048C199D099093B1048093B004CA
:1026500080914A06882309F45AC00E94AB02409038
:1026600046065090470660904806709049069B01C8
:10267000AC0124193509460957094090420650908B
:1026800043066090440670904506241535054605BE
:102690005705E8F160934606709347068093480615
:1026A00090934906F7011183008320E830E03383DB
:1026B000228315821482D12CC12C20913E063091A8
:1026C0003F0681E090E00C2C02C0880F991F0A940D
:1026D000E2F782239323892B39F08C2D0E949602F6
:1026E000BC01C7010E94E7063FEFC31AD30A40E1CD
:1026F000C416D10411F7D70114962D913C912115E0
:10270000310529F0A80160E080ED0E948C008FB7B0
:10271000F89440909D0250909E0260909F027090AD
:10272000A0028FBF912C80912704981608F081C0D9
:10273000292C312C829CC001839C900D1124FC011A
:10274000E15EFC4F6F01E455FF4F8081882309F45F
:1027500067C03B978081843009F062C037968081E2
:102760009181A281B381B301A201481B590B6A0B6D
:102770007B0B369780819181B0E0A0E04817590724
:102780006A077B0708F44CC0329780810E9496024A
:102790005C01F601EA55FF4F808191818A159B0506
:1027A00008F044C09501281B390BC901829C900197
:1027B000839C300D1124A901415E5C4F6A01FA012E
:1027C000EC55FF4F2081318182179307F0F0FA8298
:1027D000E98283E090E09C838B8334978081A1E041
:1027E000B0E0BE83AD83F7018083B501C8010E94CC
:1027F000E7062D813E81A70160E080E90E948C0000
:10280000F601EA55FF4FB182A082829CF001839CC1
:10281000F00D1124E953FC4F408251826282738291
:10282000939481CF049709F013CF9CCE8A199B090A
:10283000BDCFD12C80913D03D81698F4ED2DF0E05A
:10284000EE0FFF1FEB5CFC4F80819181009739F008
:10285000DC01ED91FC910684F785E02D0995D39478
:10286000E9CFE0E0F0E0EF2B09F4A9CD0E943A03B4
:10287000882309F4A2CD0E9400009FCDA1E21A2E68
:10288000AA1BBB1BFD010DC0AA1FBB1FEE1FFF1F14
:10289000A217B307E407F50720F0A21BB30BE40B64
:1028A000F50B661F771F881F991F1A9469F76095AB
:1028B0007095809590959B01AC01BD01CF01089565
:1028C000EE0FFF1F0590F491E02D09940F931F93D5
:1028D000CF93DF938230910510F482E090E0E09195
:1028E000F506F091F60630E020E0B0E0A0E0309789
:1028F00099F42115310509F44AC0281B390B2430FD
:102900003105D8F58A819B816115710589F1FB013B
:1029100093838283FE0111C0408151810281138122
:1029200048175907E0F04817590799F4109761F0D4
:1029300012960C93129713961C933296CF01DF9147
:10294000CF911F910F9108950093F5061093F6060D
:10295000F4CF2115310551F04217530738F0A90182
:10296000DB019A01BD01DF01F801C1CFEF01F9CF11
:102970009093F6068093F506CDCFFE01E20FF31F8C
:10298000819391932250310939832883D7CF2091A5
:10299000F3063091F406232B41F42091020130918B
:1029A00003013093F4062093F30620910001309147
:1029B00001012115310541F42DB73EB740910401C5
:1029C00050910501241B350BE091F306F091F406BC
:1029D000E217F307A0F42E1B3F0B2817390778F0F6
:1029E000AC014E5F5F4F2417350748F04E0F5F1F55
:1029F0005093F4064093F306819391939FCFF0E0B8
:102A0000E0E09CCFCF93DF930097E9F0FC01329791
:102A100013821282A091F506B091F606ED0130E026
:102A200020E01097A1F420813181820F931F209123
:102A3000F3063091F4062817390709F061C0F093C6
:102A4000F406E093F306DF91CF910895EA01CE17E3
:102A5000DF07E8F54A815B819E0141155105B1F719
:102A6000E901FB83EA8349915991C40FD51FEC1703
:102A7000FD0761F4808191810296840F951FE90121
:102A800099838883828193819B838A83F0E0E0E04D
:102A900012968D919C9113970097B9F52D913C91C9
:102AA0001197CD010296820F931F2091F30630916A
:102AB000F4062817390739F6309751F51092F606C3
:102AC0001092F506B093F406A093F306BCCFD3831F
:102AD000C28340815181840F951FC817D90761F4C3
:102AE0004E5F5F4F88819981480F591F5183408302
:102AF0008A819B81938382832115310509F0B0CFB0
:102B0000F093F606E093F5069ECFFD01DC01C0CF01
:102B100013821282D7CFFB01DC0102C001900D921B
:102B200041505040D8F708956817790768F4FB01C1
:102B3000DC01E40FF51FA40FB51F02C002900E9236
:102B400041505040D8F708950C948B15DC0101C01A
:102B50006D9341505040E0F70895FB01DC01415076
:102B6000504048F001900D920020C9F701C01D921D
:0C2B700041505040E0F70895F894FFCF6A
:102B7C000000F706800000316253C4F5A697B988AF
:102B8C00DBEA7D4C1F2E4372211087B6E5D4FACBBD
:102B9C0098A93E0F5C6D86B7E4D5427320113F0EA9
:102BAC005D6CFBCA99A8C5F4A796013063527C4DA5
:102BBC001E2FB889DAEB3D0C5F6EF9C89BAA84B561
:102BCC00E6D7407122137E4F1C2DBA8BD8E9C7F67D
:102BDC00A59403326150BB8AD9E87F4E1D2C023379
:102BEC006051C6F7A495F8C99AAB3C0D5E6F417065
:102BFC00231285B4E7D67A4B1829BE8FDCEDC3F2CD
:102C0C00A1900736655439085B6AFDCC9FAE80B144
:102C1C00E2D344752617FCCD9EAF38095A6B457428
:102C2C00271681B0E3D2BF8EDDEC7B4A192806371C
:102C3C006455C2F3A0914776251483B2E1D0FECF40
:102C4C009CAD3A0B586904356657C0F1A293BD8C04
:102C5C00DFEE79481B2AE1D083B2251447765869F8
:102C6C003A0B9CADFECFA293C0F1665704351B2ADC
:102C7C007948DFEEBD8C000000007003D002FD022D
:102C8C00BD032E030C032003000000008A055D0524
:102C9C00B905330556054305340500000000BC0595
:102CAC00240D1B0618060D060206CA05BF05BD0538
:102CBC00E6064261736963426C696E6B00312E30BB
:042CCC002E300000A6
:00000001FF
