:1000000000000320D1010000F52B0000B12B0000FF
:10001000B12B0000B12B0000B12B0000B12B000070
:10002000B12B0000B12B0000B12B0000F52B00001C
:10003000F52B0000B12B0000092700000D27000060
:10004000F52B0000F52B0000F52B0000F52B000030
:10005000F52B0000F52B0000F52B0000F52B000020
:10006000F52B0000F52B0000F52B0000F52B000010
:10007000F52B0000F52B0000F52B0000F52B000000
:10008000F52B0000F52B0000F52B0000F52B0000F0
:10009000F52B0000F52B0000F52B0000F52B0000E0
:1000A000112600001D260000F52B0000F52B000096
:1000B000F52B0000F52B0000F52B0000F52B0000C0
:1000C000F52B0000F52B0000F52B0000F52B0000B0
:1000D000F52B0000F52B0000F52B0000F52B0000A0
:1000E000F52B0000F52B0000F52B0000F52B000090
:1000F000F52B0000F52B0000F52B0000F52B000080
:10010000F52B0000F52B0000F52B0000F52B00006F
:10011000F52B0000DD330000F52B0000F52B00006F
:10012000F52B0000F52B0000F52B0000F52B00004F
:10013000F52B0000F52B0000F52B0000F52B00003F
:10014000F52B0000F52B0000F52B0000F52B00002F
:10015000F52B0000F52B0000F52B0000F52B00001F
:10016000F52B0000F52B000029260000F52B0000E0
:10017000F52B0000F52B0000F52B0000F52B0000FF
:10018000F52B0000F52B0000F52B0000F52B0000EF
:10019000F52B0000F52B0000F52B0000F52B0000DF
:1001A000F52B0000F52B0000F52B00003526000094
:1001B000F52B0000F52B0000F52B0000F52B0000BF
:1001C000F52B0000F52B0000F52B0000F52B0000AF
:1001D0005F4B4CF2205210B5DA814DF62812DA81CD
:1001E00000BF00BF02F00AFD5A4B4FF030621A63A5
:1001F000594A9A63594ADA634FF0E0234FF4700288
:10020000C3F8882D03F5E823554A1A60554B9A78B0
:10021000110703D59A7842F008029A70524B53485E
:10022000AA221A70524BDA1C121AC11E22F00302C3
:10023000994288BF00224F4902F0E6FB4E4B4F48DF
:10024000DA1C121AC11E22F00302994288BF002252
:10025000002104F01FF84A494A484FF4E87202F0BE
:10026000D3FB494B494A802103F8011B9342FBD140
:100270004FF0E023434AC3F8082D454B8A221A70F9
:10028000A3F5805324225A70A0221A709A799207FB
:10029000FCD59A79D406FCD43E4A937903F00C033A
:1002A000082BFAD1304B60225A70DA78802AFCD1C0
:1002B000384B01221A715D225A719A799006FCD549
:1002C0009A795106FCD5234A33495164002191643F
:1002D000202119702F498B7903F00C030C2BFAD1D4
:1002E0002E4B53602E4A136913F4807303D153616C
:1002F0004FF4A85313614FF0E0232A4A5A610022B9
:100300009A6107221A61284AC3F8202D62B602F0CA
:10031000F7FC234B5B69DA0705D5244802F0E4FCBF
:10032000234B244ADA61244B1B785B0609D5204C09
:10033000204BE2699A4204D11C4802F0D5FC00230C
:10034000E36102F061FC04F047F802F055FBFEE7C0
:100350000020054000800440823F04000100002B83
:100360000300008500D0074000E007403007FF1F72
:100370006812FF1F044E00009422FF1F6812FF1F27
:10038000000000000002FF1F00E400E064E400E061
:10039000005006400040064000000602C010070062
:1003A00000D003401FBF0200000020206516BD6979
:1003B00000E00340A5C3945A00F00740FFFFFFFF91
:1003C000FFFFFFFFFFFFFFFFFFFFFFFFFFFFFFFF3D
:1003D000FFFFFFFFFFFFFFFFFFFFFFFFFFFFFFFF2D
:1003E000FFFFFFFFFFFFFFFFFFFFFFFFFFFFFFFF1D
:1003F000FFFFFFFFFFFFFFFFFFFFFFFFFFFFFFFF0D
:10040000FFFFFFFFFFFFFFFFFFFFFFFFDEF9FFFF23
:100410000548064B1B1AD90F01EBA301491002D066
:10042000034B03B1184770476812FF1F6812FF1F84
:100430000000000008B5054B1BB105490548AFF3A6
:100440000080BDE80840FFF7E3BF00BF00000000E8
:100450006812FF1FFC4D000001207047002070470C
:10046000704700BF704700BF0020704700207047F2
:10047000704700BF01207047704700BF00224274E0
:10048000428281B310B584B00B780192029203923C
:100490009BB929E004ABBEF1090F03EB820407D836
:1004A00054F80C3C03EB83030CEB430344F80C3C83
:1004B00011F8013F63B1032A0AD0A3F1300C2E2BAF
:1004C0005FFA8CFEE6D111F8013F0132002BF2D128
:1004D0009DF804309DF808109DF80C204374817439
:1004E000C27404B010BD70471A461946F6E700BF43
:1004F000F8B50025044643610F461646294680F8A4
:10050000385080F87C5280F88053C0F88C55C0F881
:100510009C5BC0F8A05BC0F8A45BC0F8A85B80F847
:10052000AC5B112203F0B6FE10223946204603F0E0
:1005300003FF31462046FFF7A1FF2946202204F1A0
:10054000180003F0A7FE29464FF4107204F13C0096
:1005500003F0A0FE4FF48072294604F5207003F0EA
:1005600099FE2046F8BD00BF2DE9F0410546ADF5E6
:10057000047D0026686903685B6998470DF10701EF
:10058000012240B3686903689B69984701280446C3
:1005900020D19DF80720D5F88C3572B9002BE9D011
:1005A00005F2813842464FF4027102A801F05EFB69
:1005B0000746A0B9C5F88C05DCE7E918B3F5027F5A
:1005C00003F1010336BFC5F88C35C5F88C6581F899
:1005D0008123CFE700200DF5047DBDE8F08102A95D
:1005E00040463A4602F010FAC5F88C752046F2E70C
:1005F00030B504464069204D03681B6AAB4285B0A4
:1006000022D104F5F365134628460A464FF40171DA
:1006100001F0DCFAB0B16369024618682946056941
:100620001846A847606900238DF80F30036801223F
:100630001B690DF10F0198476069104A0368DB6977
:10064000934216D105B030BDCDE900129847DDE9DF
:1006500000120028D5D1606903681B69984760695A
:10066000064A0368DB699342ECD005B0BDE8304030
:1006700018479847E6E700BF7504000071040000C2
:1006800070B58B88012B86B00C46054622D98A6846
:1006900053781078042B46D8DFE803F03D030306B7
:1006A0004100012102F080FDA1788DF80A1048F286
:1006B000012205F5B2660023ADF808204FF402715F
:1006C00002AA3046ADF80C30049301F015FBD8B9FE
:1006D00006B070BD042289788DF8072048F20133F6
:1006E000012200F5B266ADF808308DF80A100DF160
:1006F0000703ADF80C204FF4027102AA30460493B0
:1007000001F0FAFA0028E3D0024631462846FFF706
:100710006FFF06B070BD002102F046FDC4E7022164
:1007200002F042FDC0E7052289788DF8072048F2E3
:100730000133012205F5B266ADF808308DF80A10D4
:100740000DF10703ADF80C204FF4027102AA3046F8
:10075000049301F0D1FA02460028B9D0D5E700BFD2
:1007600070B58A88012A86B00C46054627D98B6861
:10077000022A187859781DD09B78022B1CD000399A
:1007800018BF012102F0D8FCA1788DF80A1048F2B8
:10079000012205F5B2660023ADF808204FF402717E
:1007A00002AA3046ADF80C30049301F0A5FA00BB64
:1007B00006B070BD012923D902F01EFBE4E7042234
:1007C00089788DF8072048F20133012200F5B266DE
:1007D000ADF808308DF80A100DF10703ADF80C20C4
:1007E0004FF4027102AA3046049301F085FA002802
:1007F000DED0024631462846FFF7FAFE06B070BD4D
:1008000002F09AFCC0E700BF70B58B8886B00C463A
:100810000546002B38D08A68012B10780AD053780F
:100820008DF80400032B07D102F038F8C2B2C0F3F0
:10083000072307E08DF8040002F0A8FC021E18BF91
:100840000122002349F20110A1788DF8052005F559
:10085000B266ADF808008DF80630032201AB8DF8C2
:100860000A10ADF80C204FF4027102AA304604932E
:1008700001F042FA08B906B070BD0246314628467A
:10088000FFF7B6FE06B070BD042248F201338DF8C2
:1008900004208978ADF8083000F5B2660122DDE762
:1008A0002DE9F0418A88042A86B0054640F28F80FF
:1008B0008B6895F880439E78D87893F800E05F784D
:1008C000062A84BF93F804805B7946EA00268CBF31
:1008D00048EA03284FF00008002C00F0A1802B46C6
:1008E000002206E001325FFA82FCA44503F1100306
:1008F00038D293F880C2F445F4D193F88C020028E2
:10090000F0D048480068009005EB0213002E4FF02D
:1009100000020098A3F8862208BF6426C3F8880264
:1009200083F88172A3F88262A3F884828B78ADF891
:100930000C2048F2012105F5B2640492ADF80810CC
:1009400002AA4FF4027120468DF80A3001F0D4F962
:10095000002839D0024621462846FFF749FE06B056
:10096000BDE8F081102C4ED0621CD2B205EB04140D
:100970000023A4F88632ADF80C300493294B84F898
:1009800080E21B680193002E019BC4F8883208BFE7
:1009900064260123A4F8826284F88172A4F8848218
:1009A00084F88C3205F5B26685F8802348F201227E
:1009B0008B78ADF808204FF4027102AA30468DF80A
:1009C0000A3001F099F918BB06B0BDE8F0818978CA
:1009D00000F5B264042248F201338DF804200122AC
:1009E000ADF808308DF80A1001ABADF80C204FF4CB
:1009F000027102AA2046049301F07EF90028A9D1D1
:100A000006B0BDE8F081897805F5B2640B22E2E713
:100A1000024631462846FFF7EBFD06B0BDE8F081FF
:100A20000122A3E7641EFF1F70B58B8886B00646BF
:100A3000B3B38B6890F8804393F800E084B3034627
:100A4000002206E001325FFA82FC644503F11003E4
:100A500026D993F880C2F445F4D193F88C52002D36
:100A6000F0D006EB0212002382F88C3289788DF8E0
:100A70000A1048F2012206F5B264ADF808204FF4DE
:100A8000027102AA2046ADF80C30049301F034F94B
:100A900000B3024621463046FFF7AAFD06B070BDFE
:100AA000042289788DF8072048F20133012206F5E7
:100AB000B264ADF808308DF80A100DF10703ADF8F7
:100AC0000C204FF4027102AA2046049301F014F99D
:100AD0000028DED106B070BD70B5B1F804C0BCF11D
:100AE000010F8AB00C46054621D98B6890F8380072
:100AF0001A78597890421AD9063255F82200B0B1C6
:100B000002330393ACF102030493002305938DF8A1
:100B10000930A3788DF80830036801959E6903AA0F
:100B200001ABB0479DF809300BB30AB070BD082285
:100B3000A1788DF80C2048F20133012205F5B26648
:100B4000ADF818308DF81A1003ABADF81C204FF437
:100B5000027106AA3046089301F0CEF80028E4D0CE
:100B6000024631462846FFF743FD0AB070BDA17822
:100B70008DF81A1048F2012205F5B266ADF818207A
:100B80004FF4027106AA3046ADF81C30089301F00C
:100B9000B3F80028E4D10AB070BD00BF70B58A88F0
:100BA000012A8AB00D46044623D9886894F87C123D
:100BB000037899421DD903EBC30304EB830393F835
:100BC0005710002950D0DE6D019400230130013A06
:100BD00005938DF80930AB78039004928DF80830B6
:100BE00046B301A903A8B0479DF809300BB30AB07A
:100BF00070BDA97804F5B2660D2248F201338DF874
:100C00000C200122ADF818308DF81A1003ABADF8A6
:100C10001C204FF4027106AA3046089301F06CF8CC
:100C20000028E4D0024631462046FFF7E1FC0AB036
:100C300070BDAB788DF81A30002148F2012204F51E
:100C4000B265ADF81820ADF81C10089106AA4FF453
:100C50000271284601F050F80028C8D00246294603
:100C60002046FFF7C5FCC2E7A97804F5B2660E225C
:100C7000C3E700BF2DE9F0438B88012BADF5057D5F
:100C80000D4606464AD98B681978A1F108026F2AE9
:100C900044D8354C5A782046012301F0BDFB00288A
:100CA0005ED0002294F8A03094F8A19017469446A4
:100CB0000DF11008E1184B4503F1010E02F101029C
:100CC0003DBF097E5FFA8EF30127FF215FFA82FEA6
:100CD000BCF5007F3CBF08F80C100CF1010C8645F8
:100CE000E8D30FB184F8A0301FFA8CF0AB78ADF8E0
:100CF000040006F5B2648DF802306A464AF2010338
:100D00004FF402712046CDF80880ADF8003000F0B5
:100D1000F3FFE0B90DF5057DBDE8F08306228DF8FF
:100D2000002048F20132ADF8102006F5B26401222D
:100D3000AB78ADF814204FF4027104AA20468DF868
:100D40001230CDF818D000F0D7FF0028E2D00246CC
:100D500021463046FFF74CFC0DF5057DBDE8F083DC
:100D60000DF11008C2E700BF7407FF1F2DE9F04F17
:100D70008D88012DADF5077D0F46804640F2A58098
:100D8000624ED1F808A0F37A9AF8000073B372B6F5
:100D9000F37ADC0708D54FF0E024F168D4F880211D
:100DA0000A40C4F88021F261990708D54FF0E02489
:100DB0003169D4F884210A40C4F8842132625A0788
:100DC00008D54FF0E0247169D4F888210A40C4F8AE
:100DD000882172621C0708D54FF0E021B269D1F872
:100DE0008C311340C1F88C31B36262B63368484A23
:100DF000D968914207D047491960DA6002F1804210
:100E00001A61454A1A600021019002F095F94FF0ED
:100E1000000C3268019805F1FF3B012164460DF199
:100E200018094FF0004E8D4288BF1AF80130C2F801
:100E30002CE094BF002301315363D36A002BFCDA0A
:100E4000B4F5007F936B38BF09F804300CF1010C46
:100E500038BF0134E345E6D1012102F06DF9F37AA0
:100E6000DBB1D80704D54FF0E022F169C2F80011D8
:100E7000990704D54FF0E022316AC2F804115A07ED
:100E800004D54FF0E022716AC2F808111B0704D59F
:100E90004FF0E023B26AC3F80C21BB78ADF80C40E8
:100EA00008F5B2648DF80A3002AA4BF201034FF440
:100EB00002712046CDF81090ADF8083000F01CFF0C
:100EC000D8B90DF5077DBDE8F08F8B788DF81A3015
:100ED000012300F5B2648DF80830ADF81C3002AB88
:100EE000089306AA48F201334FF402712046ADF888
:100EF000183000F001FF0028E3D0024621464046AA
:100F0000FFF776FB0DF5077DBDE8F08F3407FF1F77
:100F10000540003801403F0000003F8030B58B881D
:100F2000042B87B004462ED98A681378507843EA98
:100F30000023A4F8A03B9378D27843EA022301224D
:100F4000A4F8A23B84F8AC2B002B3DD0204AB2FB86
:100F5000F3F20023C4F8A42BC4F8A83B8A788DF8D8
:100F60000A2048F2012104F5B265ADF8081002AA82
:100F70004FF402712846ADF80C30049300F0BCFE2B
:100F8000D8B907B030BD042289788DF8072048F21F
:100F90000133012200F5B265ADF808308DF80A1072
:100FA0000DF10703ADF80C204FF4027102AA284698
:100FB000049300F0A1FE0028E3D002462946204613
:100FC000FFF716FB07B030BD42F21072C1E700BF59
:100FD00040420F002DE9F0410546ADF5047D02F0D9
:100FE0001FF9D5F8A83BD5F8A42BC31A934225D3F3
:100FF0000024C5F8A80BA04604AF0DF1110601E0CE
:10100000102C18D0B5F8A03B234113F0010FE0B22B
:1010100004F10104F4D001F041FC08F10203B3F53E
:10102000007FEDD8C0F30722102C07F8080006F85F
:1010300008209846E6D1B8F1000F03D10DF5047DE4
:10104000BDE8F0814DF2010305F5B264ADF8003062
:1010500000238DF802306A4604AB4FF4027120463B
:10106000ADF80480029300F047FE0028E6D0024667
:1010700021462846FFF7BCFAE0E700BF2DE9F04F14
:10108000394B90F880231B6889B00393DDF80C80FE
:10109000CAB300260746344649F2010BB24603E0C4
:1010A0000136F4B2A2422ED907EB0415240195F8BB
:1010B0008C32002BF4D095F88132042BF0D1D5F886
:1010C0008832B5F88212A8EB03038B42E8D395F877
:1010D000800201F0E3FBB5F88632B5F884221FFAEE
:1010E00080F94B4534BFA9EB0303A3EB09039BB283
:1010F0009A420BD93C44C4F8888297F88023013681
:10110000F4B2A242D0D809B0BDE8F08F95F88022A1
:101110008DF808204FF003034FEA1922ADF8143080
:101120008DF80A2007F5B26302AA8DF8090006922D
:10113000184604AA4FF402710193ADF810B08DF86F
:1011400012A000F0D9FD019B38B93C44A5F8869265
:10115000C4F8888297F88023D1E7024619463846BA
:10116000FFF746FAF1E700BF641EFF1F2DE9F04FBD
:1011700085B0074603F064F91028054607F69C166B
:1011800028BF102504462A463946304601F03CFC6B
:101190000F2C40F2C181BA7C797CFB7C87F8AD29A9
:1011A0000822002487F8AC1987F8AE390DEB02014C
:1011B00007F6AF10CDE9024401F026FC402387F882
:1011C000B839A94D87F8B74923461D210FE0182AE1
:1011D0001AD814F0010F0CBF83228722B1F5007FCB
:1011E00003F101033CBF72540131402B0ED0D8B241
:1011F000A0F10E02D2B20A2B25FA02F4E7D8012898
:101200008CBF87228322E9E78322E7E7B1F5007FDD
:1012100011D24B1C0422B3F5007F725400F0798187
:101220000122B1F5FF7FF25401F1020400F069815F
:101230000223335503318C1CB4F5007F00F26A8120
:1012400000237354314402234B70B4F5007F97F8A8
:10125000383080F0588133550134002B68D04FF07E
:101260000009DFF814824B469A1D57F82250002DD2
:1012700056D0B4F5007F38BF33552B6828469B689D
:1012800038BF0134984704F1080BBBF5007F824654
:1012900011D803F0D5F808285146824628BF4FF0F0
:1012A000080A00905246301901F0AEFB009B072B54
:1012B00040F2D1805C462B686C4ADB68934240F078
:1012C00010810120B4F5007F80F0D88030552B6864
:1012D0001A69674B9A4204F1010440F00A81B4F59F
:1012E000007F4FF0000080F00A8130552B681A6AA9
:1012F000424504F1010440F0F9800020B4F5007F7C
:1013000038BF30552B685B495A6A38BF01348A426E
:1013100040F0C1801B6A43454FF0000B40F0C38092
:1013200097F8382009F101095FFA89F39A429BD8AE
:10133000B4F5007F97F87C323CBF33550134002B65
:1013400071D04FF0000A554604F1100905EBC501B4
:10135000B9F5007F4FEAC5084FEA810317D803F1BA
:101360003C01394408460193009103F069F81028C4
:101370000246009928BF102283463019009201F0DE
:1013800043FBBBF10F0FDDE900235AD94C46B4F5FE
:10139000007F40D208EB050207EB820204F1090B43
:1013A00092F84D203255BBF5007F04F1010915D8A4
:1013B00003F14E0139440846019103F041F8082831
:1013C0000246044628BF08220199009206EB090054
:1013D00001F01AFB072C009A2AD9D94608EB05031D
:1013E00007EB8303B9F5007F93F8572077D006F811
:1013F000092009F10104B4F5007F93F858200AD0C0
:10140000325509F10204B9F5FF7F93F859301CBF3A
:10141000335509F1030497F87C320AF1010A5FFAA7
:101420008AF5AB4290D8C7F89C4B05B0BDE8F08F69
:1014300009EB02003044C2F10802002102F02AFF49
:10144000CBE7A0183044C2F110020021009302F053
:1014500021FF009B9AE704EB0A00CAF1080230441E
:10146000002102F017FF25E7CD83E10159040000B8
:101470005D0400006D040000690400002B682A4927
:101480001A698A4235D11A6A42452FD15A6A274BC6
:101490009A423FF445AF284690472B681B6A434564
:1014A00083463FF43DAF4FF0000A284698475FFA65
:1014B0008AF398427FF634AFBBF1000F14D01BF8CB
:1014C0000330B4F5007F38BF33552B681B6A38BF33
:1014D000013443450AF1010A3FF422AFE5E74C46E7
:1014E00099E728469847EDE65B46EAE728469047A5
:1014F00004E728469047B4F5007FFFF4F6AE2B686A
:10150000C1E797F83830002B7FF4A9AE97F87C320A
:1015100015E719460C4698E6C5F11002002170192E
:1015200002F0B8FE37E600BF5D0400006D04000065
:1015300070B50546406903689B68984795F8382060
:10154000AAB100240C4E234605E095F8382001345A
:10155000E3B29A420BD9063355F823000028F6D09F
:10156000036845605B69B342EFD09847EDE72846D2
:10157000BDE87040FFF7FABD610400002DE9F04FAF
:101580008E88012E87B00F4681465DD9D1F808803C
:1015900098F80030A3F108026F2A55D8DFF8B4B0EC
:1015A00001245B008BF8A3308BF82E418BF82D4182
:1015B00006F1FF3A0025A6428CBF18F8041000215E
:1015C000584605F1010588BF013400F073FDAA45B6
:1015D000F1D12048012100F0A9FE09F5B264C8B19B
:1015E000B978072248F201338DF807200122ADF8BF
:1015F00008308DF80A100DF10703ADF80C204FF4F8
:10160000027102AA2046049300F076FBA0B907B04D
:10161000BDE8F08F48F20122BB78ADF80820ADF8A4
:101620000C00049002AA4FF4027120468DF80A3093
:1016300000F062FB0028EAD0024621464846FEF749
:10164000D7FF07B0BDE8F08FB97809F5B26406227C
:10165000C8E700BF7407FF1F2DE9F0478B88022BF6
:10166000ADF5047D0E46074664D98B6893F800807B
:10167000A8F108026F2A5DD84F4D597893F802A05F
:101680004FF0010908FA09F3284685F8A33085F8D8
:101690002E9185F82D9100F00DFD0021284600F0D7
:1016A00045FE0446002867D14B465246414628462F
:1016B00000F0B2FE00287BD095F8A03095F8A190FC
:1016C0002246A6460DF1100805EB030C4B4503F12D
:1016D000010102F101023DBF9CF818C0CBB24FF0EE
:1016E000010E4FF0FF0CD1B2B4F5007F3CBF08F8FB
:1016F00004C001348142E7D3BEF1000F01D085F868
:10170000A030A0B2B378ADF8040007F5B2648DF84C
:1017100002306A464AF201034FF402712046CDF8C6
:101720000880ADF8003000F0E7FAE0B90DF5047D6F
:10173000BDE8F08706228DF8002048F20132ADF8AE
:10174000102007F5B2640122B378ADF814204FF4ED
:10175000027104AA20468DF81230CDF818D000F09E
:10176000CBFA0028E2D0024621463846FEF740FF79
:101770000DF5047DBDE8F087B3788DF812300722AF
:1017800007F5B2648DF8002048F2013304AA4FF443
:1017900002712046ADF81490CDF818D0ADF8103095
:1017A00000F0AAFA0028DED10DF5047DBDE8F0872F
:1017B0000DF11008A6E700BF7407FF1F30B54B7886
:1017C000722B87B004467AD8002B00F0C580013B0D
:1017D000712B00F2C180DFE813F0E8000301BF00C5
:1017E000BF00BF00BF00BF00BF00BF00BF00BF0001
:1017F000BF00BF00BF00BF00FE00280123011E0183
:101800001901BF00BF00BF00BF00BF00BF00BF0085
:10181000BF00BF00BF00BF0014010F01DE00BF000A
:10182000BF00BF00BF00BF00BF00BF00BF00BF00C0
:10183000BF00BF00BF00BF00D900BF00BF00BF0096
:10184000BF00BF00BF00BF00BF00BF00BF00BF00A0
:10185000BF00BF00BF00BF00F900BF00BF00BF0056
:10186000BF00BF00BF00BF00BF00BF00BF00BF0080
:10187000BF00BF00BF00BF00F4003201BF00BF00C7
:10188000BF00BF00BF00BF00BF00BF00BF00BF0060
:10189000BF00BF00BF00BF002D01E300EF00BF008D
:1018A000BF00BF00BF00BF00BF00BF00BF00BF0040
:1018B000BF00BF00BF00BF00A300A300A300F02B28
:1018C0004AD190F8803363B1013BD8B204F11002E1
:1018D00002EB00122346002083F88C02103393425F
:1018E000FAD1002384F88033C4F88C35897804F564
:1018F000B26548F20122ADF808208DF80A1002AA5C
:101900004FF402712846ADF80C30049300F0F4F95E
:1019100000B3024629462046FEF76AFE07B030BDF6
:10192000897800F5B2650F2248F201338DF807205F
:10193000ADF8083001220DF107038DF80A10ADF85B
:101940000C204FF4027102AA2846049300F0D4F947
:101950000028DED107B030BD8A788DF80A2048F221
:1019600001310DF1070004F5B2650123ADF808104F
:10197000049002AA4FF4027128468DF80730ADF8A2
:101980000C3000F0B9F90028E4D0C2E707B0BDE898
:101990003040FFF7EBB907B0BDE83040FFF75CBE61
:1019A000897800F5B2650D22BEE7897800F5B26549
:1019B000002348F201029EE7897800F5B265002312
:1019C00097E707B0BDE83040FFF7A8BA07B0BDE819
:1019D0003040FFF781B807B0BDE83040FEF750BE99
:1019E00048F20113ADF808308978D0F89C2B00F547
:1019F000B26500F69C13A0E707B0BDE83040FFF7E2
:101A000039B907B0BDE83040FFF7B8BD07B0BDE851
:101A10003040FFF709B807B0BDE83040FEF740BFDF
:101A200007B0BDE83040FEF7EFBE07B0BDE830407C
:101A3000FEF796BE07B0BDE83040FFF7AFB8002311
:101A400080F8AC3BA0F8A03B50E700BFF0B50546DE
:101A5000406903688BB0DB68984768B36869584988
:101A600003685A6A8A423CD11B6A564A93423FD164
:101A70002846FEF779FD28BB95F8AC3BF3B928461C
:101A8000FFF7FCFA95F83820B2B100244E4E2346F9
:101A900002E0E3B29A420FD90633013455F823002D
:101AA0000028F6D00368DB69B342F2D0984795F876
:101AB0003820E3B29A42EFD80BB0F0BD2846FFF7CA
:101AC00089FADCE7D5F88C2505F2813102A800F00F
:101AD00059F9002856D0042834D00023C5F88C3595
:101AE000CAE790476869374A03681B6A9342BFD0C8
:101AF00098470028BCD1686903685B699847021E53
:101B0000BADDD5F88C156869C1F502760368B24272
:101B100005F2813428BF32469B692144984700284A
:101B2000C9BFD5F88C35D5F88C25C218C5F88C25D9
:101B3000072AA1D9214602A800F024F9064630B3AD
:101B4000042899D1022248F2013300218DF80720A0
:101B500005F5B2640122ADF818308DF81A100DF1B8
:101B60000703ADF81C204FF4027106AA2046089323
:101B700000F0C2F802460028AFD021462846FEF702
:101B800037FDAAE702A92846FFF718FEA5E702A934
:101B90002846FFF713FEBDF80C70D5F88C250837E2
:101BA000BA4202D8C5F88C6566E7D21BE119204617
:101BB00002F0F4FAD5F88C35DB1BC5F88C355BE701
:101BC000790400007504000065040000002844D07A
:101BD00092B393B3F0B5244C5D08A4FB05455C1C9F
:101BE00004EB95148C423BD84FF0010E013AF446B9
:101BF000002571460AE000F805C00D464FF0010CC3
:101C0000394673450EF1010412D9A64612F8014F68
:101C10000CF101064F1C002CEDD05FFA86FCBCF1E4
:101C2000FF0F44540CD0734539460EF10104ECD833
:101C300000F805C00846F0BD6BB941B908467047C9
:101C400000F805C002313D464FF0010CD9E70121F3
:101C50000170084670471146F0E701460846704794
:101C600000210846F0BD00BF0904028178B372B3B9
:101C70006BB32DE9F0478046002005468146575D4D
:101C80006E1C02EB050E67B37C1EE4B204EB060C7F
:101C90009C4526D804EB000C8C4522D854B3BE1EBC
:101CA00000F1FF3CF6B208EB000AC444B2441EF84F
:101CB000014F0CF8014FD445F9D102350130FF2F07
:101CC0003544304405D0AB420ED8BDE8F087002043
:101CD0007047AB42F9D9575D6E1C02EB050E002F21
:101CE000D2D10020BDE8F0878842FAD208F80090EF
:101CF0000130C4E73546E6E7844600283DD0002A97
:101D00003BD090880830814237D330B544234321FB
:101D10008CF800108CF8013013788CF8023053786E
:101D20008CF8033093788CF8043093888CF8053065
:101D300093881B0A8CF80630948874B1956865B155
:101D4000002300E0956899B20CEB0104695CE17135
:101D50009488013399B28C42F4D80CF1060E084DE8
:101D60000CF10102A644002312F8011F4B409645D6
:101D7000EB5CF9D16444E37130BD0020704700BFD3
:101D800098480000002836D0002934D0072A38D9D6
:101D90000B78432B2DD14B78442B2AD130B58B783F
:101DA0000370CC7844700C7984704C798D79012B58
:101DB00044EA0524848020D104F108039A421ED30A
:101DC0000CB3CB1D01F1060E104D83604A1CA644D6
:101DD000002312F801CF83EA0C037245EB5CF8D1C3
:101DE0002144CA799A4215BF02730373042000206C
:101DF00030BD0220704701207047032030BD052010
:101E000030BD052070472346DCE700BF984800003E
:101E100010B50446806818B10368E168DB6998472B
:101E20000120207410BD00BF007C7047406803682B
:101E30005B681847406803681B691847F8B5174680
:101E4000B2B106464D1E00240AE0706803685B6963
:101E50009847031E0ADB0134A74205F8013F07D06B
:101E6000706803681B6998470028EED12046F8BDCA
:101E70003846F8BD40680368DB68184701207047A2
:101E8000704700BF10B51421044600F005FF20463E
:101E900010BD00BF0148FFF74BBB00BF8012FF1F02
:101EA0000148FFF7D3BD00BF8012FF1F10B50C4CD7
:101EB0000C4820600C4860604FF4E1300023E06083
:101EC0000A4A0B49A3602046237402F04DF92346C9
:101ED000084A09490948BDE81040FEF709BB00BFA0
:101EE000301EFF1FB4490000700CFF1F3007FF1F9A
:101EF000811E000098490000A04900008012FF1FC9
:101F000090F81CC04160BCF1020FC26001D183682F
:101F1000184700F095BB00BF70B4826B4B4B127931
:101F2000DA77426B12791A77826B12791A77026B21
:101F30002AB34368DB689A4244D9446B816BD21A56
:101F4000236802631D6800F12C04A5424FF00102D2
:101F50005AD00468E56815F0804F1D682AD12D78A5
:101F60001E6845F0004501361E606563374B0979F0
:101F7000D97612B1426B1279DA7670BC704701687B
:101F8000334CC36B0A63CC62CC6824F08044CC60D1
:101F90001C68304924684FF0030C8C4280F82DC037
:101FA0003AD1197F5A600229DA603AD170BC9A6836
:101FB000184610472D881E6845F0004502361E6001
:101FC0006563D3E7436B1B68DC8B260402F1FF31AA
:101FD00033D4C1F30E01D983DC8B816BA4B2DC82D4
:101FE0000C68E58B2D0420D4C2F30E05E583E58B48
:101FF000ADB2E5821D680024013A046300F12C04AF
:1020000018BF0122A542A4D10368DC6890F82C40D7
:1020100044F000445C63A9E718461146234670BCAF
:10202000184770BC184600F00BBBE58BC2F30806DE
:1020300005F47E453543E583D9E7DC8BC1F3080120
:1020400004F47E442143D983C6E700BF00800040EA
:1020500000000FFF011F000008B50248FFF75CFFFA
:1020600008BD00BF3407FF1F0020704790F8A12073
:1020700090F8A000101A704790F8A03090F8A120B6
:102080009A4205D95A1C034480F8A020187E704754
:102090004FF0FF30704700BF90F8A03090F8A120BB
:1020A0009A4286BFC018007E4FF0FF30704700BFD5
:1020B000704700BFB0F82E312BB190F82D31882B2E
:1020C00003D90123436000207047C218013380F810
:1020D0002D31012082F8A310704700BF38B5B0F849
:1020E0002E41A4B190F82D31C3F18904A24284BFDE
:1020F00001224260054698BF1446A3301844224688
:1021000000F082FC95F82D31234485F82D312046CE
:1021100038BD00BF38B50369DA78D5B2D2060446B7
:1021200022D51022DA706B061DD515F0040567D094
:102130004249D4F8342100230B7084F82D31002A51
:1021400072D0904794F82D31002B6DD02369D022A6
:102150009A70236994F8A3201A712369012284F8E4
:102160002C210222DA7038BD15F0400CDDD19A79AD
:1021700002F060016029D2B231D09A7812F01002D8
:1021800016D015F0010548D194F82C2194F82D11A2
:10219000914250D9511C224484F82C1192F8A3206A
:1021A0001A712369D0229A7023690222DA70DAE761
:1021B00084F830219A7942F020029A71236994F8C8
:1021C000A1101A798729D2B2CBD81C4800780028F0
:1021D000C7D0481C214484F8A1000A76C1E702F068
:1021E000DF029A71D0F8383123B190F8A10084F859
:1021F000A0C0984723699A7812F01002D8D0C0E79F
:10220000236984F8A150C0229A700C4A23690121E5
:10221000117002221879DA70A5E7C0229A7023693A
:102220001A790222DA709EE70122002384F82D2118
:1022300084F8A3308AE71D71B3E700BF441EFF1F77
:102240002DE9F047374C0269236882B00093DDF82E
:102250000080D378990618D5334E0546002102E058
:10226000D3789B0611D523680193019BA3EB080348
:102270000F2BF5D969B1102BF2D0002090702B698B
:1022800080229A7002B0BDE8F087012002B0BDE85C
:10229000F08795F831216B6913440521187A00F015
:1022A00083FF6B6995F831211344012193F812A043
:1022B000504600F079FF09274FF4967900215046E7
:1022C00000F03AFF4B46013BFDD10121504600F0A2
:1022D00033FF4B46013BFDD1013FEFD1696995F8D2
:1022E00031310B444FF41672187A5B7B06EBC00059
:1022F0001B02406803F4E06343F06403036095F855
:1023000032310B44997CDB7D06EBC1011B0249682D
:1023100003F4E06343F064030B60013AFDD1012153
:102320002A699DE7641EFF1F604B0000F0B503693A
:102330001222DA700269937813F0200685B0044601
:102340000D4652D0B4239370324920690B68009334
:10235000009E05E00A680192019A921B042A3DD86A
:10236000C37813F02003F5D094F82D316BB34FF000
:10237000000CE646022604EB0E0393F8A33003712B
:102380000B680293029F206907E092060AD50A684B
:102390000392039AD21B052A20D8C378DAB213F02D
:1023A0000203F2D0C6702369DA78D7B2D206184693
:1023B00026D4BA0624D5FA0726D494F82D310CF188
:1023C000010C5FFA8CFE7345D5D8002015B1236946
:1023D00080229A70002384F82E3104E083702369F0
:1023E00080229A70042005B0F0BDFFF729FF28B1C4
:1023F000236984F82F61B0229A70A5E70420F2E7E0
:1024000080229A700420E1E7BEF1000F0CBF022089
:102410000320DDE7641EFF1F2DE9F0479046994633
:1024200000220369A0F8A0201222DA7003699C78C8
:1024300014F0200588B007468A4600F0A280B42236
:102440009A70724E3B6932680092009A08E03068D8
:102450000190019CA4EB020CBCF1040F00F28980F6
:10246000DC7814F02005F2D04FEA4A0242F0010273
:10247000D2B21A713368029302983A6906E033685F
:1024800003930399091A052900F28580D47814F082
:102490000205F4D04FF0020C82F803C03B69DC78EF
:1024A00014F011057FD1B8F1000F00F08780B8F16A
:1024B000010F00F09080A0229A7039690B794FF0DB
:1024C000A80E33680493049805E032680592059AD3
:1024D000121A052A6BD8CB7813F00203F5D081F8D5
:1024E00003C03969CB78DCB2DB0608460A4644D41F
:1024F000A40642D508F1FF385FFA88F8B8F1010F59
:1025000004D181F802E0396908460A46872D5CD972
:102510000379B8F1010FD4D133680693069805E02A
:10252000316807910799091A052959D8D37813F00A
:102530000203F5D00223D3703A69D378D806D9B212
:1025400058D48B0619D5B023872D93704FD83A698C
:102550007C19127922766B1CDDB200BF00BF00BF70
:10256000B9F1000F02D03B6980229A7087F8A15020
:1025700003E09D703B6980229A70284608B0BDE850
:10258000F087FFF75DFE0028F7D03B6987F82F51F1
:10259000B0229A7055E795703B69802228469A7060
:1025A00008B0BDE8F08780229A700025E5E78B70BF
:1025B0003B6980229A7087F8A150DEE7B9F1000FDD
:1025C00014BF8022A0229A70D7E77B190079187671
:1025D0006C1CE5B29DE7A8229A703A6913799BE7D3
:1025E00093703B6980229A7087F8A150C5E73B69D8
:1025F0001B79B2E710214FF49673D170013BFDD1E6
:102600003A69937803F0F7039370B6E7641EFF1FEF
:102610000148FFF77FBD00BF7407FF1F0148FFF7A8
:1026200079BD00BFB008FF1F0148FFF773BD00BFB1
:10263000EC09FF1F0148FFF76DBD00BF280BFF1F0E
:10264000EFF3108272B6437F5BB9017F012930B48A
:102650000BD0032913D00123437702B962B630BCF3
:1026600070470AB962B670477047124C2168B1B121
:10267000114943610B68836108605861EBE70F4DB6
:102680000F492C688CB143610B68836158614FF02E
:10269000E0234FF080540860C3F8044DDBE7064B9D
:1026A0004161816120601860D5E7446184612860E0
:1026B000EDE700BF481EFF1F581EFF1F501EFF1FE3
:1026C0004C1EFF1F70B5EFF3108272B60C4C2068E1
:1026D00080B10C4E00254369236073B19D6102B93E
:1026E00062B6836845779847EFF3108272B6206828
:1026F0000028F0D102B962B670BD3360EFE700BFC9
:10270000501EFF1F4C1EFF1FFFF7DCBF024A13685D
:1027100001331360704700BF641EFF1F38B52A4C99
:102720002A4D01E001F03CFC636A1B06FAD46B6A97
:1027300013F08003F6D172B625490A78002A40D0FA
:10274000A26BE06B0244206C0244606C0244A06CFB
:102750000244E06C0244C2F34E0242F40042E262E0
:10276000A26DE06D0244206E0244606E0244A06ED1
:102770000244E06E0244C2F34E0242F4004222637D
:10278000AA6BE86B0244286C0244686C0244A86C93
:102790000244E86C0244C2F34E0242F40042EA6290
:1027A000AA6DE86D0244286E0244686E0244A86E69
:1027B0000244E86E0244C2F34E0242F400422A632D
:1027C0000B7062B638BD00BF00B0034000B00B40D4
:1027D000601EFF1F2A4B2B4A6020E12118705970A0
:1027E00013782948082B34D00A2B20D00C2B274BE8
:1027F0000CBF35215D2112228160C2609960DA60D0
:10280000234B21491B78214ACBB101230B62136270
:10281000204B1D491B781D4A012B13D9042B1BD8B3
:1028200084234B6253621C4B01221A707047174B72
:10283000392113228160C2609960DA60E0E70B629F
:102840001362E5E780234B625362134B01221A7037
:1028500070470E4B2121ECE7082B06D885234B62ED
:1028600053620D4B01221A707047102B94BF8623C0
:1028700087234B625362084B01221A70704700BFD6
:1028800000400740640CFF1F00B0034000B00B4045
:102890005E1EFF1F650CFF1F601EFF1F472829D803
:1028A000304B2DE9F0411E5CFF2E53D02E4B1B7890
:1028B00013BB340624D472B62C4C2D4D01272E6048
:1028C000277062B672B62B68180609D42378002BDD
:1028D000F5D062B601F064FB72B62B681906F5D527
:1028E000234A00231069237062B6224B1B781841DB
:1028F000BDE8F08100207047FFF710FF3406DAD5FD
:1029000072B61D4D1D4C06F04008012706F03F062B
:10291000E368B8F1000F20D023F01003E3602660D5
:102920002F7062B672B623681A0609D42B78002B72
:10293000EED062B601F034FB72B623681B06F5D503
:102940000E4A002310692B7062B60A4B1B7818419F
:10295000BDE8F0810020BDE8F08143F01003E360A2
:10296000DDE700BF184B0000601EFF1F5C1EFF1F4D
:1029700000B003405F1EFF1F5D1EFF1F00B00B4035
:102980000B4A0C49D36A43F48053D3620B784BB1A2
:10299000094B802283F82120074B80F30C0000B202
:1029A00018807047044BC02283F82120F4E700BF51
:1029B000008004405E1EFF1F00C00C400B4A0C4903
:1029C000D36A43F40053D3620B784BB1094B802296
:1029D00083F82120074B80F30C0000B21880704769
:1029E000044BC02283F82120F4E700BF008004409C
:1029F0005E1EFF1F00D00C4008B5FFF74BFAFFF733
:102A00004FFA01F0CDFAFAE701B441EA000313F0FE
:102A100003036FD1403A41D351F8043B40F8043BE3
:102A200051F8043B40F8043B51F8043B40F8043BA8
:102A300051F8043B40F8043B51F8043B40F8043B98
:102A400051F8043B40F8043B51F8043B40F8043B88
:102A500051F8043B40F8043B51F8043B40F8043B78
:102A600051F8043B40F8043B51F8043B40F8043B68
:102A700051F8043B40F8043B51F8043B40F8043B58
:102A800051F8043B40F8043B51F8043B40F8043B48
:102A900051F8043B40F8043B403ABDD2303211D3E8
:102AA00051F8043B40F8043B51F8043B40F8043B28
:102AB00051F8043B40F8043B51F8043B40F8043B18
:102AC000103AEDD20C3205D351F8043B40F8043BE8
:102AD000043AF9D204320AD0D2071CBF11F8013BE4
:102AE00000F8013B03D30B7803704B78437001BCB3
:102AF000704700BF0C2A4AD310F0030311D0C3F172
:102B00000403D21ADB071CBF11F8013B00F8013B9C
:102B100007D311F8013B00F8013B11F8013B00F825
:102B2000013B11F003033FF475AF30B4043AC91A06
:102B3000C3F1040C51F8044B022B19D0032B0BD01A
:102B4000240A51F8043B1D0644EA050440F8044BEE
:102B50001C46043AF4D216E0240E51F8043B1D0240
:102B600044EA050440F8044B1C46043AF4D20AE057
:102B7000240C51F8043B1D0444EA050440F8044BBE
:102B80001C46043AF4D20432B1EB0C0130BC043AD6
:102B9000A0D3013A11F8013B00F8013BF9D20B78C0
:102BA00003704B7843708B78837001BC704700BF13
:102BB00008B50F4C636B58030DD4636B59050FD4E4
:102BC000636B1A0511D4636BDB04F3D500F012F8C4
:102BD000636B5803F1D500F001FC636B5905EFD529
:102BE00000F008F8636B1A05EDD500F003F8EAE78A
:102BF0000080044008B5FFF7DBFF00BF014B102247
:102C00001A80704700200540704700BF0B490A68D2
:102C100048B108B5EC461318ACF50050834204D215
:102C20000B60104608BD1046704701F0CFFB0C2327
:102C30004FF0FF320360104608BD00BF680CFF1F55
:102C4000074BDA78802A01D00020704705490648F2
:102C5000486400225A70DA78802AFCD0012070473C
:102C600000E007400080044000002822074BDA788B
:102C7000012A01D00020704760225A70DA78802A39
:102C8000FCD1034B034A5A640120704700E007401F
:102C9000008004400000060201F06CBA10B4114B31
:102CA00053F8302092F8804234B10123A9B182F860
:102CB00080305DF8044B704703EBC0035B681A6813
:102CC00029B922F002025DF8044B1A60704742F005
:102CD00003025DF8044B1A60704782F800315DF81A
:102CE000044B7047604B0000034B002210215A61D7
:102CF0005A6018605961704700D00340704700BFA8
:102D00004FF0E02C2DE9F0414FF00068CCF8048141
:102D10004FF08058CCF804814FF00058CCF8048173
:102D20002F4A3049304C314D314E4FF08048CCF86D
:102D30000481282300204EF6FF7E09274FF000482B
:102D4000CCF804814860C1F808E0CB604B61CB61EE
:102D50004B62CB624B63CB634B64D3605361D361F3
:102D60005362D3625363D36353640F606860C5F8E2
:102D700008E0EB606B612F606060C4F808E0E3601E
:102D8000636127605060C2F808E0D3605361176048
:102D9000F16A41F40071F162716802F5803241F02C
:102DA0000071716047F6FF740821506082B0946032
:102DB000D36053611160FFF70DFDFFF79FFF0D4CCE
:102DC00023680093009B132BFAD900F0C1FE2368FF
:102DD0000193019BB3F5967FF9D302B0BDE8F08172
:102DE00000900B400080034000800B4000900340A7
:102DF00000800440641EFF1FA0F14202012A034626
:102E000025D910B5934A002992F800E040F3958047
:102E1000012202FA0EF0814228D2A3F1020CBCF189
:102E2000240F3CD8DFE80CF06B74743B3B6B6B3BBE
:102E30003B3B3B3B6B3B82823B3B3B3B3B3B3B3B24
:102E40003B3B3B7B7B3B3B3B3B6B6B6B6B00814A78
:102E500010780B2895BFC0F10C000C3801FA00F077
:102E600041FA00F0422B51D0FFF7A8BD3F2B15D8F7
:102E7000794951F8330090F8804201EBC301002CEE
:102E80007AD04B6880F880204FF4A272012180F83C
:102E900080121A601A6822F020021A6010BD6F4A70
:102EA000926802FB011222FA0EF2BCF1240F69D8DB
:102EB000DFE81CF02A0123011C0115010E010701A6
:102EC0000001F900F200680068006800EB0068008B
:102ED000E400C80068006800C100BA00B300AC009C
:102EE00068006800680068006800A5009E0068002F
:102EF0006800680068009700900089008200584AC6
:102F0000926802FB011222FA0EF2CEE7FFF738BDFB
:102F1000544A926802FB011222FA0EF2C5E7524AA5
:102F2000926802FB011222FA0EF2BEE74F4A926843
:102F300002FB011222FA0EF2B7E73F28AED8464A4A
:102F400052F8301091F8800202EBC30270B10120F8
:102F5000536881F800014FF4A272012081F88002C9
:102F60001A601A6822F020021A6010BD53681A68AD
:102F700022F002021A60EEE74B681A6842F0030280
:102F80001A6081E73F2B89D87F291846D4BF0021DA
:102F90000121FFF783FE304B03EBC00253F83010E2
:102FA000536801244FF4A27281F880421A601A68B3
:102FB00022F020021A6010BD29482D4B82644FF484
:102FC0005171D96210BD2648294B02644FF45171EA
:102FD000996210BD2248264B82634FF451715962A9
:102FE00010BD1F48224B02634FF45171196210BD8E
:102FF0001D48204B82614FF45171D96410BD1A48AD
:103000001C4B02614FF45171996410BD1348184B69
:10301000826140F24441996010BD1048144B026136
:1030200040F24441596010BD0C48134B026440F219
:103030004441996110BD09480F4B826340F24441FD
:10304000596110BD09480B4B826140F244615960DF
:1030500010BD00BF6C0CFF1F604B000000800340E0
:1030600000900B400090034000800B4000900C400B
:1030700000B0044000A0044000C004402648274B94
:10308000026140F24461196010BD2548254B826100
:1030900040F24441596010BD2348244B826240F203
:1030A0004441196110BD2048204B026240F2444166
:1030B000D96010BD1A481B4B826240F24441D9606E
:1030C00010BD1748174B026240F24441996010BD91
:1030D0001548144B026340F24441196110BD124877
:1030E000104B826440F24441D96110BD1048114B2D
:1030F00082614FF45171596310BD0D480D4B02614F
:103100004FF45171196310BD0548064B026140F23E
:103110004441196010BD00BF00900C4000A0044065
:1031200000900B4000C004400080034000B0044009
:1031300000900340009004403F2818D810B4124B70
:1031400053F8302092F8804234B1012381B982F8DB
:1031500000315DF8044B704703EBC0035B681A68ED
:1031600059B142F003025DF8044B1A607047704792
:1031700082F880305DF8044B704722F002025DF85F
:10318000044B1A60704700BF604B00003F2806D810
:10319000044B53F8303093F80002C0B2704700205F
:1031A000704700BF604B00003F2820D81B4A02EB4D
:1031B000C00301295B680FD004291DD052F83000EC
:1031C000002280F8802299B1022922D003290DD152
:1031D0004FF481721A60704752F830004FF4A272B7
:1031E00080F880121A601A6822F020021A60704774
:1031F0004FF480721A60704752F830104FF4A27288
:10320000012081F880021A601A6842F020021A60D8
:10321000704740F203121A60704700BF604B000015
:1032200072B60E494FF0E02293690868D2F8042D77
:1032300062B6520102D5322B88BF0130C3F52F335D
:10324000074A03F21F334FF47A719B08A2FB032352
:1032500001FB00F000EB9300704700BF641EFF1FEE
:10326000176CC116431E032B16D872B60B4951F8C2
:10327000230078B130B40A4CB0F800C034F8132001
:10328000456841F82350A2EB0C0224F8132062B6E3
:1032900030BC704762B6704700207047F81EFF1FB1
:1032A000481FFF1F013803280BD872B6074B53F88D
:1032B000203043B100205B680130002BFBD162B6A7
:1032C0007047002070471846F9E700BF201FFF1F16
:1032D00010B472B61A4A1B4C042312F8011B0907DA
:1032E00043F0010C05D554F8331069B154F83C1083
:1032F000C9B10433142BF0D162B6134B00221A70FB
:103300005DF8044B00F0AEBC0F4904EBC30208307B
:1033100050600A780D4844F83300013A0A7062B6EA
:103320005DF8044B7047084A094904EBCC030830A8
:103330005860137844F83C10013B137062B6EFE715
:10334000DC4D00000000FF1F501FFF1F88004000E1
:10335000C8004000421E032A0ED81C4B400140F01A
:10336000100010B4034472B6194CA05C03281DD899
:10337000DFE800F01416031970470520A05413F07D
:10338000080F088814BFC8228822083142EA004288
:1033900059601A6062B65DF8044B70470320EDE790
:1033A00008330220EAE708330420E7E7094B53F823
:1033B000220038B1084B53F82200416043F8221034
:1033C00062B6E8E743F82210034BF7E70000FF1F5F
:1033D000401FFF1F201FFF1F301FFF1F2DE9F04F51
:1033E000DFF80CA3DFF80CB385B03DE0B04D9E08CC
:1033F00005EBC607013A796813F00803D4B2A1F1CE
:10340000080040F0B88055F836204FEA124C120CF4
:1034100021F808CC00F0A78021F8063C41F8043CD4
:10342000A44B53F82420002A00F00182A24B53F849
:103430002420506043F82400A04B33F81420944417
:1034400023F814C000F0EEFB002800F0E98117F02B
:10345000080F9B4B00F1080018BF5B46786045F8E9
:10346000363008238AF880309AF880305907DCB269
:103470001BD5944B1B78ABB193490A7802F0FF033C
:103480002AB1013BDBB20B70002B00F046838F4961
:103490000A7802F0FF032AB1013BDBB20B70002B6C
:1034A00000F0EB8104238AF8803014F0080200F069
:1034B000CC819AF89020D3B2120997D1DFF8F0911D
:1034C0009B0809EBC30459F833006468C0F3830018
:1034D00009287CD00FD80138012808D87C4A1588E3
:1034E00042F22100854200F0FB8149F833B001230C
:1034F0008AF89430B5E70D28F9D1D4E90007754D65
:1035000049F833B0724E744CC9F8102083B240F2BF
:10351000816CC9F818202A6063454FF00102C6E9A2
:103520000007227000F2FF80B3F5D06F80F0CB82ED
:10353000B3F5817F00F0268240F2DE8040F2023255
:1035400093427BD107F07F07042F00F20881020C21
:1035500040F00581614911F8273043F0020301F87A
:103560002730134670E017F0080F554B18BF5B4625
:1035700045F8363075E700F075FB5949594A51F85E
:103580002430002B00F05781586841F82400115D69
:1035900003F108007860032905D8DFE801F0120F75
:1035A0001502042111551A8817F0080F14BFC823FB
:1035B000882343EA024345F8363052E70221115589
:1035C000F1E703211155EEE705211155EBE7414DD8
:1035D0002A683AB34449404C0F88444894F800E0C4
:1035E0000678402F3B4628BF4023BEF1000F8EF0E7
:1035F000010E84F800E046F0020486F00106067031
:1036000009EBC400426014BFC820882040EA034090
:103610001A44FB1A9BB249F834000B80002B00F0CF
:1036200036812A602A4B1A88B2F5A06F7FF45FAF0B
:103630009A788AF8982000225A7058E7B3F5A06F5C
:1036400040F08D8000221346B6F806C02748944506
:1036500028BF944667460278402F28BF402742F093
:10366000020E3E0409EBCE0846F0C806C8F8043046
:1036700049F83E6000263B442670BCEB070782F009
:103680000106067040F01181BCF13F0F4FF00105BB
:1036900009D946F00206027009EBC6022570536094
:1036A000882349F8363001238AF894301FE700BF99
:1036B0000000FF1FF81EFF1F081FFF1F481FFF1FEE
:1036C00088004000441FFF1F451FFF1F701FFF1F82
:1036D000181FFF1FEC1EFF1FE91EFF1FC020074021
:1036E000201FFF1F401FFF1FEA1EFF1FE81EFF1FB6
:1036F00000200740C8004000802B00F08B81822B07
:103700002DD107F07F07042F29D8A74A0023138063
:10371000A64B13F827309F0740F1FC81012313705B
:10372000A14B022290E742F2210C6345BBD01DD988
:1037300042F2212293420DD1BFB2002F82D19C4B85
:103740001A689C4B1A609C4BC0F30740002218700B
:10375000134679E742F2213293423FF473AF0F23CD
:103760008AF8C03001238AF89430C0E6B3F5086FB8
:1037700000F04A81B3F5106FF1D1904BC0F30740D0
:103780000425187059F835301A0606D40135142D61
:103790000CD059F835301A06F8D509EBC5030135B8
:1037A0005868083800F05EFA142DF2D1844A854B2F
:1037B0000292854A0192854E854ADFF84882039439
:1037C000009200251C4656F8047B2FB138467F68CE
:1037D00000F048FA002FF9D1009BD8F8007043F8A8
:1037E000045B46F8045C00932FB138467F6800F014
:1037F00039FA002FF9D1029B48F8045B43F8045BC7
:103800000293019B23F8025B01932378023B032B75
:1038100000F20981DFE813F03F0104013F010401D8
:103820006C4A45F8360013780133137019E643F8F3
:103830002400674BFEE5115D022926D07FF611AE0C
:1038400003291DD1012313550BE6E0076ED4210691
:1038500021D4A20708D5604B93F888200221D2B268
:1038600083F8882083F88010E30603D55A4B102292
:1038700083F8802005B0BDE8F08F00F06DFB11E605
:1038800017F0080F14BF032302231355E9E53F2F58
:1038900098BF0022C5E6504B80220D2183F8C0104E
:1038A00083F88020A207DFD5D5E746F00206027034
:1038B000402F09EBC6003A4628BF4022436010045F
:1038C000134440F088000121BA1A49F836002170EB
:1038D00055D02B60414B1A8001238AF8943006E6BC
:1038E00092885AB93E4AE51D14F8011B02F8011FDF
:1038F000AC42F9D13B4A1268862A3CD03A4C3B484C
:1039000025780278002D85F00105257042F002042B
:1039100082F00102027009EBC4024FF00000506017
:1039200014BFC822882249F83420DEE52A4B2F48EC
:103930002F49304C022583F8945002702E480C60B9
:103940002E4D48608C600D24CD60FF200A618A6195
:1039500083F8C04001219F2483F8880083F8800009
:1039600083F8982083F88C0083F8844083F89410BF
:1039700005B0BDE8F08F224A0F201070BEE73F2F40
:10398000A7D890E607F07F07042F3FF6E8AE000CBB
:103990007FF4E5AE054A12F8273023F0020302F85F
:1039A0002730002213464FE6F01EFF1FC0200740BD
:1039B000641EFF1F6C1FFF1F681FFF1F441FFF1F98
:1039C000301FFF1F401FFF1F481FFF1FF81EFF1F54
:1039D000081FFF1F501FFF1F00200740EA1EFF1F88
:1039E0005F1FFF1F601FFF1FE91EFF1FE81EFF1F55
:1039F0000000FF1F88004000681EFF1FA81EFF1F59
:103A0000451FFF1F201FFF1F484B49491B780B70A4
:103A10000B4619E6464A00231380454B022213E663
:103A20004FF001032370434BB34204F101047FF4D0
:103A3000CAAE414E039CDFF81481404F002333701F
:103A4000042518F8013B3E4AAB541B0725D445F02A
:103A5000020145F0030204350023142D49F83130EA
:103A600049F83230EDD1374F25783A7842F00200EC
:103A700009EBC00C85F00106CCF80430002D4DD1C7
:103A8000882382F0010226703A7049F83030012311
:103A90008AF894302BE52570C5E700F0C3F80028BC
:103AA00032D009EBC5030830586049F8357000F092
:103AB000B9F808B345F0010309EBC30208305060C0
:103AC00049F833B0C3E7204A5368002B3FF447AEB0
:103AD000000CBFB204E013690C32002B3FF43FAE80
:103AE00011888142F7D15188B942F4D1000A0328E4
:103AF0000CBF1A781289A7E533780133337045F08B
:103B0000010349F83300A2E7337849F8350001335F
:103B10003370CCE7064B022296E500BE2670C82320
:103B200082F001063E7049F83030BCE5441FFF1FAB
:103B3000F01EFF1F081FFF1F501FFF1F88004000BF
:103B4000C0200740E81EFF1F884D0000DC4D00002C
:103B500010B500F09FFA0023234A194642F83310AB
:103B600002EBC3000133142B4160F7D11F48204CF6
:103B7000436B43F480234363D4F8003800F52830C6
:103B800000F5807043F04073C4F80038032480F8D7
:103B90004440184BA02480F84040C2F3072483F827
:103BA0009C40C2F30744120E83F8B0404FF0FF0C64
:103BB00083F8B420012283F880C00F4C83F888C0BA
:103BC00083F810C083F8942001704FF0E02183F84F
:103BD00084204FF0700C4FF40012102384F835C08D
:103BE000C1F80421037210BD0000FF1F00800440D3
:103BF00000D000400020074000E400E000F0ACB836
:103C000000F07CB800F056B800F090B800F078B939
:103C100000F052B90846114600F0BAB8084600F064
:103C20003DB900BF72B60D490B68B3FA83F00B289B
:103C300010DC4FF00042C24023EA02030B6062B680
:103C4000074A00EBC000C10002EBC0000023535044
:103C50004360704762B60020704700BF800CFF1FB2
:103C6000D003FF1F0E4BC31AB3F5587F10D20D4A75
:103C7000127872B972B60C4A0C49A2FB0323086889
:103C80004FF000421B0922FA03F303430B6062B6B4
:103C90007047074A1278002AECD0FFF719BB00BF23
:103CA000D003FF1F501FFF1F398EE338800CFF1F0A
:103CB000441FFF1F38B50F4C206878B14388028835
:103CC000C11801339A420D7A02D94380284638BD83
:103CD000FFF7C8FF00232360284638BD064B1B783A
:103CE0002BB10320FFF7BEFA20600028E6D14FF089
:103CF000FF35EBE7541FFF1F441FFF1F10B5094C92
:103D0000206818B143881844007A10BD064B1B7810
:103D10002BB10320FFF7A6FA20600028F2D14FF064
:103D2000FF3010BD541FFF1F441FFF1F084B094ADF
:103D30001B6810B594881BB11A885B88D31A1C4481
:103D40000CB1204610BD00F02BF9204610BD00BF7D
:103D5000541FFF1F481FFF1F0B4B1B789BB110B553
:103D60000A4C206848B1FFF77DFF00230320236041
:103D7000FFF778FA30B1FFF775FF0320FFF772FA0B
:103D80000028F8D110BD7047441FFF1F541FFF1FAC
:103D90002DE9F04FDFF8F89083B0012289F8002078
:103DA000019179B3374FDFF8EC80019D364EDFF893
:103DB000E8A083463868A8B3B0F802E0CEF1400C22
:103DC000AC4528BFAC460EEB0C040022A4B2327006
:103DD000A5EB0C05448000F10802BCF1000F0AD0ED
:103DE0000EF1FF3E7244DC441BF8014B02F8014F18
:103DF000DC45F9D144883F2C0BD805228AF80020F5
:103E0000002DD7D10198002389F8003003B0BDE818
:103E1000F08F4022028001460420FFF79BFA002227
:103E20003A60EAE798F800201AB3184C08E0013C21
:103E300018D03278B2B900F0B3F898F80020C2B1C7
:103E40000420FFF72FFA0728F1D84FF0010389F873
:103E50000030FFF7E7FE38600028ADD1013C89F85B
:103E60000000E6D101234FF0FF30337003B0BDE80E
:103E7000F08F00234FF0FF3089F8003003B0BDE829
:103E8000F08F00BF5C1FFF1F581FFF1F214801005C
:103E9000591FFF1F441FFF1F701FFF1F00B583B076
:103EA000034601210DF107008DF80730FFF770FF81
:103EB00003B05DF804FB00BF38B50E4D0E4C28680A
:103EC0000123237028B140880023C0F140002370F3
:103ED00038BD0A4B1B7813B90020207038BD042070
:103EE000FFF7E0F90728F7D8FFF79CFE28600028C5
:103EF000E9D1F1E75C1FFF1F591FFF1F441FFF1F80
:103F0000F8B5114B1B788BB1104E114D3468012759
:103F10002F7064B10F4B00271F70638823802146E8
:103F20000420FFF717FA376000232B70F8BDFFF766
:103F300079FE084B014620B104201C70FFF70AFAF5
:103F4000F2E71F70F0E700BF441FFF1F5C1FFF1F59
:103F5000591FFF1F701FFF1F38B50E4B1B7853B939
:103F60000D4C216841B103F0FF054B880B80042004
:103F7000FFF7F0F9256038BDFFF754FE014620B188
:103F8000BDE838400420FFF7E5B9044B01221A7060
:103F900038BD00BF591FFF1F5C1FFF1F701FFF1F91
:103FA0002DE9F843324E337863B1324F3A784AB94B
:103FB0000122D9073A7043D49A0726D400225B071E
:103FC0003A7001D4BDE8F8832B4B1A68002AF9D067
:103FD000EFF30582002AF5D1EFF3108572B6186869
:103FE00000283AD0254C2178002936D142691A6040
:103FF00001232370002A37D0916105B962B60025EC
:104000008368457798472570DCE7DFF87C8098F86F
:104010000020002AD2D00025DFF870902B4659F8F6
:104020002340236820461B690135984708B123695E
:10403000984798F80020EBB29A42F0D83378BDE761
:10404000FFF774FE68B90E4B1B780BB93378B3E7F2
:10405000337803F0FE033370AEE7002DB2D162B6C1
:10406000B0E700F015F8EEE7064B1A60C5E700BFB1
:10407000840CFF1F711FFF1F481EFF1F541EFF1FD0
:10408000144B0000581EFF1F8C1FFF1F741FFF1FC3
:10409000704700BF10B584B072B6FEF7D1FD174A65
:1040A00017495160702080231070137013781B061D
:1040B000FCD5D468FEF7DAFD62B6124B9C423CBFD9
:1040C00004EB8404640020460F4C01A90A2200F08E
:1040D0001DF801A92046002311F8012B01333AB144
:1040E0000A2B20F8022FF7D11623237004B010BD3D
:1040F0005B00DBB2237004B010BD00BF00000240C3
:104100000000074180969800140DFF1F01F1FF3C4D
:1041100070B56546002401E070460134B0FBF2FE44
:1041200002FB1E03092B03F130068ABF3733F3B2BB
:10413000DBB2904205F8013FEED2631C0022CA5464
:10414000C8187CB162461CF8015F10F801ED8CF8CC
:1041500000E0A1EB0C030232013B521A23449A42C5
:104160000570EFDB084670BD03460846194600F0AF
:1041700015B900BF024B0146186800F073BA00BFC2
:104180006012FF1F014800F04BB900BFF820FF1F6D
:10419000014800F047B900BFF820FF1F88420DD941
:1041A0008B1883420AD900EB020CBAB1624613F8AD
:1041B00001CD02F801CD9942F9D170470F2A0ED8EE
:1041C000034602F1FF3C4AB10CF1010C013B8C4467
:1041D00011F8012B03F8012F6145F9D1704740EA2E
:1041E00001039B0750D1A2F1100370B501F1200C1F
:1041F00023F00F0501F1100E00F11004AC441B096F
:104200005EF8105C44F8105C5EF80C5C44F80C5CE2
:104210005EF8085C44F8085C5EF8045C44F8045CF2
:104220000EF1100EE64504F11004E9D1013312F04D
:104230000C0F01EB031102F00F0400EB031327D066
:10424000043C24F003064FEA940C1E441C1F8E46C7
:104250005EF8045B44F8045FB442F9D10CF1010448
:1042600002F0030203EB840301EB840102F1FF3C43
:104270004AB10CF1010C013B8C4411F8012B03F8FD
:10428000012F6145F9D170BD02F1FF3C03469BE768
:104290002246EBE7830730B548D0541E002A3FD0B2
:1042A000CAB2034601E0013C3AD303F8012B9D0753
:1042B000F9D1032C2DD9CDB245EA05250F2C45EABD
:1042C000054536D9A4F1100222F00F0C03F1200E9F
:1042D000E6444FEA121C03F1100242E9045542E998
:1042E000025510327245F8D10CF1010214F00C0F96
:1042F00003EB021204F00F0C13D0ACF1040323F013
:1043000003030433134442F8045B9342FBD10CF0E3
:1043100003042CB1C9B21C4403F8011B9C42FBD11D
:1043200030BD64461346002CF4D1F9E70346144629
:10433000BFE71A46A446E0E740EA01039B0730B511
:1043400001D1032A0FD8844601F1FF3E07E01EF891
:10435000011F03F8011B541EC1B19C46224663464F
:10436000002AF4D130BD0B468446194653F8045B4D
:10437000A5F1013424EA050414F0803FE4D1043AA5
:10438000032A4CF8045B1946EFD8DDE79444002C6F
:10439000E8D003F8011B6345FBD130BD13460A4644
:1043A0000146022000F0BAB838B5074D0022044695
:1043B00008462A60FEF72AFC431C00D038BD2B6853
:1043C000002BFBD0236038BD9022FF1F014B1868E3
:1043D000704700BF6012FF1F70B50D4E0D4D761B6C
:1043E000B61006D0002455F8043B01349847A64285
:1043F000F9D1094E094D761B00F0F2FCB61006D03B
:10440000002455F8043B01349847A642F9D170BD09
:10441000EC4D0000EC4D0000F84D0000EC4D0000AC
:10442000704700BF704700BFFFFFFFFFFFFFFFFFA8
:10443000FFFFFFFFFFFFFFFFFFFFFFFFFFFFFFFF8C
:1044400090F800F06DE9024520F007016FF0000CD4
:1044500010F0070491F820F040F049804FF000047C
:104460006FF00700D1E9002391F840F000F1080057
:1044700082FA4CF2A4FA8CF283FA4CF3A2FA8CF38F
:104480004BBBD1E9022382FA4CF200F10800A4FAF6
:104490008CF283FA4CF3A2FA8CF3E3B9D1E904234A
:1044A00082FA4CF200F10800A4FA8CF283FA4CF381
:1044B000A2FA8CF37BB9D1E9062301F1200182FA3B
:1044C0004CF200F10800A4FA8CF283FA4CF3A2FA41
:1044D0008CF3002BC6D0002A04BF04301A4612BA4F
:1044E000B2FA82F2FDE8024500EBD2007047D1E952
:1044F000002304F00305C4F100004FEAC50514F0E1
:10450000040F91F840F00CFA05F562EA05021CBFB1
:1045100063EA050362464FF00004A9E72DE9F0477E
:10452000DFF87CA00646DAF8000098460F46914670
:10453000FFF776FF184B1C6824B365681F2D24DC39
:104540005EB96B1C0235DAF80000636044F8257030
:10455000FFF768FF0020BDE8F08704EB8501012329
:10456000C1F88890D4F88821AB401A43022EC4F8D1
:104570008821C1F80881E4D1D4F88C211A43C4F809
:104580008C21DEE7054C1C60D7E7DAF80000FFF766
:1045900049FF4FF0FF30DEE78C22FF1FFC20FF1F9A
:1045A0006412FF1F024B13B1024800F005B87047B8
:1045B0000000000071480000002301461A4618461A
:1045C000FFF7ACBFF8B5244F0C460646FFF7DAFDFF
:1045D000BB685D68C4F57E610F3125F003054B199A
:1045E00023F47F6323F00F03A3F58054B4F5805FB9
:1045F00007DB00213046FFF7D7FEBB682B4498420B
:1046000004D03046FFF7C4FD0020F8BD61423046BB
:10461000FFF7CAFE01300DD0104ABB682D1B45F0D4
:1046200001055D60136830461B1B1360FFF7B0FD8A
:104630000120F8BD00213046FFF7B6FEBA68831AA4
:104640000F2BDEDD43F001035360054B03491B686C
:10465000C01A0860D5E700BF2C0DFF1F901FFF1F79
:104660003411FF1F002961D0F8B50C460646FFF74C
:1046700089FD54F8042C7B4FA4F1080522F00101B8
:1046800005EB010CB868DCF80430604523F0030347
:1046900000F08B80D207CCF8043032D454F8082CC8
:1046A000AD1A1144AA6807F1080082426AD00CEBE7
:1046B0000304D4F804E0EC68D4601EF0010FA2609B
:1046C00000F0978041F001036B60CCF80010B1F569
:1046D000007F35D27868CB080122490901338A402E
:1046E000024357F833107A6007EBC302083AC5E972
:1046F000021247F83350CD603046BDE8F840FFF76E
:1047000047BD0CEB03025268D00710D4194407F1DF
:104710000800DCF80830834273D0DCF80C20DA6043
:10472000936041F001036B606950D0E7704741F03E
:104730000103B1F5007F44F8043CCCF80010C9D364
:10474000B1F5206F4FEA512348D28B0903F13900AC
:1047500003F13802C300F818FB580838984259D0C2
:104760005A6822F003028A4202D99B689842F7D124
:10477000D868C5E902308560DD603046BDE8F840A4
:10478000FFF706BD0CEB03025268D20763D40B445B
:10479000DCE90212CA60916043F001026A603046AF
:1047A000EB50BDE8F840FFF7F3BC0B44D10707D44A
:1047B00054F8082CAD1A1344D5E90212CA6091606E
:1047C00043F001026A60284ABD6012689A4293D899
:1047D000264B30461968FFF7F5FE8DE7142B0AD9F2
:1047E000542B1FD80B0B03F16F0003F16E02C300B3
:1047F000B1E719448DE703F15C0003F15B02C300EC
:10480000A9E741F00103C7E90455C5E902006B605F
:10481000695071E779689210012404FA02F20A43A0
:104820007A60A6E7B3F5AA7F06D8CB0B03F1780030
:1048300003F17702C3008EE740F25452934206D848
:104840008B0C03F17D0003F17C02C30083E74FF47E
:104850007E737E227FE741F001036B60CCF800108D
:104860004AE700BF2C0DFF1F3811FF1FB81FFF1FA5
:1048700038B5074D074C2C1BA41005D0013C55F84A
:10488000043D9847002CF9D1BDE8384000F0B4BA97
:10489000000000000000000000316253C4F5A6973C
:1048A000B988DBEA7D4C1F2E4372211087B6E5D410
:1048B000FACB98A93E0F5C6D86B7E4D54273201100
:1048C0003F0E5D6CFBCA99A8C5F4A79601306352F0
:1048D0007C4D1E2FB889DAEB3D0C5F6EF9C89BAAA0
:1048E00084B5E6D7407122137E4F1C2DBA8BD8E9D0
:1048F000C7F6A59403326150BB8AD9E87F4E1D2CC0
:1049000002336051C6F7A495F8C99AAB3C0D5E6FAF
:104910004170231285B4E7D67A4B1829BE8FDCED9F
:10492000C3F2A1900736655439085B6AFDCC9FAE8F
:1049300080B1E2D344752617FCCD9EAF38095A6B7F
:104940004574271681B0E3D2BF8EDDEC7B4A19286F
:1049500006376455C2F3A0914776251483B2E1D09F
:10496000FECF9CAD3A0B586904356657C0F1A2934F
:10497000BD8CDFEE79481B2AE1D083B2251447763F
:1049800058693A0B9CADFECFA293C0F1665704352F
:104990001B2A7948DFEEBD8C312E302E300000000E
:1049A0004261736963426C696E6B00FF0000000036
:1049B00000000000811E0000851E0000111E000086
:1049C000291E00002D1E0000351E00003D1E0000A7
:1049D000751E00007D1E0000790400003C8004402C
:1049E00000100000041A0000FF7F00000F0E0000FE
:1049F000592000000C0827FF000200000002000000
:104A000000020000000000000B071CFF0002000075
:104A10000002000000020000000000000D0E1B005C
:104A20000002000000020000000200000A02090665
:104A3000141715160F1A2D000002000000020000C6
:104A4000000200000002000000020000000200005E
:104A5000000200000002000000020000000200004E
:104A600000030000010102020404080810012000F4
:104A7000288004408000000038FFFFFFFF02000094
:104A8000000039FFFFFFFF02000000005B00000094
:104A9000288004404000000004FFFFFFFF050000E5
:104AA0000000031AFFFFFF05050000004A00000098
:104AB0003480044080000000263AFFFFFF02060019
:104AC0000000253BFFFFFF02060000001900000068
:104AD0003480044040000000121122083002020518
:104AE0000702131021072F02020507021800000019
:104AF0000000000000000000B5200000DD200000E4
:104B000069200000B12000006D2000007920000025
:104B10009920000000FFFFFF050E08090D0C060795
:104B20000F0403938E8F050E08090D0C06070F0462
:104B3000FFFFFFFFFFFFFF8E8F1112848586879195
:104B4000FFFFFFFFFFFFFFFFFF8A8BFFFFFFFFFF5E
:104B5000FFFFFFFFFFFFFFFF0393179701811A92EB
:104B60004008FE4340A004404408FE4344A00440E3
:104B70000018FE4300C004403000FE433090044063
:104B80003400FE43349004401C18FE431CC0044013
:104B90001018FE4310C004400818FE4308C004402B
:104BA0000C18FE430CC004400C10FE430CB0044033
:104BB0001010FE4310B004401810FE4318B004401B
:104BC0001C10FE431CB004401410FE4314B00440FB
:104BD0000418FE4304C004400010FE4300B004402B
:104BE0000008FE4300A004400408FE4304A0044063
:104BF0000C08FE430CA004400808FE4308A0044033
:104C00001418FE4314C004401818FE4318C0044092
:104C10000410FE4304B004400810FE4308B00440F2
:104C20006820FE4368D004401400FE431490044002
:104C30003800FE43389004403C00FE433C90044062
:104C40004000FE43409004404808FE4348A0044012
:104C50004C08FE434CA004402808FE4328A0044012
:104C60002C08FE432CA004406020FE4360D004408A
:104C70006420FE4364D004402010FE4320B0044072
:104C80002410FE4324B004402810FE4328B0044002
:104C90002C10FE432CB004404400FE4344900440DA
:104CA0007000FE43709004407400FE437490044012
:104CB0006800FE43689004405008FE4350A0044042
:104CC0005808FE4358A004405C08FE435CA0044022
:104CD0005408FE4354A004402018FE4320C0044062
:104CE0002418FE4324C004401008FE4310A00440D2
:104CF0001408FE4314A004403818FE4338C0044092
:104D00003418FE4334C004403018FE4330C0044021
:104D10003C18FE433CC004402C18FE432CC0044009
:104D20002820FE4328D004402C20FE432CD00440F1
:104D30000020FE4300D004400420FE4304D0044081
:104D40000820FE4308D004400C20FE430CD0044051
:104D50001020FE4310D004401420FE4314D0044021
:104D600000000000000000001D3C0000153C000099
:104D7000113C00000D3C0000093C0000053C000017
:104D8000013C0000FD3B000000010000CC0CFF1FB7
:104D90001200000000020000880CFF1F430000000A
:104DA00000030000E00CFF1F0000000001030904E5
:104DB000E40CFF1F0000000002030904FC0CFF1FAD
:104DC0000000000003030904140DFF1F0000000091
:104DD0000000000000000000000000000015191590
:104DE000F8B500BFF8BC08BC9E467047A54500005A
:084DF00035040000AD1E0000B7
:044DF800F8B500BF4B
:084DFC006CF3FF7F01000000D1
:104E04000000000000C00240DC4900000000000077
:104E1400000000000000000000000000000000008E
:104E2400000000000000000000000000000000007E
:104E3400000000000000000000000000000000006E
:104E440000000000F84A000000000000E803000031
:104E54000000000000600640D04A0000000000008E
:104E6400000000000000000000000000000000003E
:104E7400000000000000000000000000000000002E
:104E8400000000000000000000000000000000001E
:104E9400000000000000000000000000000000000E
:104EA40000000000000000000000000000000000FE
:104EB40000000000000000000000000000000000EE
:104EC40000000000000000000000000000000000DE
:104ED40000000000000000000000000000000000CE
:104EE40000000000000000000000000000000000BE
:104EF40000000000000000000000000000000000AE
:104F0400000000000000000000000000000000009D
:104F1400000000000000000000000000000000008D
:104F2400000000000000000000000000000000007D
:104F3400000000000000000000000000000000006D
:104F4400000000000000000000000000000000005D
:104F5400000000000000000000000000000000004D
:104F6400000000000000000000000000000000003D
:104F7400000000000000000000000000000000002D
:104F8400F84A000000000000E803000000000000F0
:104F940000700640B04A000000000000000000005D
:104FA40000000000000000000000000000000000FD
:104FB40000000000000000000000000000000000ED
:104FC40000000000000000000000000000000000DD
:104FD40000000000000000000000000000000000CD
:104FE40000000000000000000000000000000000BD
:104FF40000000000000000000000000000000000AD
:10500400000000000000000000000000000000009C
:10501400000000000000000000000000000000008C
:10502400000000000000000000000000000000007C
:10503400000000000000000000000000000000006C
:10504400000000000000000000000000000000005C
:10505400000000000000000000000000000000004C
:10506400000000000000000000000000000000003C
:10507400000000000000000000000000000000002C
:10508400000000000000000000000000000000001C
:10509400000000000000000000000000000000000C
:1050A40000000000000000000000000000000000FC
:1050B400000000000000000000000000F84A0000AA
:1050C40000000000E80300000000000000600E4043
:1050D400904A0000000000000000000000000000F2
:1050E40000000000000000000000000000000000BC
:1050F40000000000000000000000000000000000AC
:10510400000000000000000000000000000000009B
:10511400000000000000000000000000000000008B
:10512400000000000000000000000000000000007B
:10513400000000000000000000000000000000006B
:10514400000000000000000000000000000000005B
:10515400000000000000000000000000000000004B
:10516400000000000000000000000000000000003B
:10517400000000000000000000000000000000002B
:10518400000000000000000000000000000000001B
:10519400000000000000000000000000000000000B
:1051A40000000000000000000000000000000000FB
:1051B40000000000000000000000000000000000EB
:1051C40000000000000000000000000000000000DB
:1051D40000000000000000000000000000000000CB
:1051E40000000000000000000000000000000000BB
:1051F4000000000000000000F84A00000000000069
:10520400E80300000000000000700E40704A000037
:10521400000000000000000000000000000000008A
:10522400000000000000000000000000000000007A
:10523400000000000000000000000000000000006A
:10524400000000000000000000000000000000005A
:10525400000000000000000000000000000000004A
:10526400000000000000000000000000000000003A
:10527400000000000000000000000000000000002A
:10528400000000000000000000000000000000001A
:10529400000000000000000000000000000000000A
:1052A40000000000000000000000000000000000FA
:1052B40000000000000000000000000000000000EA
:1052C40000000000000000000000000000000000DA
:1052D40000000000000000000000000000000000CA
:1052E40000000000000000000000000000000000BA
:1052F40000000000000000000000000000000000AA
:105304000000000000000000000000000000000099
:105314000000000000000000000000000000000089
:105324000000000000000000000000000000000079
:10533400000000000A0400009422FF1F080000007F
:10534400684D000000000000E803000000000000B9
:10535400FFFFFFFF0100000009024300020100C03B
:1053640032090400000102020100052400100105B5
:105374002401010104240206052406000107058214
:105384000310004009040100020A0000000705039D
:1053940002400000070584024000000012011001D1
:1053A40002000040C01683047702010203010000DA
:1053B4000403090418035400650065006E007300BB
:1053C40079006400750069006E006F0016035500D3
:1053D4005300420020005300650072006900610020
:1053E4006C0000000C03000000000000000000003E
:1053F40000000000000000000000000000000000A9
:10540400000000002C0DFF1F2C0DFF1F340DFF1F8B
:10541400340DFF1F3C0DFF1F3C0DFF1F440DFF1FEC
:10542400440DFF1F4C0DFF1F4C0DFF1F540DFF1F9C
:10543400540DFF1F5C0DFF1F5C0DFF1F640DFF1F4C
:10544400640DFF1F6C0DFF1F6C0DFF1F740DFF1FFC
:10545400740DFF1F7C0DFF1F7C0DFF1F840DFF1FAC
:10546400840DFF1F8C0DFF1F8C0DFF1F940DFF1F5C
:10547400940DFF1F9C0DFF1F9C0DFF1FA40DFF1F0C
:10548400A40DFF1FAC0DFF1FAC0DFF1FB40DFF1FBC
:10549400B40DFF1FBC0DFF1FBC0DFF1FC40DFF1F6C
:1054A400C40DFF1FCC0DFF1FCC0DFF1FD40DFF1F1C
:1054B400D40DFF1FDC0DFF1FDC0DFF1FE40DFF1FCC
:1054C400E40DFF1FEC0DFF1FEC0DFF1FF40DFF1F7C
:1054D400F40DFF1FFC0DFF1FFC0DFF1F040EFF1F2B
:1054E400040EFF1F0C0EFF1F0C0EFF1F140EFF1FD8
:1054F400140EFF1F1C0EFF1F1C0EFF1F240EFF1F88
:10550400240EFF1F2C0EFF1F2C0EFF1F340EFF1F37
:10551400340EFF1F3C0EFF1F3C0EFF1F440EFF1FE7
:10552400440EFF1F4C0EFF1F4C0EFF1F540EFF1F97
:10553400540EFF1F5C0EFF1F5C0EFF1F640EFF1F47
:10554400640EFF1F6C0EFF1F6C0EFF1F740EFF1FF7
:10555400740EFF1F7C0EFF1F7C0EFF1F840EFF1FA7
:10556400840EFF1F8C0EFF1F8C0EFF1F940EFF1F57
:10557400940EFF1F9C0EFF1F9C0EFF1FA40EFF1F07
:10558400A40EFF1FAC0EFF1FAC0EFF1FB40EFF1FB7
:10559400B40EFF1FBC0EFF1FBC0EFF1FC40EFF1F67
:1055A400C40EFF1FCC0EFF1FCC0EFF1FD40EFF1F17
:1055B400D40EFF1FDC0EFF1FDC0EFF1FE40EFF1FC7
:1055C400E40EFF1FEC0EFF1FEC0EFF1FF40EFF1F77
:1055D400F40EFF1FFC0EFF1FFC0EFF1F040FFF1F26
:1055E400040FFF1F0C0FFF1F0C0FFF1F140FFF1FD3
:1055F400140FFF1F1C0FFF1F1C0FFF1F240FFF1F83
:10560400240FFF1F2C0FFF1F2C0FFF1F340FFF1F32
:10561400340FFF1F3C0FFF1F3C0FFF1F440FFF1FE2
:10562400440FFF1F4C0FFF1F4C0FFF1F540FFF1F92
:10563400540FFF1F5C0FFF1F5C0FFF1F640FFF1F42
:10564400640FFF1F6C0FFF1F6C0FFF1F740FFF1FF2
:10565400740FFF1F7C0FFF1F7C0FFF1F840FFF1FA2
:10566400840FFF1F8C0FFF1F8C0FFF1F940FFF1F52
:10567400940FFF1F9C0FFF1F9C0FFF1FA40FFF1F02
:10568400A40FFF1FAC0FFF1FAC0FFF1FB40FFF1FB2
:10569400B40FFF1FBC0FFF1FBC0FFF1FC40FFF1F62
:1056A400C40FFF1FCC0FFF1FCC0FFF1FD40FFF1F12
:1056B400D40FFF1FDC0FFF1FDC0FFF1FE40FFF1FC2
:1056C400E40FFF1FEC0FFF1FEC0FFF1FF40FFF1F72
:1056D400F40FFF1FFC0FFF1FFC0FFF1F0410FF1F21
:1056E4000410FF1F0C10FF1F0C10FF1F1410FF1FCE
:1056F4001410FF1F1C10FF1F1C10FF1F2410FF1F7E
:105704002410FF1F2C10FF1F2C10FF1F3410FF1F2D
:105714003410FF1F3C10FF1F3C10FF1F4410FF1FDD
:105724004410FF1F4C10FF1F4C10FF1F5410FF1F8D
:105734005410FF1F5C10FF1F5C10FF1F6410FF1F3D
:105744006410FF1F6C10FF1F6C10FF1F7410FF1FED
:105754007410FF1F7C10FF1F7C10FF1F8410FF1F9D
:105764008410FF1F8C10FF1F8C10FF1F9410FF1F4D
:105774009410FF1F9C10FF1F9C10FF1FA410FF1FFD
:10578400A410FF1FAC10FF1FAC10FF1FB410FF1FAD
:10579400B410FF1FBC10FF1FBC10FF1FC410FF1F5D
:1057A400C410FF1FCC10FF1FCC10FF1FD410FF1F0D
:1057B400D410FF1FDC10FF1FDC10FF1FE410FF1FBD
:1057C400E410FF1FEC10FF1FEC10FF1FF410FF1F6D
:1057D400F410FF1FFC10FF1FFC10FF1F0411FF1F1C
:1057E4000411FF1F0C11FF1F0C11FF1F1411FF1FC9
:1057F4001411FF1F1C11FF1F1C11FF1F2411FF1F79
:105804002411FF1FFFFFFFFF000002000000000043
:1058140000000000BC1FFF1F2420FF1F8C20FF1F5F
:105824000000000000000000000000000000000074
:105834000000000000000000000000000000000064
:105844000000000000000000000000000000000054
:105854000000000000000000000000000000000044
:105864000000000000000000000000000000000034
:105874000000000000000000000000000000000024
:105884000000000000000000000000000000000014
:105894000000000000000000000000000000000004
:1058A40000000000000000000100000000000000F3
:1058B4000E33CDAB34126DE6ECDE05000B000000B8
:1058C40000000000000000000000000000000000D4
:1058D40000000000000000000000000000000000C4
:1058E40000000000000000000000000000000000B4
:1058F40000000000000000000000000000000000A4
:105904000000000000000000000000000000000093
:105914000000000000000000000000000000000083
:105924000000000000000000000000000000000073
:085934004011FF1FF420FF1FCA
:00000001FF
