:100000000C94DB000C9403010C9403010C94030189
:100010000C9403010C9403010C9403010C94030150
:100020000C9403010C9403010C94D70F0C9446100C
:100030000C9403010C9403010C9403010C94030130
:100040000C9403010C9403010C9403010C94030120
:100050000C9403010C9403010C9403010C948D0F78
:100060000C9403010C9403010C9403010C94030100
:100070000C9403010C9403010C9403010C940301F0
:100080000C9403010C9403010C9403010C940301E0
:100090000C9478120C9403010C9403010C9403014A
:1000A0000C9403010C9403010C940301080B00024F
:1000B0000202000009040000010202000005240001
:1000C0001001052401010104240206052406000193
:1000D0000705810310004009040100020A00000026
:1000E00007050202400000070583024000000403E8
:1000F000090412010002EF02014041233680000191
:100100000102030141726475696E6F204C4C43001B
:1001100041726475696E6F204C656F6E6172646FB9
:1001200000070605040100080A0B0C0D0900000079
:1001300000240027002A002D0030000000000025C8
:100140000028002B002E00310000000000230026B4
:100150000029002C002F00040404040403040502F9
:100160000202020403020202020606060606060452
:10017000040202020404040802011040804010201E
:10018000408040800802040180402010020110805D
:1001900010204040200000000200090F000003046E
:1001A00001000C0000000000000000000000000042
:1001B00000000000931311241FBECFEFDAE0DEBF72
:1001C000CDBF12E0A0E0B1E0E6ECF4E302C00590A0
:1001D0000D92A636B107D9F726E0A6E6B2E001C037
:1001E0001D92A23DB207E1F710E0CBEDD0E004C0D4
:1001F0002197FE010E940519CA3DD107C9F70E9447
:1002000084140C94611A0C940000AF92BF92CF92A8
:10021000DF92EF92FF920F931F93CF93DF931F9282
:10022000CDB7DEB7790198E0E90EF11CA9E8EA162E
:10023000F10408F08DC093E49093DA0494E4909371
:10024000DB0491E09093DC048093DD046093DE0492
:100250002093DF043093E0042115310509F084C0B8
:10026000B9016B5F7F4FACEDB4E050E040E080E05F
:100270004617570708F489C0F901EF51FB4F8083F7
:10028000E114F10409F464C0890180915B03909149
:100290005C03DC01ED91FC910088F189E02D09956A
:1002A000882309F48CC0075F1F4F0338110508F03D
:1002B0004FC08AEDA82E84E0B82E61E070E081E0A6
:1002C00030E020E0F0E0E0E0D5019D915D01319665
:1002D000AB014F5F5F4F89010E591A4F911160C0FA
:1002E000D8018C939B0181E0EE15FF0508F456C000
:1002F0002E593A4FF90180834115510549F18091FA
:100300005B0390915C03DC01ED91FC910084F1852D
:10031000E02D62E675E00995198280915B0390916A
:100320005C03DC01ED91FC910084F185E02D41E05E
:1003300050E0BE016F5F7F4F099580915B03909104
:100340005C03DC01ED91FC910684F785E02D0995B5
:100350000F90DF91CF911F910F91FF90EF90DF9061
:10036000CF90BF90AF9008954115510509F478CF13
:10037000FA01A1EEB4E0CA01820F931F8E179F0706
:1003800009F46ECF41914D93F9CFED91E827F0E05C
:10039000E75EFE4F80814F5F5F4F6ACFBA0194CF17
:1003A000DB01AE59BA4F9C938F5F8F3F09F09CCF12
:1003B000D8018C939A01AB014E5F5F4F94CF80912F
:1003C0005B0390915C03DC01ED91FC910084F1856D
:1003D000E02DA7016AED74E0AFCF30E020E050E0FF
:1003E00040E0682F82E80C940501CF93DF931F92C1
:1003F000CDB7DEB7698321E030E0AE014F5F5F4FDC
:10040000682F83E80E9405010F90DF91CF91089536
:10041000FC0124813581828193812817390768F492
:1004200080819181A9014F5F5F4F55834483FC0117
:10043000E20FF31F608381E0089580E00895FC01DE
:100440008091C402882311F13FB7F89482E0809331
:10045000E9002091F200822F90E01816190614F49A
:1004600081E090E0882339F0289844E64093C30265
:100470004091F1004083222339F02091F2002111B4
:1004800003C02BE62093E8003FBF08958FEF9FEF56
:1004900008952FB7F89483E08093E9009091E800E5
:1004A000892F807295FF04C09091F20080E4891B2F
:1004B0002FBF08958091BB0281110DC082E080930F
:1004C000B70284E08093B8021092BA021092B90287
:1004D00081E08093BB0287EB92E0089581508F30DA
:1004E00008F047C0E82FF0E0E858FD4F0C940519DC
:1004F0009502990287028D029102B902B902B902EE
:100500009C02A202A602AA02B002B902B402809121
:1005100080008F77809380000895809180008F7D88
:10052000F9CF80918000877FF5CF84B58F7784BD28
:10053000089584B58F7DFBCF809190008F77809355
:1005400090000895809190008F7DF9CF8091900068
:10055000877FF5CF8091C0008F778093C00008958A
:100560008091C0008F7DF9CF8091C200877F8093FA
:10057000C20008951F93CF93DF93282F30E0F90135
:10058000EB56FE4F8491F901EA58FE4FD491F901E0
:10059000E95AFE4FC491CC23A9F0162F81110E9475
:1005A0006E02EC2FF0E0EE0FFF1FE55CFE4FA59111
:1005B000B4918FB7F894EC91111108C0D095DE2357
:1005C000DC938FBFDF91CF911F910895DE2BF8CF81
:1005D000CF93DF9390E0FC01EA58FE4F2491895AB3
:1005E0009E4FFC0184918823C9F090E0880F991FE9
:1005F000FC01E35DFE4FA591B491FC01E55CFE4F6B
:10060000C591D49161110DC09FB7F8948C9120953C
:1006100082238C938881282328839FBFDF91CF91E9
:100620000895623051F49FB7F8943C91822F8095E1
:1006300083238C93E8812E2BEFCF8FB7F894EC9126
:100640002E2B2C938FBFEACF1F93CF93DF93182FBE
:10065000EB0161E00E94E802209739F460E0812F0D
:10066000DF91CF911F910C94BA02CF3FD10511F4C5
:1006700061E0F5CFE12FF0E0EB56FE4FE491E15061
:10068000EF3008F07FC0F0E0E85BFC4F0C940519F8
:1006900057035F0364036E037803C203C203C203FC
:1006A00082038C039603A003AD03C203B50384B594
:1006B000806884BDC7BDDF91CF911F91089584B537
:1006C000806284BDC8BDF7CF809180008068809330
:1006D0008000D0938900C0938800EDCF8091800086
:1006E000806280938000D0938B00C0938A00E3CF18
:1006F00080918000886080938000D0938D00C093AB
:100700008C00D9CF80919000806880939000D09326
:100710009900C0939800CFCF809190008062809321
:100720009000D0939B00C0939A00C5CF8091900019
:10073000886080939000D0939D00C0939C00BBCFB5
:100740008091C00080688093C0008091C0008F7B42
:100750008093C000C093CF00AECF8091C000806274
:100760008093C000C093D000A6CF8091C200886063
:100770008093C2008091C2008B7F8093C200C0939F
:10078000D20099CFC038D1050CF072CF67CF82313B
:1007900008F08251E82FF0E0EF5DFE4FE491909178
:1007A0007B008E2F880F880F80729F7D892B80930E
:1007B0007B00E770E064E0937C0080917A008064C5
:1007C00080937A0080917A0086FDFCCF809178003A
:1007D0009091790008953FB7F8948091B302909179
:1007E000B402A091B502B091B60226B5A89B05C08F
:1007F0002F3F19F00196A11DB11D3FBFBA2FA92FA0
:10080000982F8827BC01CD01620F711D811D911D9C
:1008100042E0660F771F881F991F4A95D1F7089508
:10082000CF92DF92EF92FF920E94EB036B017C016B
:100830000E94EB036C197D098E099F09683E734085
:1008400081059105A8F3FF90EF90DF90CF90089578
:1008500080E090E0892B49F080E090E0892B29F03E
:100860000E94000081110C94000008954091AC0298
:100870005091AD022091AA023091AB02421753076A
:10088000B4F49091E8009570E1F39091E80092FD46
:1008900019C08093F1008091AC029091AD02019655
:1008A0008F739927892B19F48EEF8093E80080913C
:1008B000AC029091AD0201969093AD028093AC0290
:1008C00081E0089580E00895EF92FF920F931F93C7
:1008D000CF93DF93F82E192FE62E042F81E0860F99
:1008E000880F0E94360483E00E943604CF2DD12F5A
:1008F000EC0EFD2EF11CCE15DF05B9F007FF13C07D
:10090000FE0184910E943604182F80E00E94360474
:10091000812321968111EFCFDF91CF911F910F910C
:10092000FF90EF9008958881EDCF81E0F5CFDF92C1
:10093000EF92FF920F931F93CF93DF93D82E8A01EC
:10094000EB017B01E40EF51ECE15DF0559F0D7FE55
:1009500012C0FE0184910E94360421968111F4CFC9
:100960000FEF1FEFC801DF91CF911F910F91FF9003
:10097000EF90DF9008958881EECF0F931F93CF9370
:10098000DF931F92CDB7DEB782E0898342E450E067
:100990006CEA70E080E80E9497040E945A02DC0131
:1009A00012960D911C910115110589F0D801ED9158
:1009B000FC910280F381E02DBE016F5F7F4FC80183
:1009C000099597FD04C0F80100851185ECCF898158
:1009D0000F90DF91CF911F910F910895615030F0EA
:1009E0002091F100FC0120830196F8CF289884E63D
:1009F0008093C30208958F929F92AF92BF92CF923D
:100A0000DF92EF92FF920F931F93CF93DF936C01CE
:100A10007B018A0180910B01882309F458C08091E1
:100A2000C402882309F453C08091B00280FF05C03E
:100A30008091E00082608093E000E801B12C8AEFB1
:100A4000A82E93E0892E2AE3922E209711F4BB2042
:100A5000B9F10E944902811106C0AA94AA20B9F1F5
:100A60000E941004F2CF8C171D0611F00CF08C2F91
:100A70009FB7F8948092E9002091E80025FD02C01C
:100A80009FBFE3CF282F30E0C21BD30BF70181506B
:100A900020F041914093F100FACFE20EF31EBB200B
:100AA00021F09092E800B12CEBCF8091E80085FD19
:100AB000E7CF9092E800BB24B394209709F3F3CFDB
:100AC0005D9884E68093AF02101611063CF081E039
:100AD00090E0F6019383828310E000E0C801DF918B
:100AE000CF911F910F91FF90EF90DF90CF90BF902B
:100AF000AF909F908F900895CF93DF931F92CDB7C3
:100B0000DEB76983DC01ED91FC910280F381E02D79
:100B100041E050E0BE016F5F7F4F09950F90DF917C
:100B2000CF91089583E08093E9008091F2008823BB
:100B300019F08AE38093E80008950E94490290E04A
:100B40000895CF93DF931F92CDB7DEB7FC01848564
:100B5000958597FD08C02FEF3FEF358724870F90CD
:100B6000DF91CF910895CE0101960E941F02019757
:100B700019F4898190E0F3CF8FEF9FEFF0CF0F93BF
:100B80001F93CF93DF931F92CDB7DEB78C01FC018B
:100B90008485958597FF0BC0CE0101960E941F02A8
:100BA000019771F4898190E0F80195878487F801B5
:100BB000848595850F90DF91CF911F910F910895B6
:100BC0008FEF9FEFF1CFFC018485958597FD0BC0DA
:100BD0009FB7F89482E08093E9008091F2009FBF74
:100BE00090E0019608959FB7F89482E08093E90021
:100BF0008091F2009FBF90E008951F93CF93DF9301
:100C0000C1E0C0936602882399F1D091B800109199
:100C1000BA008091BC008A7B8093BC0060E082E0D7
:100C20000E94BA0260E083E00E94BA0210921103AF
:100C3000C09310031092EB0261E082E00E94BA02BE
:100C400061E083E00E94BA028091B9008E7F8093B8
:100C5000B9008091B9008D7F8093B90088E48093BA
:100C6000B80085E48093BC001093BA00D093B8001C
:100C7000DF91CF911F9108958F929F92AF92BF9273
:100C8000CF92DF92EF92FF920F931F93CF93DF9358
:100C9000D0913A03D13208F0D7C0182FC091390350
:100CA0000E94EB036B017C018091110381116BC0E9
:100CB00082E080931103109310038FEF80930F0352
:100CC00010920E03D0930D03A9E1B3E0EDEEF2E034
:100CD00080E0D81391C01092EC028091EC02CC0F0E
:100CE000C82BC093EC028091EB02813009F088C0E0
:100CF0001092EB020E94EB036B017C018091EC02ED
:100D00008093BB008091130390911403A09115036D
:100D1000B0911603892B8A2B8B2BA1F00E94EB0339
:100D200000911303109114032091150330911603C1
:100D30006C197D098E099F090617170728073907BF
:100D400008F442C08091BC0083FDD8CF85EC80932D
:100D5000BC000E94EB036B017C0180911103823087
:100D600009F450C080910F038F3F09F46FC0809148
:100D70000F03803209F46CC080910F03803309F4B3
:100D800069C084E026C08091130390911403A09160
:100D90001503B0911603892B8A2B8B2B09F484CF72
:100DA0000E94EB038090130390901403A09015030E
:100DB000B09016036C197D098E099F098616970657
:100DC000A806B90608F070CF809112030E94FD05B5
:100DD00085E01092180310923A0310921703DF91E6
:100DE000CF911F910F91FF90EF90DF90CF90BF9028
:100DF000AF909F908F9008959D9191938F5F69CF51
:100E000085EEA5CF8091130390911403A091150353
:100E1000B0911603892B8A2B8B2B09F49ECF0E944D
:100E2000EB030091130310911403209115033091EB
:100E300016036C197D098E099F09061717072807E5
:100E4000390708F08ACFC0CF81E0C3CF80E0C1CF9F
:100E500082E0BFCF83E0BDCF20918702260F3327EA
:100E6000331F21323105ECF420911103FC0190E095
:100E700080E0243069F082E00895A09187022191FA
:100E8000AC0149595D4FA40FB52FB11D2C930196AC
:100E9000861798F380918702680F6093870280E03D
:100EA000089581E008950895E091CA028091C902F1
:100EB000E81730F4F0E0E553FD4F808190E00895AD
:100EC0008FEF9FEF08959091CA028091C9022FEF92
:100ED0003FEF981748F4E92FF0E0E553FD4F2081EC
:100EE00030E09F5F9093CA02C90108958091C902C2
:100EF0009091CA02891B990B0895CF92DF92EF92CD
:100F0000FF920F931F93CF93DF937C01CB018A0154
:100F100020911703222389F0EB016B01C40ED51E2B
:100F2000CC15DD0569F06991D701ED91FC91019037
:100F3000F081E02DC7010995F3CF642F0E942C07A3
:100F4000C801DF91CF911F910F91FF90EF90DF903B
:100F5000CF900895CF93DF931F92CDB7DEB769830B
:100F6000209117032223F9F020913A03203258F000
:100F700021E030E0FC013383228390E080E00F9099
:100F8000DF91CF91089580911803E82FF0E0E75E9C
:100F9000FC4F998190838F5F8093180380933A036D
:100FA00081E090E0ECCF61E0CE0101960E942C0739
:100FB000F7CF90E080E00895089581E00895DC0186
:100FC00012968D919C91DC01ED91FC910680F78148
:100FD000E02D0994CF92DF92EF92FF920F931F932F
:100FE000CF93DF937C016A018B01D0E0C0E0CC1588
:100FF000DD05F1F0D70112968D919C91DC01ED9108
:10100000FC910084F185E02D0995892B89F0F70189
:1010100082819381DC01ED91FC910284F385E02DC6
:10102000099597FD05C02196F80181938F01DFCFC7
:10103000CE01DF91CF911F910F91FF90EF90DF9044
:10104000CF900895DC0112968D919C91DC01ED9179
:10105000FC910084F185E02D0994DC0112968D91BC
:101060009C91DC01ED91FC910280F381E02D0994CB
:10107000FC0182850895CF92DF92EF92FF920F9349
:101080001F93CF93DF938C01FC01C481D5812097FE
:1010900009F454C0C680D780E084F184E889F989D6
:1010A00082E08083C114F1EEDF06E104F104A1F0D7
:1010B00060E079E08DE390E0A70196010E94E318DB
:1010C0002150310941095109569547953795279582
:1010D000211580E1380798F0E889F989108260E8E5
:1010E00074E88EE190E0A70196010E94E318215078
:1010F0003109410951095695479537952795EC8552
:10110000FD853083EE85FF852083188EEC89FD896F
:1011100086E08083EA89FB89808180618083EA8917
:10112000FB89808188608083EA89FB89808180686F
:101130008083EA89FB8980818F7D808381E0F8014B
:101140008287DF91CF911F910F91FF90EF90DF90F9
:10115000CF9008950F931F93CF93DF93DC01FB0192
:1011600082818C93938111969C931197948112960E
:101170009C9312976581768114967C936E93139756
:101180008130F1F5CB01089648175907E0F1611558
:10119000710501F1CF01079616969C938E931597D2
:1011A0008B010B5F1F4FAF014E5F5F4F30E020E0C0
:1011B00080E02017310798F0E60FF71F9781981706
:1011C000D1F017969C9384E090E0DF91CF911F912E
:1011D0000F91089516961C921E921597E1CFEA0181
:1011E0009991AE01C92FC827D0E0C75EDE4F888134
:1011F0002F5F3F4FDECF17968C9390E080E0E5CFD6
:1012000083E090E0E2CF85E090E0DFCF0895FC013D
:1012100084819581AC014E5F5F4F22813381241719
:101220003507C8F0A081B1819C012F5F3F4F358306
:101230002483A80FB91F6C9380819181248135810B
:10124000A9014F5F5F4F55834483FC01E20FF31FF9
:10125000708381E0089580E00895FC018481958188
:101260009C012E5F3F4F428153814217530758F034
:10127000A081B181A80FB91F11969C9111978C91F3
:1012800035832483089590E080E00895FC01248153
:101290003581828193812817390760F4808191819B
:1012A000A9014F5F5F4F55834483FC01E20FF31F99
:1012B0008081089580E00895CF92DF92EF92FF92AF
:1012C0000F931F93CF93DF93D82FC62F0E94EB036A
:1012D0006B017C0180911103811168C0C13208F05B
:1012E000C0E281E080931103809310039FEF9093FD
:1012F0000F0310920E039C0F90930D038093EC024A
:101300008091EC02DD0FD82BD093EC028091EB02A0
:10131000813009F07FC01092EB020E94EB036B0159
:101320007C018091EC028093BB008091130390912B
:101330001403A0911503B0911603892B8A2B8B2BD4
:10134000A1F00E94EB03009113031091140320916C
:101350001503309116036C197D098E099F09061734
:1013600017072807390708F442C08091BC0083FDA5
:10137000D8CF85EC8093BC000E94EB036B017C010D
:1013800080911103813009F447C080910E038C17BE
:1013900010F4C0910E03EDEEF2E0ABECB2E080E0B1
:1013A0008C1751F191919D938F5FFACF8091130328
:1013B00090911403A0911503B0911603892B8A2BE9
:1013C0008B2B09F487CF0E94EB030091130310913C
:1013D000140320911503309116036C197D098E09B1
:1013E0009F09061717072807390708F073CF809160
:1013F00012030E94FD05C0E01092CA02C093C90208
:101400008C2FDF91CF911F910F91FF90EF90DF9084
:10141000CF90089585EEAECF809113039091140381
:10142000A0911503B0911603892B8A2B8B2B09F4FD
:10143000A7CF0E94EB030091130310911403209196
:101440001503309116036C197D098E099F09061743
:1014500017072807390708F093CFC9CF9F92AF929B
:10146000BF92CF92DF92EF92FF920F931F93CF9391
:10147000DF93CDB7DEB7CC58D1090FB6F894DEBFF5
:101480000FBECDBF8C01DC0111968C911197823279
:1014900009F4EEC308F0A6C0823109F4A1C1F0F549
:1014A000823009F45BC128F4813009F43BC161E06A
:1014B0008BC1803109F45CC18131C9F7F8018381A6
:1014C00094818230910508F459C115962D913C9173
:1014D0003A8329839C838B831E821D82CE010196D1
:1014E0000E944609E82ECE0101960E944609F82E78
:1014F000F80183819481039708F468C1CE010196B5
:101500000E9446096F2D823009F465C161E0F11037
:1015100001C060E08E2D0E94BA02EBC0843109F454
:101520008FC208F4CEC1803209F45BC3813209F066
:10153000BECF13968D919C9114978230910508F43B
:1015400057C3F80125813681C957DF4F3983288376
:10155000C758D040C757DF4F99838883C958D040B8
:10156000C557DF4F19821882CB58D040CE0189571A
:101570009F4F0E944609F82E88EF8F0D803708F0A4
:101580004CC3CE0189579F4F0E944609FE013196F8
:101590006F01CF57DF4FF983E883C158D04020E86F
:1015A00030E0CD57DF4F39832883C358D040CB5725
:1015B000DF4F19821882C558D040682F8F2D0E94A6
:1015C0005C09E82EF12CEF1409F4C6C38BE393E019
:1015D0000E946307682FCE018F579F4F0E94080219
:1015E000F394F1CF803609F4A7C208F077C08034B5
:1015F00009F44FC208F065C0803309F058CFF801F4
:101600008381948161E08230910508F4B8C0159619
:101610002D913C91C957DF4F39832883C758D0405B
:10162000C757DF4F99838883C958D040C557DF4FCC
:1016300019821882CB58D040CE0189579F4F0E9403
:101640004609982EF801C380D480F1E0CF1AD10862
:101650009E012F5F3F4F5901CF57DF4F39832883BA
:10166000C158D04080E890E0CD57DF4F9983888300
:10167000C358D040CB57DF4F19821882C558D0408D
:1016800081E58CBD1DBC60E0892D0E94BA02F12C61
:10169000E12CEC14FD0408F06BC3CE0189579F4F79
:1016A0000E9446098EBD00000DB407FEFDCF6EB549
:1016B000CE018F579F4F0E9408023FEFE31AF30AB3
:1016C000E8CF803509F464C3813509F0F0CE10927B
:1016D00072061092670610926606D5C1833778F4B9
:1016E000803708F097C3813609F472C2823609F058
:1016F000DECED80112968C910E94ED011CC0803F75
:1017000009F0D5CE90914F0427E433E080E0235FC9
:101710003F4F981709F45EC2F901E156FF4F10825E
:101720008F5FF5CF30E020E050E040E0F8016281CB
:1017300080E80E940501C457DF4F0FB6F894DEBF62
:101740000FBECDBFDF91CF911F910F91FF90EF9012
:10175000DF90CF90BF90AF909F9008952091640646
:101760003091650644EE55E012966C9181E8E1CF28
:10177000F801838194818230910518F464E08281BC
:1017800092C115962D913C913A8329839C838B833A
:101790001E821D82CE0101960E944609F82ECE01BE
:1017A00001960E944609833040F460E0813008F0E1
:1017B00061E08F2D0E94E8029CCF833009F499CF1D
:1017C00062E08430B1F365E0F801D9CFF1E06F2D2C
:1017D000FF1508F09FCE70E08E2D0E94240389CF64
:1017E000F80183819481009749F215962D913C91DF
:1017F000CF57DF4F39832883C158D040CD57DF4FB3
:1018000099838883C358D040CB57DF4F1982188201
:10181000C558D040CE018F579F4F0E944609D82E01
:10182000F80183819481029730F1CE018F579F4F49
:101830000E9446097E01F7E8EF0EF11CFA82E98268
:1018400024E030E03C832B8321E030E03E832D8395
:10185000D701DC92833089F48D2D0E94C703BC012F
:10186000CE0101960E9407092D813E81A701F80152
:10187000628181E95ECF80E0DDCF2D2D30E0F9017E
:10188000EB56FE4F8491F901EA58FE4FD490F901CE
:10189000E95AFE4FC49060E070E0CC2009F381115A
:1018A0000E946E02EC2DF0E0EE0FFF1FE75BFE4F93
:1018B000A591B491EC91DE2261E070E089F660E0E0
:1018C000CFCF13968D919C91149764E0853091054C
:1018D00008F48FC1F801258136813A8329839C83DE
:1018E0008B831E821D82CE0101960E944609C82E5E
:1018F000CE0101960E944609D82ECE0101960E9483
:101900002D097C01D80113968D919C91079708F4BD
:1019100048C0CE0101960E942D0920914F04E7EEA8
:10192000F3E050E040E0421708F042C03081C312BB
:101930003BC034853323C1F12DE0249FF001259F66
:10194000F00D1124E851FC4FD082E114F10419F498
:1019500034E6E32EF12C6DE0649F9001659F300D1D
:101960001124295B3C4FF901EE55FF4FF182E082D3
:101970003296918380833296118210824FB7F89409
:101980008091C5029091C602A091C702B091C80291
:101990004FBF28553F4FF90180839183A283B383C2
:1019A000A8CE90E080E0B9CF4F5F5F4F3D96BBCFB0
:1019B0006BE0283009F408CF422F50E0FDE02F9F64
:1019C00090011124295B3C4FF901E056FF4FC08282
:1019D0002F553F4FD901DC92E114F10419F424E6AC
:1019E000E22EF12C6DE0649F9001659F300D112473
:1019F000295B3C4FF901EE55FF4FF182E0823296B0
:101A0000918380833296118210824FB7F89480912F
:101A1000C5029091C602A091C702B091C8024FBF03
:101A2000329680839183A283B38324553F4F81E014
:101A3000F901808380914F048F5F80934F0459CECA
:101A4000F80183819481892B19F464E0D801D1C015
:101A50001596ED91FC91208130914F04E7EEF3E073
:101A600090E080E0831788F7408124130FC04485FD
:101A7000442361F02DE0289FF001299FF00D1124EF
:101A8000ED50FC4F1082F801828136CE01963D96D2
:101A9000E9CF13962D913C91149712968C91223098
:101AA000310520F468E00E94F50145CEF801A581DA
:101AB000B681EC9190916503E917A0F7F0E0EE0F85
:101AC000FF1FE35AFC4FE080F180E114F10451F371
:101AD00011966C9111971296BA83A98322503109FD
:101AE0003C832B831E821D8227E433E0CF57DF4FD8
:101AF00039832883C158D040CD57DF4F8883C358DE
:101B0000D040CC57DF4F1882C458D040D701ED9158
:101B1000FC910484F585E02D9E012F573F4FAE01C7
:101B20004F5F5F4FC7010995CC57DF4F8881C4587D
:101B3000D040811100CEA7CF13962D913C911497E0
:101B400012968C912230310510F46DE0ACCFF80183
:101B5000A581B681EC919091E603E917B0F760E2B8
:101B6000E69FF0011124E95BFC4F92AD6EE09923F2
:101B700009F499CF1196BA83A983215031093C8386
:101B80002B831E821D8227E433E0CF57DF4F39833A
:101B90002883C158D040CD57DF4F8883C358D040E9
:101BA000CC57DF4F1882C458D04005ACF6ADE02DBD
:101BB000309731F0BE016F577F4FCE0101960995E6
:101BC000CC57DF4F8881C458D0408111B4CD91CD1E
:101BD0006DE0FACD10924F041092D9041092D804FF
:101BE00052CF13968D919C9114978230910520F4D9
:101BF00066E012968C9157CFF801258136813A83A1
:101C000029839C838B831E821D82CE0101960E94B4
:101C1000460998EF980F903710F066E017CFF8015B
:101C2000C380D480F1E0CF1AD10891E090931703DC
:101C3000809339031092180310923A03F12CE12C8F
:101C4000EC14FD0468F4CE0101960E944609682F49
:101C50008BE393E00E94AA072FEFE21AF20AF0CF7B
:101C600081E00E943C06882309F443CD67E0ACCDB7
:101C7000F8018381948166E08330910508F47FCD7B
:101C800015962D913C91C957DF4F39832883C7584A
:101C9000D040C757DF4F99838883C958D040C55774
:101CA000DF4F19821882CB58D040CE0189579F4F01
:101CB0000E944609E82E88EF8E0D66E0803708F016
:101CC00083CDCE0189579F4F0E944609F82ECE0141
:101CD00089579F4F0E944609B82E81E080931703D1
:101CE000E09239031092180310923A036F2D8BE3A0
:101CF00093E00E94AA0780E00E943C06F82E67E06D
:101D00008111A4CEFE0131966F01CF57DF4FF983C9
:101D1000E883C158D04080E890E0CD57DF4F9983E9
:101D20008883C358D040CB57DF4F19821882C558DB
:101D3000D0406B2D8E2D0E945C09E82EEF1461F0CF
:101D40008BE393E00E946307682FCE018F579F4F6C
:101D50000E940802F394F2CFCB57DF4F28813981DC
:101D6000C558D040A601D80112966C9180EAE1CC0A
:101D700061E0892D0E94BA02CB57DF4F288139815B
:101D8000C558D040A501D80112966C9180EBD1CCFA
:101D9000F801838194818530910508F456CE258120
:101DA00036813A8329839C838B831E821D82CE01D8
:101DB00001960E942D099093670680936606CE01D6
:101DC00001960E942D09909369068093680621E090
:101DD0002093720620E137E240E050E0009749F09E
:101DE0009C0150E040E060E472E48FE090E00E94EB
:101DF000E31820936A0630936B0640936C06509369
:101E00006D0610926E0610926F0610927006109278
:101E100071066FCC6FE01ACEEF92FF920F931F9373
:101E2000CF93DF93EC012C813D81F901E40FF51F85
:101E30008A819B818E179F07A0F1FB0101900020F2
:101E4000E9F73197E61BF70B7A01E417F50708F479
:101E50007F018A0188819981A701820F931F0E94C7
:101E6000301AE016F10678F4A8014E195F098C814A
:101E70009D81E80EF91E8881998170E060E08E0DE9
:101E80009F1D0E944B1A4C815D81040F151F1D83FD
:101E90000C8381E0DF91CF911F910F91FF90EF9024
:101EA000089580E0F7CF85ED8093BC008091130307
:101EB00090911403A0911503B09116030796A11DEC
:101EC000B11D23E0B695A795979587952A95D1F7EB
:101ED0002091BC0024FD03C010921103089540918D
:101EE0001303509114036091150370911603452B51
:101EF000462B472B69F30097A105B10541F02AE273
:101F00002A95F1F700C00197A109B109E1CF8091AD
:101F100012030C94FD050C94A7191F920F920FB693
:101F20000F9211242F933F938F939F93AF93BF935F
:101F30008091C5029091C602A091C702B091C802DB
:101F40003091B20223E0230F2D3758F50196A11DE1
:101F5000B11D2093B2028093C5029093C602A09354
:101F6000C702B093C8028091B3029091B402A091CD
:101F7000B502B091B6020196A11DB11D8093B302C6
:101F80009093B402A093B502B093B602BF91AF9103
:101F90009F918F913F912F910F900FBE0F901F90A7
:101FA000189526E8230F0296A11DB11DD2CF1F92CE
:101FB0000F920FB60F9211248F939F938091E1009F
:101FC0009091E100937F9093E10083FF0FC0109206
:101FD000E90091E09093EB001092EC0092E3909373
:101FE000ED001092C40298E09093F00082FF22C0AE
:101FF00093E09093E9009091F200992319F09AE30D
:102000009093E8009091AF02992341F09091AF0234
:1020100091509093AF02911101C05D9A9091C302CB
:10202000992341F09091C30291509093C302911172
:1020300001C0289A84FF18C08091E2008E7E8160E2
:102040008093E2008091E1008F7E8093E100809197
:10205000B0028E7E80618093B0029F918F910F902D
:102060000FBE0F901F90189580FFF7CF8091E20070
:102070008E7E80618093E2008091E1008E7E80936D
:10208000E1008091B0028E7E8160E5CF1F920F92B9
:102090000FB60F921124CF92DF92EF92FF920F931F
:1020A0001F932F933F934F935F936F937F938F93E0
:1020B0009F93AF93BF93EF93FF93CF93DF93CDB7EE
:1020C000DEB76C97DEBFCDBF1092E9008091E800CB
:1020D00083FF25C068E0CE0145960E94EE0482EFA2
:1020E0008093E8008D8987FF39C09091E80090FFC8
:1020F000FCCF982F907609F034C19E894F89588D76
:102100002F89F88C911131C0803861F58091B1022E
:102110008093F1001092F1008EEF8093E8006C96AE
:102120000FB6F894DEBF0FBECDBFDF91CF91FF9108
:10213000EF91BF91AF919F918F917F916F915F913F
:102140004F913F912F911F910F91FF90EF90DF9052
:10215000CF900F900FBE0F901F9018959EEF909309
:10216000E800C7CF1092F100D5CF913059F481111A
:10217000D3CF4130510581F68091B1028D7F80939C
:10218000B102CACF933049F48111C6CF4130510515
:1021900019F68091B1028260F2CF953041F48091BE
:1021A000E80080FFFCCF20682093E300B5CF963095
:1021B00009F0A9C00B8D1C8D22E01092E90010924D
:1021C000AD021092AC02F2122EC01092AB0210922D
:1021D000AA020E94BD041F8299E09983FA8291E0CD
:1021E0009E8390EA98879AEF99872091AC0230916C
:1021F000AD02275F3F4F3C832B838D831092E90014
:102200001092AD021092AC021093AB020093AA029E
:1022100049E050E0BE016F5F7F4F80E00E9497046D
:102220000E94BD0479CF1093AB020093AA020E94D2
:102230005A02DC0112960D911C910115110509F449
:1022400051C1D801ED91FC910480F581E02DBE01D2
:102250006B5E7F4FC8010995009709F03EC1F801F8
:1022600000851185EACFF3E0FF120EC08F89882325
:1022700009F440C0823061F440E860E180E191E01F
:102280000E946404811148CF81E28093EB0047CF24
:10229000813029F440E86BE084E091E0F1CF8330B5
:1022A00099F70E945A02DC011296ED90FC908E0183
:1022B0000F5F1F4F6801E114F10479F0D701ED9130
:1022C000FC910680F781E02DB801C7010995080F40
:1022D000111DF701E084F184EECFD8011C92F601C4
:1022E00001900020E9F73197BF016C197D0940E0AA
:1022F000C601C6CF6EEE70E0FB01449150E080E86D
:102300000E94970409CF973009F4BECF983021F48A
:1023100081E08093F10000CF993009F0FDCE837009
:1023200009F0B2CFE3E1F1E081E031E096E3219101
:10233000222371F08093E9003093EB00DF011197C5
:102340002C912093EC009093ED008F5F873079F70C
:102350008EE78093EA001092EA008F898093C4028E
:10236000DBCE8B8D9C8D1092E9001092AD02109205
:10237000AC029093AB028093AA02898D811192C026
:102380008E899D89913A49F4813209F07DCF47E0E9
:1023900050E064E071E080E0B3CF913209F074CF97
:1023A000833269F48F89988DB0E0A0E080930001BA
:1023B00090930101A0930201B0930301ADCE80324E
:1023C00069F48091E80082FFFCCF67E084E091E04F
:1023D0000E94EE048BEF8093E8009ECE823209F0DB
:1023E0009BCE8F8980930B01EEEFFFE7859194914F
:1023F0008B3F9C4D51F1E0E0F8E080910401909119
:102400000501A0910601B0910701803B9440A10510
:10241000B105F1F480910B0180FD1AC0EE3F8AE016
:10242000F80789F587E797E79183808380916000BB
:102430008093AE0288E19BE00FB6F894A895809354
:1024400060000FBE9093600067CEEEEFFAE0D5CF4C
:10245000808191818737974709F05ECEA89580915A
:1024600060008861809360008091AE02809360007C
:10247000EE3F2AE0F20789F08091FE0A9091FF0A70
:102480009183808349CE808191818737980751F26B
:102490009093FF0A8093FE0AC5CF1092FF0A109214
:1024A000FE0A3ACE0E945A02DC0112960D911C914E
:1024B0000115110509F4E8CED801ED91FC910190C8
:1024C000F081E02DBE016B5E7F4FC801099581113F
:1024D00023CEF80100851185EBCF181619060CF4F0
:1024E0001BCED2CEF1E0FF12BECE62EF70E004CF81
:1024F0001F920F920FB60F9211242F933F934F9379
:102500005F936F937F938F939F93AF93BF93EF935B
:10251000FF938091B900887F803609F44AC0F0F5B6
:10252000883209F4A5C018F5803109F499C0B8F4CF
:10253000882309F4F5C0883009F492C0FF91EF9127
:10254000BF91AF919F918F917F916F915F914F91CB
:102550003F912F910F900FBE0F901F9018958831CB
:1025600009F486C0803251F780930F0314C0803481
:1025700009F49BC040F48033B9F38833F9F68093B3
:102580000F0385ECAEC0803509F483C0883509F4AB
:1025900094C0883499F60E94530FD0CF883909F43B
:1025A0008AC038F5883729F050F4883611F0803722
:1025B00029F683E0809311031092A90255C0883850
:1025C00009F479C0803919F0803809F0B7CF8091CB
:1025D000A902803208F06FC0E091A90281E08E0F5D
:1025E0008093A9028091BB00F0E0E757FD4F808304
:1025F0003BC0803B39F0D0F4803A09F477C0883A88
:1026000009F09CCF84E0809311031092880210920D
:102610008702F0E0E0E009958091870281110FC008
:1026200081E0809387021092670209C0803C09F420
:10263000A8CF883C09F4A5CF883B09F07FCFE09173
:10264000880281E08E0F80938802F0E0E959FD4F07
:1026500080818093BB00909188028091870229C07D
:102660008091EC028093BB0085EC8093BC0066CF28
:1026700090910E0380910D03981758F5E0910E0389
:1026800081E08E0F80930E03F0E0E351FD4F8081D7
:10269000E9CFE0910E0381E08E0F80930E038091CD
:1026A000BB00F0E0E351FD4F808390910E038091D9
:1026B0000D039817C8F285E8D8CFE0910E0381E0AA
:1026C0008E0F80930E038091BB00F0E0E351FD4F2D
:1026D00080838091100381115ECF81E08093EB02B3
:1026E00084EA8093BC001092110328CF85EC80937C
:1026F000BC00109211038091A902803230F4E09165
:10270000A902F0E0E757FD4F10826091A90270E046
:1027100089E892E0F0E0E0E009951092A9020ECF7E
:1027200010920F0338CF1F93CF93DF9300D000D0C8
:1027300000D0CDB7DEB7109276061092750688EEFF
:1027400093E0A0E0B0E08093770690937806A093A2
:102750007906B0937A062DE132E030937406209327
:1027600073062FEF3FEF3093800620937F06109281
:102770003E0310923D0380933F0390934003A09348
:102780004103B09342038FE292E090933C03809325
:102790003B0381E492E09093C4068093C30683E7F1
:1027A00096E09093C6068093C5061092C8061092D4
:1027B000C70680E092ECA1E0B0E08093C906909358
:1027C000CA06A093CB06B093CC061092CD0683EC3C
:1027D00096E090935C0380935B03109265031092E4
:1027E000E60310924F041092D9041092D80410926C
:1027F00065061092640610926706109266061092A3
:1028000069061092680610926A0610926B06109282
:102810006C0610926D0610926E0610926F06109262
:1028200070061092710610927206E7E4F3E081E1FF
:10283000DF011D928A95E9F740E150E065E572E01D
:10284000CF010E94521A109258031092590310920D
:102850005A031A8219821C821B821E821D82A0E6E4
:10286000B2E030E020E01AE08D91882329F1233096
:10287000310514F58E3219F42F5F3F4FF5CF90EDEF
:10288000980F9A3088F7F901EE0FFF1F41E050E0F2
:102890004C0F5D1FE40FF51F60817181169FA00131
:1028A000179F500D1124082E000C990BC097840F10
:1028B000951F91838083D8CF8981809358038B8122
:1028C000809359038D8180935A03EDE5F3E088E00E
:1028D000DF011D928A95E9F7E6E6F3E080E8DF0183
:1028E0001D928A95E9F7E7EEF3E088E6DF011D9295
:1028F0008A95E9F726960FB6F894DEBF0FBECDBFD6
:10290000DF91CF911F910895CF93DF93CDB7DEB7BD
:10291000CE58D1090FB6F894DEBF0FBECDBF789464
:1029200084B5826084BD84B5816084BD85B58260D4
:1029300085BD85B5816085BD80916E008160809385
:102940006E001092810080918100826080938100EE
:1029500080918100816080938100809180008160FE
:10296000809380008091910082608093910080919B
:1029700091008160809391008091900081608093AC
:1029800090008091C10084608093C1008091C1005B
:1029900082608093C1008091C10081608093C100FA
:1029A0008091C30081608093C3008091C0008260E9
:1029B0008093C0008091C20081608093C2008091AA
:1029C0007A00846080937A0080917A00826080939C
:1029D0007A0080917A00816080937A0080917A00F9
:1029E000806880937A001092C4021092B102109213
:1029F000B0028091D70081608093D70080EA8093F5
:102A0000D80089B5806189BD89B5826089BD09B466
:102A100000FEFDCF0E9410048091D8008F7C806161
:102A20008093D8008091E000807F8093E0008091C7
:102A3000E1008E7E8093E1008DE08093E200559A64
:102A4000209A80915B0390915C03DC01ED91FC91F5
:102A50000480F581E02D099510E047E4E42E43E081
:102A6000F42E809165031817C8F4E12FF0E0EE0F03
:102A7000FF1FE35AFC4FA081B181109769F01396B4
:102A8000FC92EE92129780819181DC01ED91FC9194
:102A90000284F385E02D09951F5FE3CF84EE95E076
:102AA0009A83898380E890E09C838B831E821D82B9
:102AB00040E150E067E473E08E010F5F1F4FC801F3
:102AC0000E940C0F60915803C8010E940802609197
:102AD0005903C8010E94080260915A03C8010E946C
:102AE00008028D819E81AC01485F5F4F2B813C8144
:102AF0002417350770F0E981FA81E80FF91F88E0A3
:102B0000DF011D928A95E9F78D819E8108969E834B
:102B10008D8360E0C8010E9408026FE1C8010E9435
:102B20000802F12CB3E0FB1609F49CC08BEF8F0D6B
:102B3000823008F49BC087EF8F0D833008F496C075
:102B4000EDE0FE1609F492C0BF1508F08DC0F7E065
:102B500063E0FF1201C06068C8010E940802F3949C
:102B60002FE1F212DFCF61E0C8010E94080261E0AC
:102B7000C8010E94080262E0C8010E94080260E8E1
:102B800070E0C8010E94070960916503C8010E94B6
:102B90000802D12C80916503D81608F06BC0ED2D8A
:102BA000F0E0EE0FFF1FE35AFC4FE080F180E114EC
:102BB000F10409F45DC06D2DC8010E940802D7011F
:102BC000ED91FC910480F581E02DC701099548E065
:102BD00050E0BC01C8010E940C0FD701ED91FC919F
:102BE0000680F781E02DC7010995682FC8010E9472
:102BF0000802D701ED91FC910084F185E02DC70119
:102C00000995682FC8010E940802D701ED91FC9137
:102C10000088F189E02DC7010995682FC8010E943D
:102C20000802D701ED91FC910288F389E02DC701DC
:102C300009955C01C12CD701ED91FC910088F189C7
:102C4000E02DC7010995C81698F460E0A114B104FD
:102C500021F0F501EC0DF11D6081C8010E94080210
:102C6000C394E9CF67E077CF63E075CF67E074CFB7
:102C7000D39490CF6091E603C8010E940802D12C42
:102C80008091E603D81678F5B0E2DB9E700111243E
:102C9000B7016A597C4F40E150E0C8010E940C0F17
:102CA000F701E95BFC4F5F0160A9C8010E940802BF
:102CB000B70168587C4F48E050E0C8010E940C0FF3
:102CC000D501DA966C91C8010E940802F50163AD46
:102CD000C8010E940802D501DC966C91C8010E94CF
:102CE0000802D394CDCF8D819E8190936506809309
:102CF00064067E01B9E8EB0EF11C9DE0892E8091FF
:102D00005B0390915C03DC01ED91FC910680F781FF
:102D1000E02D0995882309F444C280915B039091CA
:102D20005C03DC01ED91FC910288F389E02D0995AB
:102D300080915B0390915C03DC01ED91FC91008834
:102D4000F189E02D0995882309F4B1C080915B03D6
:102D500090915C03DC01ED91FC910284F385E02D00
:102D60000995892B09F414C180915B0390915C0350
:102D7000DC01ED91FC910484F585E02D41E050E00B
:102D8000B7010995019709F003C1F70120818091EE
:102D9000D8049091D90421115BC00097B9F2D12CCD
:102DA000C12C50E040E033C0BA016F5F7F4FFA01A1
:102DB000E05BFB4FA081AA2309F459C0BFEFBA0F13
:102DC0002B2F30E0620F731F8617970708F44FC050
:102DD0002C0D3D1D2938310508F049C0FA01EF5A84
:102DE000FB4F5F01C00ED11E40E04B1748F1AF3FD3
:102DF00061F06817790748F428383105C1F1F80106
:102E0000E20FF31F10822F5F3F4F6901AB0148179C
:102E1000590750F2C114D10451F1A601B80180E55F
:102E200094E00E94301AD092D904C092D804F8E0FD
:102E3000CF16D10408F51092D9041092D804A8C076
:102E4000F50151915F01F60151936F014F5FCDCFB5
:102E50008838910560F4AC014F5F5F4F5093D904FF
:102E60004093D804805B9B4FDC012C936FCF109272
:102E7000D9041092D8046ACF809150048334D9F6D3
:102E8000809151048434B9F6A60160E574E0C8016C
:102E90000E94AA08009721F4C8010E942E0ACBCFF5
:102EA000049749F662E080E00E94F501C4CF80916A
:102EB0005B0390915C03DC01ED91FC910284F3854E
:102EC000E02D0995181619060CF062C06091D8041F
:102ED0007091D90428E830E0261B370B28173907F2
:102EE00008F4C901A0915B03B0915C03605B7B4F68
:102EF000ED91FC9111970484F585E02DAC01CD0195
:102F000009951816190654F42091D8043091D90463
:102F1000820F931F9093D9048093D8044091D804D2
:102F20005091D9044830510598F180915004833470
:102F300079F580915104843459F560E574E0C80155
:102F40000E94AA08009709F00DC1C8010E942E0A2C
:102F5000CC80DD80B8E0CB0ED11C4091D8045091DC
:102F6000D904C416D50608F066CF4C195D09B60120
:102F7000605B7B4F80E594E00E94391A8091D80411
:102F80009091D9048C199D099093D9048093D80409
:102F900080917206882309F45AC00E94EB03409086
:102FA0006E0650906F0660907006709071069B01DF
:102FB000AC01241935094609570940906A0650901A
:102FC0006B0660906C0670906D06241535054605FD
:102FD0005705E8F160936E0670936F068093700654
:102FE00090937106F7011183008320E830E033836A
:102FF000228315821482D12CC12C20916606309137
:10300000670681E090E00C2C02C0880F991F0A949B
:10301000E2F782239323892B39F08C2D0E94C7037A
:10302000BC01C7010E9407093FEFC31AD30A40E160
:10303000C416D10411F7D70114962D913C91211596
:10304000310529F0A80160E080ED0E9405018FB7ED
:10305000F8944090C5025090C6026090C7027090EC
:10306000C8028FBF912C80914F04981608F081C040
:10307000292C312C829CC001839C900D1124FC01D1
:10308000E95BFC4F6F01E455FF4F8081882309F411
:1030900067C03B978081843009F062C03796808199
:1030A0009181A281B381B301A201481B590B6A0B24
:1030B0007B0B369780819181B0E0A0E048175907DB
:1030C0006A077B0708F44CC0329780810E94C703CF
:1030D0005C01F601EA55FF4F808191818A159B05BD
:1030E00008F044C09501281B390BC901829C90014E
:1030F000839C300D1124A901495B5C4F6A01FA01E0
:10310000EC55FF4F2081318182179307F0F0FA824E
:10311000E98283E090E09C838B8334978081A1E0F7
:10312000B0E0BE83AD83F7018083B501C8010E9482
:1031300007092D813E81A70160E080E90E94050119
:10314000F601EA55FF4FB182A082829CF001839C78
:10315000F00D1124E151FC4F408251826282738252
:10316000939481CF049709F013CF9CCE8A199B09C1
:10317000BDCFD12C80916503D81698F4ED2DF0E0E9
:10318000EE0FFF1FE35AFC4F80819181009739F0C9
:10319000DC01ED91FC910684F785E02D0995D3942F
:1031A000E9CFE0E0F0E0EF2B09F4A9CD20E030E03A
:1031B000232B09F4A4CD0E940000882309F49FCD9D
:1031C0000E9400009CCDA1E21A2EAA1BBB1BFD0190
:1031D0000DC0AA1FBB1FEE1FFF1FA217B307E407F6
:1031E000F50720F0A21BB30BE40BF50B661F771F4E
:1031F000881F991F1A9469F760957095809590952E
:103200009B01AC01BD01CF010895EE0FFF1F05909A
:10321000F491E02D09940F931F93CF93DF938230A5
:10322000910510F482E090E0E091D006F091D10693
:1032300030E020E0B0E0A0E0309799F421153105AE
:1032400009F44AC0281B390B24303105D8F58A818E
:103250009B816115710589F1FB0193838283FE01D6
:1032600011C0408151810281138148175907E0F054
:103270004817590799F4109761F012960C9312971A
:1032800013961C933296CF01DF91CF911F910F912E
:1032900008950093D0061093D106F4CF211531057F
:1032A00051F04217530738F0A901DB019A01BD0123
:1032B000DF01F801C1CFEF01F9CF9093D1068093E0
:1032C000D006CDCFFE01E20FF31F819391932250E0
:1032D000310939832883D7CF2091CE063091CF068C
:1032E000232B41F420910E0130910F013093CF0632
:1032F0002093CE0620910C0130910D01211531054E
:1033000041F42DB73EB74091100150911101241B9B
:10331000350BE091CE06F091CF06E217F307A0F44B
:103320002E1B3F0B2817390778F0AC014E5F5F4F1B
:103330002417350748F04E0F5F1F5093CF06409378
:10334000CE06819391939FCFF0E0E0E09CCFCF93A6
:10335000DF930097E9F0FC01329713821282A0916B
:10336000D006B091D106ED0130E020E01097A1F435
:1033700020813181820F931F2091CE063091CF069C
:103380002817390709F061C0F093CF06E093CE0605
:10339000DF91CF910895EA01CE17DF07E8F54A8162
:1033A0005B819E0141155105B1F7E901FB83EA8379
:1033B00049915991C40FD51FEC17FD0761F4808125
:1033C00091810296840F951FE901998388838281F8
:1033D00093819B838A83F0E0E0E012968D919C912B
:1033E00013970097B9F52D913C911197CD01029655
:1033F000820F931F2091CE063091CF0628173907F0
:1034000039F6309751F51092D1061092D006B0934C
:10341000CF06A093CE06BCCFD383C2834081518117
:10342000840F951FC817D90761F44E5F5F4F8881DD
:103430009981480F591F518340838A819B819383CF
:1034400082832115310509F0B0CFF093D106E093C6
:10345000D0069ECFFD01DC01C0CF13821282D7CFF0
:10346000FB01DC0102C001900D9241505040D8F7A1
:1034700008956817790768F4FB01DC01E40FF51F74
:10348000A40FB51F02C002900E9241505040D8F7D1
:1034900008950C94301ADC0101C06D9341505040E6
:1034A000E0F70895FB01DC014150504048F00190E5
:1034B0000D920020C9F701C01D9241505040E0F725
:0634C0000895F894FFCF0F
:1034C600FFFFFFFF00E10000000000000000D20641
:1034D600800000C1808100000000316253C4F5A65F
:1034E60097B988DBEA7D4C1F2E4372211087B6E51B
:1034F600D4FACB98A93E0F5C6D86B7E4D54273200B
:10350600113F0E5D6CFBCA99A8C5F4A796013063FE
:10351600527C4D1E2FB889DAEB3D0C5F6EF9C89BC5
:10352600AA84B5E6D7407122137E4F1C2DBA8BD8DC
:10353600E9C7F6A59403326150BB8AD9E87F4E1DD0
:103546002C02336051C6F7A495F8C99AAB3C0D5EC0
:103556006F4170231285B4E7D67A4B1829BE8FDCEB
:10356600EDC3F2A1900736655439085B6AFDCC9F1E
:10357600AE80B1E2D344752617FCCD9EAF38095A0A
:103586006B4574271681B0E3D2BF8EDDEC7B4A19FA
:103596002806376455C2F3A0914776251483B2E115
:1035A600D0FECF9CAD3A0B586904356657C0F1A2E0
:1035B60093BD8CDFEE79481B2AE1D083B2251447F0
:1035C6007658693A0B9CADFECFA293C0F1665704BC
:1035D600351B2A7948DFEEBD8C000000007C05FB18
:1035E600049D059205E305A105BF0500000000AA9C
:1035F600077D07D9075307760763075407000000BE
:1036060000DC078B0F3B0838082D082208EA07DF85
:1036160007DD0706094261736963426C696E6B00D8
:06362600312E302E3000B1
:00000001FF
