:100000000C9479010C94AA010C94AA010C94AA01F5
:100010000C94AA010C94AA010C94AA010C94AA01B4
:100020000C94AA010C94AA010C94AA010C94AA01A4
:100030000C94AA010C94AA010C94AA010C94AA0194
:100040000C94AA010C94AA010C94AA010C94AA0184
:100050000C94AA010C94AA010C94AA010C94740F9C
:100060000C94AA010C94E80F0C94BE0F0C94AA01F6
:100070000C94AA010C94AA010C94AA010C94AA0154
:100080000C94AA010C94AA010C94AA010C94AA0144
:100090000C94AA010C94AA010C94AA010C941E10B1
:1000A0000C94AA010C94AA010C94AA010C94AA0124
:1000B0000C94AA010C94AA010C94AA010C94AA0114
:1000C0000C94AA010C94AA010C94AA010C94AA0104
:1000D0000C94AA010C94AA010C94AA010C94AA01F4
:1000E0000C94AA010C94E6030C94EA020C941F03EE
:1000F0000C94ED080C9491070C9400050C94D10716
:100100000C944B040C9437040C9469040C94090867
:100110000C9441040C9446050C9455040C942B0F3C
:100120000C9409030C94EC040C94CF030C94290355
:100130000C94F2020C94DC030C9414040C94C40789
:100140000C94C0070C940D030C94FA030C94E40275
:100150000C94F0030C94D7030C94F6020C9428042E
:100160000C941F080C94C3070C945D070C94FF02B9
:100170000C9411030C9425030C940E050C943E1161
:100180000C943A070C94DD040C94C6070C94EE0210
:100190000C944A070C941E040C94F9020C94140855
:1001A0000C9403030C9493050C9422080C941B03E9
:1001B0000C9417030C9402040C945F040C946407D1
:1001C0000C943B070C94B0040C940A040C94240384
:1001D00000002100240027002A002D0030003300F9
:1001E00001010000040107010A01000022002500AE
:1001F00028002B002E003100340002010000050110
:1002000008010B01000020002300260029002C001B
:100210002F0032000001000003010601090105055D
:100220000505070508080808020202020A0A08086C
:10023000040404040101010101010101030303039A
:1002400003030303040707070C0C0C0C0C0C0C0C29
:100250000202020206060606060606060B0B0B0B3A
:100260000B0B0B0B0102102020080810204010205F
:10027000408002010201080402010102040810206A
:100280004080804020100804020180040201804068
:1002900020100804020108040201010204081020D1
:1002A0004080010204081020408000000A0B02096F
:1002B0000C0D0E0807030401000000000000000000
:1002C000000000000000000000000000000000002E
:1002D00000000000000012111000000000000000EB
:1002E000000000000000000000000000000000000E
:1002F0003E1111241FBECFEFD1E2DEBFCDBF00E023
:100300000CBF13E0A0E0B2E0E0EFFFE200E00BBFC3
:1003100002C007900D92A435B107D9F727E0A4E5F4
:10032000B3E001C01D92A73FB207E1F711E0C9E7B2
:10033000D1E000E006C021970109802FFE010E9454
:100340009816C837D10780E00807A9F70E94541211
:100350000C94F6170C940000AF92BF92CF92DF92EC
:10036000EF92FF920F931F93CF93DF931F92CDB71E
:10037000DEB7790198E0E90EF11CA9E8EA16F1046C
:1003800008F08DC093E49093B20594E49093B30584
:1003900091E09093B4058093B5056093B6052093E2
:1003A000B7053093B8052115310509F084C0B901AE
:1003B0006B5F7F4FA4EBB5E050E040E080E0461774
:1003C000570708F489C0F901E754FA4F8083E11414
:1003D000F10409F464C089018091330490913404DC
:1003E000DC01ED91FC910088F189E02D19958823BD
:1003F00009F48CC0075F1F4F0338110508F04FC088
:1004000082EBA82E85E0B82E61E070E081E030E05C
:1004100020E0F0E0E0E0D5019D915D013196AB0177
:100420004F5F5F4F8901065C194F911160C0D80181
:100430008C939B0181E0EE15FF0508F456C0265C05
:10044000394FF90180834115510549F180913304F9
:1004500090913404DC01ED91FC910084F185E02D54
:100460006AE376E0199519828091330490913404FF
:10047000DC01ED91FC910084F185E02D41E050E03C
:10048000BE016F5F7F4F19958091330490913404C2
:10049000DC01ED91FC910684F785E02D19950F9014
:1004A000DF91CF911F910F91FF90EF90DF90CF9050
:1004B000BF90AF9008954115510509F478CFFA0126
:1004C000A9EBB5E0CA01820F931F8E179F0709F4AD
:1004D0006ECF41914D93F9CFED91E827F0E0EA5FBF
:1004E000FD4F80814F5F5F4F6ACFBA0194CFDB0130
:1004F000A65CB94F9C938F5F8F3F09F09CCFD801CA
:100500008C939A01AB014E5F5F4F94CF809133047F
:1005100090913404DC01ED91FC910084F185E02D93
:10052000A70162EB75E0AFCF30E020E050E040E0A3
:10053000682F82E80C94AC01CF93DF931F92CDB764
:10054000DEB7698321E030E0AE014F5F5F4F682F77
:1005500083E80E94AC010F90DF91CF910895FC01D8
:1005600024813581828193812817390768F480813D
:100570009181A9014F5F5F4F55834483FC01E20FD6
:10058000F31F608381E0089580E0089581508231F7
:1005900008F05AC0E82FF0E08827EE52FD4F8F4F49
:1005A0000C949816F202F602E402EA02EE02240328
:1005B000F902FF02030309030D03110317031B03D1
:1005C00024031F0325032903809180008F778093E4
:1005D00080000895809180008F7DF9CF8091800008
:1005E000877FF5CF84B58F7784BD089584B58F7DDF
:1005F000FBCF8091B0008F778093B00008958091F9
:10060000B0008F7DF9CF809190008F77809390001C
:100610000895809190008F7DF9CF80919000877F21
:10062000F5CF8091A0008F778093A00008958091EE
:10063000A0008F7DF9CF8091A000877FF5CF8091BA
:1006400020018F77809320010895809120018F7D74
:10065000F9CF80912001877FF5CF1F93CF93DF9350
:10066000282F30E0F901E655FD4F8491F901EC594E
:10067000FD4FD491F901E25EFD4FC491CC23A9F066
:10068000162F81110E94C602EC2FF0E0EE0FFF1F23
:10069000E651FE4FA591B4918FB7F894EC911111EA
:1006A00008C0D095DE23DC938FBFDF91CF911F91DF
:1006B0000895DE2BF8CFCF93DF9390E0FC01EC5947
:1006C000FD4F2491825E9D4FFC0184918823C9F0E7
:1006D00090E0880F991FFC01E053FE4FA591B49163
:1006E000FC01E651FE4FC591D49161110DC09FB739
:1006F000F8948C91209582238C93888128232883D9
:100700009FBFDF91CF910895623051F49FB7F89465
:100710003C91822F809583238C93E8812E2BEFCF01
:100720008FB7F894EC912E2B2C938FBFEACF1F93A9
:10073000CF93DF93182FEB0161E00E945B032097BA
:1007400039F460E0812FDF91CF911F910C942D033C
:10075000CF3FD10511F461E0F5CFE12FF0E0E65590
:10076000FD4FE491E150E23108F0B3C0F0E088279A
:10077000E354FC4F8F4F0C949816CF03D703DC0340
:10078000E603F0036904FA0302040A0414041E04D5
:1007900028043704410469044B0455045F0484B5FC
:1007A000806884BDC7BDDF91CF911F91089584B546
:1007B000806284BDC8BDF7CF80918000806880933F
:1007C0008000D0938900C0938800EDCF8091800095
:1007D000806280938000D0938B00C0938A00E3CF27
:1007E00080918000886080938000D0938D00C093BA
:1007F0008C00D9CF8091B00080688093B000C09306
:10080000B300D1CF8091B00080628093B000C093DC
:10081000B400C9CF80919000806880939000D093FD
:100820009900C0939800BFCF809190008062809320
:100830009000D0939B00C0939A00B5CF8091900018
:10084000886080939000D0939D00C0939C00ABCFB4
:100850008091A00080688093A0008091A0008F7B91
:100860008093A000D093A900C093A8009CCF809152
:10087000A00080628093A000D093AB00C093AA0038
:1008800092CF8091A00088608093A000D093AD00AB
:10089000C093AC0088CF80912001806880932001B4
:1008A000D0932901C09328017ECF809120018062DE
:1008B00080932001D0932B01C0932A0174CF8091A3
:1008C0002001886080932001D0932D01C0932C01DA
:1008D0006ACFC038D1050CF03ECF33CF863308F055
:1008E000865320917B00982F9870277F922B9093AE
:1008F0007B008770806480937C0080917A008064A4
:1009000080937A0080917A0086FDFCCF80917800F8
:100910009091790008953FB7F89480919903909150
:100920009A03A0919B03B0919C0326B5A89B05C098
:100930002F3F19F00196A11DB11D3FBFBA2FA92F5E
:10094000982F8827BC01CD01620F711D811D911D5B
:1009500042E0660F771F881F991F4A95D1F70895C7
:10096000AF92BF92CF92DF92EF92FF920F931F93BD
:10097000CF93DF936C017B018B01040F151FEB01FB
:100980005E01AE18BF08C017D10759F06991D601B2
:10099000ED91FC910190F081E02DC6011995892B14
:1009A00079F7C501DF91CF911F910F91FF90EF90E3
:1009B000DF90CF90BF90AF900895FC01538D448D90
:1009C000252F30E0842F90E0821B930B541710F0FA
:1009D000CF96089501970895FC01918D828D981707
:1009E00061F0A28DAE0FBF2FB11D5D968C91928DDF
:1009F0009F5F9F73928F90E008958FEF9FEF089510
:100A0000FC01918D828D981731F0828DE80FF11DD8
:100A1000858D90E008958FEF9FEF0895FC01918DF3
:100A2000228D892F90E0805C9F4F821B91098F73EC
:100A3000992708958BE497E00E940E0521E0892B09
:100A400009F420E0822F0895FC01A48DA80FB92F8E
:100A5000B11DA35ABF4F2C91848D90E001968F73E6
:100A60009927848FA689B7892C93A089B1898C9105
:100A7000837080648C93938D848D981306C0028854
:100A8000F389E02D80818F7D80830895EF92FF921E
:100A90000F931F93CF93DF93EC0181E0888F9B8DA1
:100AA0008C8D98131AC0E889F989808185FF15C05B
:100AB0009FB7F894EE89FF896083E889F98980817E
:100AC0008370806480839FBF81E090E0DF91CF914D
:100AD0001F910F91FF90EF900895F62E0B8D10E06F
:100AE0000F5F1F4F0F731127E02E8C8D8E110CC0DE
:100AF0000FB607FCFACFE889F989808185FFF5CF29
:100B0000CE010E942405F1CFEB8DEC0FFD2FF11DDE
:100B1000E35AFF4FF0829FB7F8940B8FEA89FB8965
:100B200080818062CFCFCF93DF93EC01888D8823C3
:100B3000B9F0AA89BB89E889F9898C9185FD03C040
:100B4000808186FD0DC00FB607FCF7CF8C9185FF25
:100B5000F2CF808185FFEDCFCE010E942405E9CF41
:100B6000DF91CF91089580E090E0892B29F00E94D9
:100B70001A0581110E94000080E090E0892B49F065
:100B800080E090E0892B29F00E94000081110E94F2
:100B9000000080E090E0892B49F080E090E0892B14
:100BA00029F00E94000081110E94000080E090E086
:100BB000892B49F080E090E0892B29F00E94000009
:100BC00081110C94000008951F93CF93DF93C1E02F
:100BD000C0935403882399F1D091B8001091BA00C2
:100BE0008091BC008A7B8093BC0060E084E10E941D
:100BF0002D0360E085E10E942D031092E903C0936C
:100C0000E8031092C30361E084E10E942D0361E0D8
:100C100085E10E942D038091B9008E7F8093B900F9
:100C20008091B9008D7F8093B90088E48093B800EB
:100C300085E48093BC001093BA00D093B800DF9194
:100C4000CF911F9108958F929F92AF92BF92CF92B2
:100C5000DF92EF92FF920F931F93CF93DF93D09188
:100C60001204D13208F0D7C0182FC09111040E948D
:100C70008B046B017C018091E90381116BC082E0E0
:100C80008093E9031093E8038FEF8093E7031092BA
:100C9000E603D093E503A1EFB3E0E5ECF3E080E0F9
:100CA000D81391C01092C4038091C403CC0FC82BF9
:100CB000C093C4038091C303813009F088C01092AF
:100CC000C3030E948B046B017C018091C403809359
:100CD000BB008091EB039091EC03A091ED03B091E8
:100CE000EE03892B8A2B8B2BA1F00E948B040091A1
:100CF000EB031091EC032091ED033091EE036C199E
:100D00007D098E099F09061717072807390708F478
:100D100042C08091BC0083FDD8CF85EC8093BC009D
:100D20000E948B046B017C018091E903823009F4FD
:100D300050C08091E7038F3F09F46FC08091E703B3
:100D4000803209F46CC08091E703803309F469C0F4
:100D500084E026C08091EB039091EC03A091ED0319
:100D6000B091EE03892B8A2B8B2B09F484CF0E9440
:100D70008B048090EB039090EC03A090ED03B09077
:100D8000EE036C197D098E099F0986169706A80641
:100D9000B90608F070CF8091EA030E94E40585E06F
:100DA0001092F003109212041092EF03DF91CF9192
:100DB0001F910F91FF90EF90DF90CF90BF90AF9079
:100DC0009F908F9008959D9191938F5F69CF85EE4D
:100DD000A5CF8091EB039091EC03A091ED03B0912E
:100DE000EE03892B8A2B8B2B09F49ECF0E948B0458
:100DF0000091EB031091EC032091ED033091EE0391
:100E00006C197D098E099F090617170728073907EE
:100E100008F08ACFC0CF81E0C3CF80E0C1CF82E0AD
:100E2000BFCF83E0BDCF20917503260F3327331F3B
:100E300021323105ECF42091E903FC0190E080E0DF
:100E4000243069F082E00895A09175032191AC01EE
:100E50004B5A5C4FA40FB52FB11D2C9301968617EA
:100E600098F380917503680F6093750380E008958F
:100E700081E008950895E091A2038091A103E8170D
:100E800030F4F0E0ED55FC4F808190E008958FEF55
:100E90009FEF08959091A2038091A1032FEF3FEF60
:100EA000981748F4E92FF0E0ED55FC4F208130E031
:100EB0009F5F9093A203C90108958091A10390912F
:100EC000A203891B990B0895CF92DF92EF92FF92B4
:100ED0000F931F93CF93DF937C01CB018A01209165
:100EE000EF03222389F0EB016B01C40ED51ECC1554
:100EF000DD0569F06991D701ED91FC910190F081D8
:100F0000E02DC7011995F3CF642F0E941307C80184
:100F1000DF91CF911F910F91FF90EF90DF90CF90D5
:100F20000895CF93DF931F92CDB7DEB769832091E9
:100F3000EF032223F9F020911204203258F021E02F
:100F400030E0FC013383228390E080E00F90DF915A
:100F5000CF9108958091F003E82FF0E0EF50FC4F1F
:100F6000998190838F5F8093F0038093120481E0D6
:100F700090E0ECCF61E0CE0101960E941307F7CF1D
:100F800090E080E00895089581E00895DC011296D4
:100F90008D919C91DC01ED91FC910680F781E02D13
:100FA0001994CF92DF92EF92FF920F931F93CF93FA
:100FB000DF937C016A018B01D0E0C0E0CC15DD0538
:100FC000F1F0D70112968D919C91DC01ED91FC918D
:100FD0000084F185E02D1995892B89F0F701828134
:100FE0009381DC01ED91FC910284F385E02D19954C
:100FF00097FD05C02196F80181938F01DFCFCE01C7
:10100000DF91CF911F910F91FF90EF90DF90CF90E4
:101010000895DC0112968D919C91DC01ED91FC917B
:101020000084F185E02D1994DC0112968D919C913C
:10103000DC01ED91FC910280F381E02D1994FC011B
:1010400082850895CF92DF92EF92FF920F931F93C4
:10105000CF93DF938C01FC01C481D581209709F4E3
:1010600054C0C680D780E084F184E889F98982E0A1
:101070008083C114F1EEDF06E104F104A1F060E029
:1010800079E08DE390E0A70196010E947616215049
:1010900031094109510956954795379527952115ED
:1010A00080E1380798F0E889F989108260E874E8EF
:1010B0008EE190E0A70196010E9476162150310939
:1010C000410951095695479537952795EC85FD853A
:1010D0003083EE85FF852083188EEC89FD8986E0BC
:1010E0008083EA89FB89808180618083EA89FB892A
:1010F000808188608083EA89FB8980818068808321
:10110000EA89FB8980818F7D808381E0F801828775
:10111000DF91CF911F910F91FF90EF90DF90CF90D3
:1011200008950F931F93CF93DF93DC01FB0182811E
:101130008C93938111969C931197948112969C9312
:1011400012976581768114967C936E931397813004
:10115000F1F5CB01089648175907E0F161157105C3
:1011600001F1CF01079616969C938E9315978B01EC
:101170000B5F1F4FAF014E5F5F4F30E020E080E01C
:101180002017310798F0E60FF71F97819817D1F0D5
:1011900017969C9384E090E0DF91CF911F910F917F
:1011A000089516961C921E921597E1CFEA01999127
:1011B000AE01C92FC827D0E0CA5FDD4F88812F5FFD
:1011C0003F4FDECF17968C9390E080E0E5CF83E031
:1011D00090E0E2CF85E090E0DFCF0895FC018481CC
:1011E0009581AC014E5F5F4F228133812417350713
:1011F000C8F0A081B1819C012F5F3F4F35832483CC
:10120000A80FB91F6C938081918124813581A90138
:101210004F5F5F4F55834483FC01E20FF31F7083E0
:1012200081E0089580E00895FC01848195819C010E
:101230002E5F3F4F428153814217530758F0A081E0
:10124000B181A80FB91F11969C9111978C9135838C
:101250002483089590E080E00895FC012481358185
:10126000828193812817390760F480819181A901D7
:101270004F5F5F4F55834483FC01E20FF31F808172
:10128000089580E00895CF92DF92EF92FF920F933E
:101290001F93CF93DF93D82FC62F0E948B046B012F
:1012A0007C018091E903811168C0C13208F0C0E27D
:1012B00081E08093E9038093E8039FEF9093E70335
:1012C0001092E6039C0F9093E5038093C4038091F2
:1012D000C403DD0FD82BD093C4038091C3038130A6
:1012E00009F07FC01092C3030E948B046B017C0144
:1012F0008091C4038093BB008091EB039091EC0339
:10130000A091ED03B091EE03892B8A2B8B2BA1F0DA
:101310000E948B040091EB031091EC032091ED03EC
:101320003091EE036C197D098E099F090617170786
:101330002807390708F442C08091BC0083FDD8CF4C
:1013400085EC8093BC000E948B046B017C01809132
:10135000E903813009F447C08091E6038C1710F44B
:10136000C091E603E5ECF3E0A3EAB3E080E08C177C
:1013700051F191919D938F5FFACF8091EB03909102
:10138000EC03A091ED03B091EE03892B8A2B8B2BFC
:1013900009F487CF0E948B040091EB031091EC03BA
:1013A0002091ED033091EE036C197D098E099F09A0
:1013B000061717072807390708F073CF8091EA034B
:1013C0000E94E405C0E01092A203C093A1038C2FF9
:1013D000DF91CF911F910F91FF90EF90DF90CF9011
:1013E000089585EEAECF8091EB039091EC03A09130
:1013F000ED03B091EE03892B8A2B8B2B09F4A7CF39
:101400000E948B040091EB031091EC032091ED03FB
:101410003091EE036C197D098E099F090617170795
:101420002807390708F093CFC9CF9F92AF92BF9298
:10143000CF92DF92EF92FF920F931F93CF93DF93A0
:10144000CDB7DEB7CC58D1090FB6F894DEBF0FBECA
:10145000CDBF8C01DC0111968C911197823209F479
:10146000EEC308F0A6C0823109F4A1C1F0F58230C4
:1014700009F45BC128F4813009F43BC161E08BC100
:10148000803109F45CC18131C9F7F801838194810D
:101490008230910508F459C115962D913C913A83FB
:1014A00029839C838B831E821D82CE0101960E941C
:1014B0002D09E82ECE0101960E942D09F82EF80183
:1014C00083819481039708F468C1CE0101960E943C
:1014D0002D096F2D823009F465C161E0F11001C062
:1014E00060E08E2D0E942D03EBC0843109F48FC281
:1014F00008F4CEC1803209F45BC3813209F0BECF5B
:1015000013968D919C9114978230910508F457C3DE
:10151000F80125813681C957DF4F39832883C758A1
:10152000D040C757DF4F99838883C958D040C557EB
:10153000DF4F19821882CB58D040CE0189579F4F78
:101540000E942D09F82E88EF8F0D803708F04CC3CC
:10155000CE0189579F4F0E942D09FE0131966F01E0
:10156000CF57DF4FF983E883C158D04020E830E0FF
:10157000CD57DF4F39832883C358D040CB57DF4F37
:1015800019821882C558D040682F8F2D0E944309B8
:10159000E82EF12CEF1409F4C6C383E194E00E9415
:1015A0004A07682FCE018F579F4F0E94AF02F394D6
:1015B000F1CF803609F4A7C208F077C0803409F46F
:1015C0004FC208F065C0803309F058CFF80183811D
:1015D000948161E08230910508F4B8C015962D9190
:1015E0003C91C957DF4F39832883C758D040C7572C
:1015F000DF4F99838883C958D040C557DF4F198280
:101600001882CB58D040CE0189579F4F0E942D0998
:10161000982EF801C380D480F1E0CF1AD1089E0142
:101620002F5F3F4F5901CF57DF4F39832883C15870
:10163000D04080E890E0CD57DF4F99838883C3582E
:10164000D040CB57DF4F19821882C558D04081E572
:101650008CBD1DBC60E0892D0E942D03F12CE12C76
:10166000EC14FD0408F06BC3CE0189579F4F0E9414
:101670002D098EBD00000DB407FEFDCF6EB5CE0165
:101680008F579F4F0E94AF023FEFE31AF30AE8CF54
:10169000803509F464C3813509F0F0CE10924A0711
:1016A00010923F0710923E07D5C1833778F48037F8
:1016B00008F097C3813609F472C2823609F0DECE93
:1016C000D80112968C910E9494021CC0803F09F0B0
:1016D000D5CE909127052FE134E080E0235F3F4F86
:1016E000981709F45EC2F901E156FF4F10828F5F2F
:1016F000F5CF30E020E050E040E0F801628180E882
:101700000E94AC01C457DF4F0FB6F894DEBF0FBE86
:10171000CDBFDF91CF911F910F91FF90EF90DF90A0
:10172000CF90BF90AF909F90089520913C0730914B
:101730003D074CEB56E012966C9181E8E1CFF80141
:10174000838194818230910518F464E0828192C192
:1017500015962D913C913A8329839C838B831E821D
:101760001D82CE0101960E942D09F82ECE01019610
:101770000E942D09833040F460E0813008F061E080
:101780008F2D0E945B039CCF833009F499CF62E0D8
:101790008430B1F365E0F801D9CFF1E06F2DFF158A
:1017A00008F09FCE70E08E2D0E94970389CFF8013C
:1017B00083819481009749F215962D913C91CF57E2
:1017C000DF4F39832883C158D040CD57DF4F9983ED
:1017D0008883C358D040CB57DF4F19821882C55831
:1017E000D040CE018F579F4F0E942D09D82EF8016F
:1017F00083819481029730F1CE018F579F4F0E94D1
:101800002D097E01F7E8EF0EF11CFA82E98224E04F
:1018100030E03C832B8321E030E03E832D83D701F1
:10182000DC92833089F48D2D0E946E04BC01CE01C0
:1018300001960E94EE082D813E81A701F801628188
:1018400081E95ECF80E0DDCF2D2D30E0F901E65556
:10185000FD4F8491F901EC59FD4FD490F901E25EFE
:10186000FD4FC49060E070E0CC2009F381110E942C
:10187000C602EC2DF0E0EE0FFF1FEC5FFD4FA591CF
:10188000B491EC91DE2261E070E089F660E0CFCFA8
:1018900013968D919C91149764E08530910508F41E
:1018A0008FC1F801258136813A8329839C838B83FC
:1018B0001E821D82CE0101960E942D09C82ECE01E6
:1018C00001960E942D09D82ECE0101960E9414097E
:1018D0007C01D80113968D919C91079708F448C01C
:1018E000CE0101960E94140920912705EFEBF4E048
:1018F00050E040E0421708F042C03081C3123BC0C4
:1019000034853323C1F12DE0249FF001259FF00D94
:101910001124E054FB4FD082E114F10419F434E6B1
:10192000E32EF12C6DE0649F9001659F300D112432
:10193000215E3B4FF901EE55FF4FF182E082329676
:10194000918380833296118210824FB7F8948091F0
:101950009D0390919E03A0919F03B091A0034FBF60
:1019600028553F4FF90180839183A283B383A8CE8A
:1019700090E080E0B9CF4F5F5F4F3D96BBCF6BE00B
:10198000283009F408CF422F50E0FDE02F9F90014E
:101990001124215E3B4FF901E056FF4FC0822F55C5
:1019A0003F4FD901DC92E114F10419F424E6E22E50
:1019B000F12C6DE0649F9001659F300D1124215E34
:1019C0003B4FF901EE55FF4FF182E0823296918351
:1019D00080833296118210824FB7F89480919D03D4
:1019E00090919E03A0919F03B091A0034FBF3296A8
:1019F00080839183A283B38324553F4F81E0F90113
:101A00008083809127058F5F8093270559CEF80149
:101A100083819481892B19F464E0D801D1C0159693
:101A2000ED91FC91208130912705EFEBF4E090E0FF
:101A300080E0831788F7408124130FC04485442336
:101A400061F02DE0289FF001299FF00D1124E5534E
:101A5000FB4F1082F801828136CE01963D96E9CF88
:101A600013962D913C91149712968C91223031054A
:101A700020F468E00E949C0245CEF801A581B68161
:101A8000EC9190913D04E917A0F7F0E0EE0FFF1FF5
:101A9000EB5CFB4FE080F180E114F10451F311960F
:101AA0006C9111971296BA83A983225031093C8315
:101AB0002B831E821D822FE134E0CF57DF4F398305
:101AC0002883C158D040CD57DF4F8883C358D040BA
:101AD000CC57DF4F1882C458D040D701ED91FC910C
:101AE0000484F585E02D9E012F573F4FAE014F5FD7
:101AF0005F4FC7011995CC57DF4F8881C458D0403C
:101B0000811100CEA7CF13962D913C911497129678
:101B10008C912230310510F46DE0ACCFF801A58135
:101B2000B681EC919091BE04E917B0F760E2E69FB0
:101B3000F0011124E15EFB4F92AD6EE0992309F4B0
:101B400099CF1196BA83A983215031093C832B8305
:101B50001E821D822FE134E0CF57DF4F3983288367
:101B6000C158D040CD57DF4F8883C358D040CC57A1
:101B7000DF4F1882C458D04005ACF6ADE02D309749
:101B800031F0BE016F577F4FCE0101961995CC57AA
:101B9000DF4F8881C458D0408111B4CD91CD6DE024
:101BA000FACD109227051092B1051092B00552CFD0
:101BB00013968D919C9114978230910520F466E0E4
:101BC00012968C9157CFF801258136813A8329836B
:101BD0009C838B831E821D82CE0101960E942D095B
:101BE00098EF980F903710F066E017CFF801C38098
:101BF000D480F1E0CF1AD10891E09093EF03809365
:101C000011041092F00310921204F12CE12CEC1448
:101C1000FD0468F4CE0101960E942D09682F83E12E
:101C200094E00E9491072FEFE21AF20AF0CF81E0D0
:101C30000E942306882309F443CD67E0ACCDF80168
:101C40008381948166E08330910508F47FCD1596F9
:101C50002D913C91C957DF4F39832883C758D04015
:101C6000C757DF4F99838883C958D040C557DF4F86
:101C700019821882CB58D040CE0189579F4F0E94BD
:101C80002D09E82E88EF8E0D66E0803708F083CDB1
:101C9000CE0189579F4F0E942D09F82ECE018957FA
:101CA0009F4F0E942D09B82E81E08093EF03E092B0
:101CB00011041092F003109212046F2D83E194E04E
:101CC0000E94910780E00E942306F82E67E08111B0
:101CD000A4CEFE0131966F01CF57DF4FF983E88321
:101CE000C158D04080E890E0CD57DF4F998388837A
:101CF000C358D040CB57DF4F19821882C558D04007
:101D00006B2D8E2D0E944309E82EEF1461F083E1C4
:101D100094E00E944A07682FCE018F579F4F0E9480
:101D2000AF02F394F2CFCB57DF4F28813981C558EA
:101D3000D040A601D80112966C9180EAE1CC61E016
:101D4000892D0E942D03CB57DF4F28813981C5583B
:101D5000D040A501D80112966C9180EBD1CCF8014E
:101D6000838194818530910508F456CE2581368192
:101D70003A8329839C838B831E821D82CE01019628
:101D80000E94140990933F0780933E07CE0101966D
:101D90000E941409909341078093400721E020930B
:101DA0004A0720E137E240E050E0009749F09C010B
:101DB00050E040E060E472E48FE090E00E9476162C
:101DC00020934207309343074093440750934507BD
:101DD0001092460710924707109248071092490741
:101DE0006FCC6FE01ACE85ED8093BC008091EB0341
:101DF0009091EC03A091ED03B091EE030796A11D25
:101E0000B11D23E0B695A795979587952A95D1F7AB
:101E10002091BC0024FD03C01092E9030895409175
:101E2000EB035091EC036091ED037091EE03452BB1
:101E3000462B472B69F30097A105B10541F02AE233
:101E40002A95F1F700C00197A109B109E1CF80916E
:101E5000EA030C94E4050C943C17EF92FF920F9365
:101E60001F93CF93DF93EC012C813D81F901E40FA7
:101E7000F51F8A819B818E179F07A0F1FB010190BE
:101E80000020E9F73197E61BF70B7A01E417F50715
:101E900008F47F018A0188819981A701820F931F2D
:101EA0000E94C517E016F10678F4A8014E195F09E3
:101EB0008C819D81E80EF91E8881998170E060E037
:101EC0008E0D9F1D0E94E0174C815D81040F151F30
:101ED0001D830C8381E0DF91CF911F910F91FF90C3
:101EE000EF90089580E0F7CF1F920F920FB60F92F8
:101EF00011242F933F938F939F93AF93BF93809120
:101F00009D0390919E03A0919F03B091A0033091F7
:101F1000980323E0230F2D3758F50196A11DB11D1D
:101F20002093980380939D0390939E03A0939F0317
:101F3000B093A0038091990390919A03A0919B0381
:101F4000B0919C030196A11DB11D809399039093BC
:101F50009A03A0939B03B0939C03BF91AF919F9171
:101F60008F913F912F910F900FBE0F901F9018955A
:101F700026E8230F0296A11DB11DD2CF1F920F920A
:101F80000FB60F9211240BB60F922F933F934F93DE
:101F90005F936F937F938F939F93AF93BF93EF93D1
:101FA000FF938BE497E00E942405FF91EF91BF918E
:101FB000AF919F918F917F916F915F914F913F91E1
:101FC0002F910F900BBE0F900FBE0F901F90189582
:101FD0001F920F920FB60F9211240BB60F922F93F0
:101FE0008F939F93EF93FF93E0915B07F0915C07D2
:101FF0008081E0916107F091620782FD1DC09081B0
:10200000809164078F5F8F7320916507821741F07D
:10201000E0916407F0E0E55BF84F958F80936407EB
:10202000FF91EF919F918F912F910F900BBE0F9089
:102030000FBE0F901F9018958081F2CF1F920F92C4
:102040000FB60F9211240BB60F922F933F934F931D
:102050005F936F937F938F939F93AF93BF93EF9310
:10206000FF938091B900887F803609F44DC008F055
:1020700040C0883209F4A7C028F5803109F49BC01C
:10208000C8F4882309F4F7C0883009F494C0FF919C
:10209000EF91BF91AF919F918F917F916F915F91E0
:1020A0004F913F912F910F900BBE0F900FBE0F904D
:1020B0001F901895883109F486C0803241F78093CB
:1020C000E70314C0803409F49BC040F48033B9F3B3
:1020D0008833E9F68093E70385ECAEC0803509F4D8
:1020E00083C0883509F494C0883489F60E94F30EC1
:1020F000CECF883909F48AC038F5883729F050F4F2
:10210000883611F0803719F683E08093E903109246
:10211000970355C0883809F479C0803919F08038A0
:1021200009F0B5CF80919703803208F06FC0E0913D
:10213000970381E08E0F809397038091BB00F0E0BE
:10214000E958FC4F80833BC0803B39F0D0F4803AA3
:1021500009F477C0883A09F09ACF84E08093E903C4
:102160001092760310927503F0E0E0E019958091EB
:10217000750381110FC081E08093750310925503A0
:1021800009C0803C09F4A8CF883C09F4A5CF883B5E
:1021900009F07DCFE091760381E08E0F8093760386
:1021A000F0E0EB5AFC4F80818093BB009091760366
:1021B0008091750329C08091C4038093BB0085EC96
:1021C0008093BC0064CF9091E6038091E50398175B
:1021D00058F5E091E60381E08E0F8093E603F0E08E
:1021E000EB53FC4F8081E9CFE091E60381E08E0F55
:1021F0008093E6038091BB00F0E0EB53FC4F8083BB
:102200009091E6038091E5039817C8F285E8D8CF4E
:10221000E091E60381E08E0F8093E6038091BB009E
:10222000F0E0EB53FC4F80838091E80381115ECF97
:1022300081E08093C30384EA8093BC001092E90399
:1022400026CF85EC8093BC001092E9038091970320
:10225000803230F4E0919703F0E0E958FC4F1082AF
:102260006091970370E087E793E0F0E0E0E0199574
:10227000109297030CCF1092E70338CF1F93CF93A0
:10228000DF9300D000D0CDB7DEB78BE497E010929B
:102290004E0710924D0748EE53E060E070E0409327
:1022A0004F075093500760935107709352072AE0ED
:1022B00033E030934C0720934B0725EC30E030930C
:1022C00058072093570724EC30E030935A072093A7
:1022D000590720EC30E030935C0720935B0721EC3A
:1022E00030E030935E0720935D0722EC30E03093BE
:1022F000600720935F0726EC30E03093620720935D
:102300006107109264071092650710926607109299
:102310006707109216041092150440931704509307
:1023200018046093190470931A042CE133E030937D
:102330001404209313042EE233E03093E907209332
:10234000E8079093EB078093EA079093ED0780935B
:10235000EC0780E092ECA1E0B0E08093EE07909370
:10236000EF07A093F007B093F1071092F20788EE01
:1023700097E0909334048093330410923D041092BC
:10238000BE04109227051092B1051092B00510926C
:102390003D0710923C0710923F0710923E071092A3
:1023A0004107109240071092420710924307109283
:1023B0004407109245071092460710924707109263
:1023C00048071092490710924A07EFE1F4E081E1D3
:1023D000DF011D928A95E9F740E150E062E473E085
:1023E000CF010E94E717109230041092310410922E
:1023F00032041A8219821C821B821E821D82ADE465
:10240000B3E030E020E01AE08D91882329F12330F9
:10241000310514F58E3219F42F5F3F4FF5CF90ED53
:10242000980F9A3088F7F901EE0FFF1F41E050E056
:102430004C0F5D1FE40FF51F60817181169FA00195
:10244000179F500D1124082E000C990BC097840F74
:10245000951F91838083D8CF8981809330048B81AD
:10246000809331048D8180933204E5E3F4E088E0C9
:10247000DF011D928A95E9F7EEE3F4E080E8DF01E1
:102480001D928A95E9F7EFEBF4E088E6DF011D92F3
:102490008A95E9F726960FB6F894DEBF0FBECDBF3A
:1024A000DF91CF911F910895CF93DF93CDB7DEB722
:1024B000CE58D1090FB6F894DEBF0FBECDBF7894C9
:1024C00084B5826084BD84B5816084BD85B5826039
:1024D00085BD85B5816085BD80916E0081608093EA
:1024E0006E00109281008091810082608093810053
:1024F0008091810081608093810080918000816063
:10250000809380008091B10084608093B1008091BD
:10251000B00081608093B0008091910082608093D0
:102520009100809191008160809391008091900052
:102530008160809390008091A10082608093A100CF
:102540008091A10081608093A1008091A0008160B2
:102550008093A0008091210182608093210180916D
:10256000210181608093210180912001816080930D
:10257000200180917A00846080937A0080917A00B3
:10258000826080937A0080917A00816080937A00E3
:1025900080917A00806880937A001092C1008091C7
:1025A000330490913404DC01ED91FC910480F581B9
:1025B000E02D199510E05FE1E52E54E0F52E8091B5
:1025C0003D041817C8F4E12FF0E0EE0FFF1FEB5C9D
:1025D000FB4FA081B181109769F01396FC92EE92A7
:1025E000129780819181DC01ED91FC910284F38549
:1025F000E02D19951F5FE3CF8CEB96E09A838983DA
:1026000080E890E09C838B831E821D8240E150E035
:102610006FE174E08E010F5F1F4FC8010E942D0F04
:1026200060913004C8010E94AF0260913104C8017A
:102630000E94AF0260913204C8010E94AF028D81F6
:102640009E81AC01485F5F4F2B813C812417350789
:1026500070F0E981FA81E80FF91F88E0DF011D922F
:102660008A95E9F78D819E8108969E838D8360E02F
:10267000C8010E94AF0266E4C8010E94AF023EEFAB
:10268000F32EBBE0BF1538F486ED8F0D63E0833089
:1026900030F467E004C0E1E067E0EF1520F480EF7C
:1026A0008F0D843008F46068C8010E94AF02F39473
:1026B000F4E4FF12E6CF61E0C8010E94AF0261E0DE
:1026C000C8010E94AF0262E0C8010E94AF0260E848
:1026D00070E0C8010E94EE0860913D04C8010E94AC
:1026E000AF02D12C80913D04D81608F065C0ED2DC5
:1026F000F0E0EE0FFF1FEB5CFB4FE080F180E11498
:10270000F10409F457C06D2DC8010E94AF02D70132
:10271000ED91FC910480F581E02DC701199548E009
:1027200050E0BC01C8010E942D0FD701ED91FC9132
:102730000680F781E02DC7011995682FC8010E9416
:10274000AF02D701ED91FC910084F185E02DC70126
:102750001995682FC8010E94AF02D701ED91FC9135
:102760000088F189E02DC7011995682FC8010E94E2
:10277000AF02D701ED91FC910288F389E02DC701EA
:1027800019955C01C12CD701ED91FC910088F1896C
:10279000E02DC7011995C81668F460E0A114B104D2
:1027A00021F0F501EC0DF11D6081C8010E94AF021E
:1027B000C394E9CFD39496CF6091BE04C8010E9420
:1027C000AF02D12C8091BE04D81678F5B0E2DB9E22
:1027D00070011124B701625C7B4F40E150E0C801F9
:1027E0000E942D0FF701E15EFB4F5F0160A9C80158
:1027F0000E94AF02B701605B7B4F48E050E0C80128
:102800000E942D0FD501DA966C91C8010E94AF028B
:10281000F50163ADC8010E94AF02D501DC966C9151
:10282000C8010E94AF02D394CDCF8D819E81909339
:102830003D0780933C077E01B9E8EB0EF11C9DE05B
:10284000892E8091330490913404DC01ED91FC9148
:102850000680F781E02D1995882309F444C2809100
:10286000330490913404DC01ED91FC910288F389EA
:10287000E02D19958091330490913404DC01ED91A1
:10288000FC910088F189E02D1995882309F4B1C0E5
:102890008091330490913404DC01ED91FC91028429
:1028A000F385E02D1995892B09F414C18091330427
:1028B00090913404DC01ED91FC910484F585E02DC8
:1028C00041E050E0B7011995019709F003C1F70104
:1028D00020818091B0059091B10521115BC00097D6
:1028E000B9F2D12CC12C50E040E033C0BA016F5F87
:1028F0007F4FFA01E85DFA4FA081AA2309F459C07D
:10290000BFEFBA0F2B2F30E0620F731F86179707A8
:1029100008F44FC02C0D3D1D2938310508F049C081
:10292000FA01E75DFA4F5F01C00ED11E40E04B1780
:1029300048F1AF3F61F06817790748F4283831054E
:10294000C1F1F801E20FF31F10822F5F3F4F6901C1
:10295000AB014817590750F2C114D10451F1A60137
:10296000B80188E295E00E94C517D092B105C092E7
:10297000B005F8E0CF16D10408F51092B105109219
:10298000B005A8C0F50151915F01F60151936F01A7
:102990004F5FCDCF8838910560F4AC014F5F5F4F3A
:1029A0005093B1054093B005885D9A4FDC012C939C
:1029B0006FCF1092B1051092B0056ACF80912805B3
:1029C0008334D9F6809129058434B9F6A60168E2EA
:1029D00075E0C8010E949108009721F4C8010E9487
:1029E000150ACBCF049749F662E080E00E949C0272
:1029F000C4CF8091330490913404DC01ED91FC91BB
:102A00000284F385E02D1995181619060CF062C0A2
:102A10006091B0057091B10528E830E0261B370BB6
:102A20002817390708F4C901A0913304B091340480
:102A3000685D7A4FED91FC9111970484F585E02D46
:102A4000AC01CD0119951816190654F42091B00562
:102A50003091B105820F931F9093B1058093B0051B
:102A60004091B0055091B1054830510598F18091E1
:102A70002805833479F580912905843459F568E275
:102A800075E0C8010E949108009709F00DC1C801C6
:102A90000E94150ACC80DD80B8E0CB0ED11C40919D
:102AA000B0055091B105C416D50608F066CF4C1993
:102AB0005D09B601685D7A4F88E295E00E94CE1705
:102AC0008091B0059091B1058C199D099093B10545
:102AD0008093B00580914A07882309F45AC00E9468
:102AE0008B044090460750904707609048077090CD
:102AF00049079B01AC012419350946095709409043
:102B00004207509043076090440770904507241592
:102B1000350546055705E8F160934607709347076A
:102B20008093480790934907F7011183008320E8B9
:102B300030E03383228315821482D12CC12C209162
:102B40003E0730913F0781E090E00C2C02C0880FD7
:102B5000991F0A94E2F782239323892B39F08C2D55
:102B60000E946E04BC01C7010E94EE083FEFC31A29
:102B7000D30A40E1C416D10411F7D70114962D9160
:102B80003C912115310529F0A80160E080ED0E94FB
:102B9000AC018FB7F89440909D0350909E036090D5
:102BA0009F037090A0038FBF912C809127059816EA
:102BB00008F081C0292C312C829CC001839C900D8F
:102BC0001124FC01E15EFB4F6F01E455FF4F808152
:102BD000882309F467C03B978081843009F062C084
:102BE000379680819181A281B381B301A201481BF4
:102BF000590B6A0B7B0B369780819181B0E0A0E086
:102C0000481759076A077B0708F44CC03297808140
:102C10000E946E045C01F601EA55FF4F80819181AC
:102C20008A159B0508F044C09501281B390BC90182
:102C3000829C9001839C300D1124A901415E5B4F61
:102C40006A01FA01EC55FF4F208131818217930709
:102C5000F0F0FA82E98283E090E09C838B833497E2
:102C60008081A1E0B0E0BE83AD83F7018083B50130
:102C7000C8010E94EE082D813E81A70160E080E935
:102C80000E94AC01F601EA55FF4FB182A082829CFE
:102C9000F001839CF00D1124E953FB4F40825182D7
:102CA00062827382939481CF049709F013CF9CCEF4
:102CB0008A199B09BDCFD12C80913D04D81698F478
:102CC000ED2DF0E0EE0FFF1FEB5CFB4F808191815B
:102CD000009739F0DC01ED91FC910684F785E02D39
:102CE0001995D394E9CF0E94B305ABCDA1E21A2E7A
:102CF000AA1BBB1BFD010DC0AA1FBB1FEE1FFF1FA0
:102D0000A217B307E407F50720F0A21BB30BE40BEF
:102D1000F50B661F771F881F991F1A9469F7609536
:102D20007095809590959B01AC01BD01CF010895F0
:102D3000EE0FFF1F881F8BBF0790F691E02D1994AF
:102D40000F931F93CF93DF938230910510F482E0AD
:102D500090E0E091F507F091F60730E020E0B0E078
:102D6000A0E0309799F42115310509F44AC0281BD9
:102D7000390B24303105D8F58A819B8161157105A5
:102D800089F1FB0193838283FE0111C0408151814F
:102D90000281138148175907E0F04817590799F441
:102DA000109761F012960C93129713961C9332961B
:102DB000CF01DF91CF911F910F9108950093F507F7
:102DC0001093F607F4CF2115310551F04217530740
:102DD00038F0A901DB019A01BD01DF01F801C1CF83
:102DE000EF01F9CF9093F6078093F507CDCFFE0161
:102DF000E20FF31F81939193225031093983288385
:102E0000D7CF2091F3073091F407232B41F4209181
:102E10000202309103023093F4072093F3072091CC
:102E20000002309101022115310541F42DB73EB762
:102E30004091040250910502241B350BE091F307E9
:102E4000F091F407E217F307A0F42E1B3F0B2817AD
:102E5000390778F0AC014E5F5F4F2417350748F013
:102E60004E0F5F1F5093F4074093F30781939193A4
:102E70009FCFF0E0E0E09CCFCF93DF930097E9F0A5
:102E8000FC01329713821282A091F507B091F607E8
:102E9000ED0130E020E01097A1F420813181820F14
:102EA000931F2091F3073091F4072817390709F091
:102EB00061C0F093F407E093F307DF91CF91089599
:102EC000EA01CE17DF07E8F54A815B819E014115D3
:102ED0005105B1F7E901FB83EA8349915991C40F88
:102EE000D51FEC17FD0761F4808191810296840F54
:102EF000951FE90199838883828193819B838A83CB
:102F0000F0E0E0E012968D919C9113970097B9F54F
:102F10002D913C911197CD010296820F931F209124
:102F2000F3073091F4072817390739F6309751F530
:102F30001092F6071092F507B093F407A093F307E9
:102F4000BCCFD383C28340815181840F951FC817A2
:102F5000D90761F44E5F5F4F88819981480F591FEF
:102F6000518340838A819B8193838283211531051C
:102F700009F0B0CFF093F607E093F5079ECFFD017F
:102F8000DC01C0CF13821282D7CFFB01DC0102C06B
:102F900001900D9241505040D8F708956817790775
:102FA00068F4FB01DC01E40FF51FA40FB51F02C09C
:102FB00002900E9241505040D8F708950C94C517D6
:102FC000DC0101C06D9341505040E0F70895FB01D2
:102FD000DC014150504048F001900D920020C9F7AB
:102FE00001C01D9241505040E0F70895F894FFCF82
:102FF0000000F707800000316253C4F5A697B98836
:10300000DBEA7D4C1F2E4372211087B6E5D4FACB44
:1030100098A93E0F5C6D86B7E4D5427320113F0E30
:103020005D6CFBCA99A8C5F4A796013063527C4D2C
:103030001E2FB889DAEB3D0C5F6EF9C89BAA84B5E8
:10304000E6D7407122137E4F1C2DBA8BD8E9C7F604
:10305000A59403326150BB8AD9E87F4E1D2C023300
:103060006051C6F7A495F8C99AAB3C0D5E6F4170EC
:10307000231285B4E7D67A4B1829BE8FDCEDC3F254
:10308000A1900736655439085B6AFDCC9FAE80B1CC
:10309000E2D344752617FCCD9EAF38095A6B4574B0
:1030A000271681B0E3D2BF8EDDEC7B4A19280637A4
:1030B0006455C2F3A0914776251483B2E1D0FECFC8
:1030C0009CAD3A0B586904356657C0F1A293BD8C8C
:1030D000DFEE79481B2AE1D083B225144776586980
:1030E0003A0B9CADFECFA293C0F1665704351B2A64
:1030F0007948DFEEBD8C000000004605B004DD0419
:1031000093050E05EC04000500000000910764071C
:10311000C0073A075D074A073B0700000000C307E6
:103120002B0F22081F0814080908D107C607C40777
:10313000ED084261736963426C696E6B00312E3039
:043140002E3000002D
:00000001FF
